{
  "address": "0xa713793a17c4fDa0d9346b7f07dDc4F6CcdeC9AC",
  "abi": [
    {
      "inputs": [
        {
          "internalType": "address",
          "name": "_l2Router",
          "type": "address"
        },
        {
          "internalType": "address",
          "name": "_l1Lpt",
          "type": "address"
        },
        {
          "internalType": "address",
          "name": "_l2Lpt",
          "type": "address"
        },
        {
          "internalType": "address",
          "name": "_l2LPTDataCache",
          "type": "address"
        }
      ],
      "stateMutability": "nonpayable",
      "type": "constructor"
    },
    {
      "anonymous": false,
      "inputs": [
        {
          "indexed": true,
          "internalType": "address",
          "name": "_l1Token",
          "type": "address"
        },
        {
          "indexed": true,
          "internalType": "address",
          "name": "_from",
          "type": "address"
        },
        {
          "indexed": true,
          "internalType": "address",
          "name": "_to",
          "type": "address"
        },
        {
          "indexed": false,
          "internalType": "uint256",
          "name": "_amount",
          "type": "uint256"
        }
      ],
      "name": "DepositFinalized",
      "type": "event"
    },
    {
      "anonymous": false,
      "inputs": [
        {
          "indexed": false,
          "internalType": "address",
          "name": "_l1Counterpart",
          "type": "address"
        }
      ],
      "name": "L1CounterpartUpdate",
      "type": "event"
    },
    {
      "anonymous": false,
      "inputs": [
        {
          "indexed": false,
          "internalType": "address",
          "name": "account",
          "type": "address"
        }
      ],
      "name": "Paused",
      "type": "event"
    },
    {
      "anonymous": false,
      "inputs": [
        {
          "indexed": true,
          "internalType": "bytes32",
          "name": "role",
          "type": "bytes32"
        },
        {
          "indexed": true,
          "internalType": "bytes32",
          "name": "previousAdminRole",
          "type": "bytes32"
        },
        {
          "indexed": true,
          "internalType": "bytes32",
          "name": "newAdminRole",
          "type": "bytes32"
        }
      ],
      "name": "RoleAdminChanged",
      "type": "event"
    },
    {
      "anonymous": false,
      "inputs": [
        {
          "indexed": true,
          "internalType": "bytes32",
          "name": "role",
          "type": "bytes32"
        },
        {
          "indexed": true,
          "internalType": "address",
          "name": "account",
          "type": "address"
        },
        {
          "indexed": true,
          "internalType": "address",
          "name": "sender",
          "type": "address"
        }
      ],
      "name": "RoleGranted",
      "type": "event"
    },
    {
      "anonymous": false,
      "inputs": [
        {
          "indexed": true,
          "internalType": "bytes32",
          "name": "role",
          "type": "bytes32"
        },
        {
          "indexed": true,
          "internalType": "address",
          "name": "account",
          "type": "address"
        },
        {
          "indexed": true,
          "internalType": "address",
          "name": "sender",
          "type": "address"
        }
      ],
      "name": "RoleRevoked",
      "type": "event"
    },
    {
      "anonymous": false,
      "inputs": [
        {
          "indexed": true,
          "internalType": "address",
          "name": "_from",
          "type": "address"
        },
        {
          "indexed": true,
          "internalType": "address",
          "name": "_to",
          "type": "address"
        },
        {
          "indexed": true,
          "internalType": "uint256",
          "name": "_id",
          "type": "uint256"
        },
        {
          "indexed": false,
          "internalType": "bytes",
          "name": "_data",
          "type": "bytes"
        }
      ],
      "name": "TxToL1",
      "type": "event"
    },
    {
      "anonymous": false,
      "inputs": [
        {
          "indexed": false,
          "internalType": "address",
          "name": "account",
          "type": "address"
        }
      ],
      "name": "Unpaused",
      "type": "event"
    },
    {
      "anonymous": false,
      "inputs": [
        {
          "indexed": false,
          "internalType": "address",
          "name": "_l1Token",
          "type": "address"
        },
        {
          "indexed": true,
          "internalType": "address",
          "name": "_from",
          "type": "address"
        },
        {
          "indexed": true,
          "internalType": "address",
          "name": "_to",
          "type": "address"
        },
        {
          "indexed": true,
          "internalType": "uint256",
          "name": "_l2ToL1Id",
          "type": "uint256"
        },
        {
          "indexed": false,
          "internalType": "uint256",
          "name": "_exitNum",
          "type": "uint256"
        },
        {
          "indexed": false,
          "internalType": "uint256",
          "name": "_amount",
          "type": "uint256"
        }
      ],
      "name": "WithdrawalInitiated",
      "type": "event"
    },
    {
      "inputs": [],
      "name": "DEFAULT_ADMIN_ROLE",
      "outputs": [
        {
          "internalType": "bytes32",
          "name": "",
          "type": "bytes32"
        }
      ],
      "stateMutability": "view",
      "type": "function"
    },
    {
      "inputs": [
        {
          "internalType": "address",
          "name": "l1Token",
          "type": "address"
        }
      ],
      "name": "calculateL2TokenAddress",
      "outputs": [
        {
          "internalType": "address",
          "name": "",
          "type": "address"
        }
      ],
      "stateMutability": "view",
      "type": "function"
    },
    {
      "inputs": [],
      "name": "counterpartGateway",
      "outputs": [
        {
          "internalType": "address",
          "name": "",
          "type": "address"
        }
      ],
      "stateMutability": "view",
      "type": "function"
    },
    {
      "inputs": [
        {
          "internalType": "address",
          "name": "_l1Token",
          "type": "address"
        },
        {
          "internalType": "address",
          "name": "_from",
          "type": "address"
        },
        {
          "internalType": "address",
          "name": "_to",
          "type": "address"
        },
        {
          "internalType": "uint256",
          "name": "_amount",
          "type": "uint256"
        },
        {
          "internalType": "bytes",
          "name": "",
          "type": "bytes"
        }
      ],
      "name": "finalizeInboundTransfer",
      "outputs": [],
      "stateMutability": "nonpayable",
      "type": "function"
    },
    {
      "inputs": [
        {
          "internalType": "address",
          "name": "token",
          "type": "address"
        },
        {
          "internalType": "address",
          "name": "from",
          "type": "address"
        },
        {
          "internalType": "address",
          "name": "to",
          "type": "address"
        },
        {
          "internalType": "uint256",
          "name": "amount",
          "type": "uint256"
        },
        {
          "internalType": "bytes",
          "name": "data",
          "type": "bytes"
        }
      ],
      "name": "getOutboundCalldata",
      "outputs": [
        {
          "internalType": "bytes",
          "name": "outboundCalldata",
          "type": "bytes"
        }
      ],
      "stateMutability": "pure",
      "type": "function"
    },
    {
      "inputs": [
        {
          "internalType": "bytes32",
          "name": "role",
          "type": "bytes32"
        }
      ],
      "name": "getRoleAdmin",
      "outputs": [
        {
          "internalType": "bytes32",
          "name": "",
          "type": "bytes32"
        }
      ],
      "stateMutability": "view",
      "type": "function"
    },
    {
      "inputs": [
        {
          "internalType": "bytes32",
          "name": "role",
          "type": "bytes32"
        },
        {
          "internalType": "address",
          "name": "account",
          "type": "address"
        }
      ],
      "name": "grantRole",
      "outputs": [],
      "stateMutability": "nonpayable",
      "type": "function"
    },
    {
      "inputs": [
        {
          "internalType": "bytes32",
          "name": "role",
          "type": "bytes32"
        },
        {
          "internalType": "address",
          "name": "account",
          "type": "address"
        }
      ],
      "name": "hasRole",
      "outputs": [
        {
          "internalType": "bool",
          "name": "",
          "type": "bool"
        }
      ],
      "stateMutability": "view",
      "type": "function"
    },
    {
      "inputs": [],
      "name": "l1Counterpart",
      "outputs": [
        {
          "internalType": "address",
          "name": "",
          "type": "address"
        }
      ],
      "stateMutability": "view",
      "type": "function"
    },
    {
      "inputs": [],
      "name": "l1Lpt",
      "outputs": [
        {
          "internalType": "address",
          "name": "",
          "type": "address"
        }
      ],
      "stateMutability": "view",
      "type": "function"
    },
    {
      "inputs": [],
      "name": "l2LPTDataCache",
      "outputs": [
        {
          "internalType": "address",
          "name": "",
          "type": "address"
        }
      ],
      "stateMutability": "view",
      "type": "function"
    },
    {
      "inputs": [],
      "name": "l2Lpt",
      "outputs": [
        {
          "internalType": "address",
          "name": "",
          "type": "address"
        }
      ],
      "stateMutability": "view",
      "type": "function"
    },
    {
      "inputs": [],
      "name": "l2Router",
      "outputs": [
        {
          "internalType": "address",
          "name": "",
          "type": "address"
        }
      ],
      "stateMutability": "view",
      "type": "function"
    },
    {
      "inputs": [
        {
          "internalType": "address",
          "name": "_l1Token",
          "type": "address"
        },
        {
          "internalType": "address",
          "name": "_to",
          "type": "address"
        },
        {
          "internalType": "uint256",
          "name": "_amount",
          "type": "uint256"
        },
        {
          "internalType": "bytes",
          "name": "_data",
          "type": "bytes"
        }
      ],
      "name": "outboundTransfer",
      "outputs": [
        {
          "internalType": "bytes",
          "name": "",
          "type": "bytes"
        }
      ],
      "stateMutability": "nonpayable",
      "type": "function"
    },
    {
      "inputs": [
        {
          "internalType": "address",
          "name": "_l1Token",
          "type": "address"
        },
        {
          "internalType": "address",
          "name": "_to",
          "type": "address"
        },
        {
          "internalType": "uint256",
          "name": "_amount",
          "type": "uint256"
        },
        {
          "internalType": "uint256",
          "name": "",
          "type": "uint256"
        },
        {
          "internalType": "uint256",
          "name": "",
          "type": "uint256"
        },
        {
          "internalType": "bytes",
          "name": "_data",
          "type": "bytes"
        }
      ],
      "name": "outboundTransfer",
      "outputs": [
        {
          "internalType": "bytes",
          "name": "",
          "type": "bytes"
        }
      ],
      "stateMutability": "nonpayable",
      "type": "function"
    },
    {
      "inputs": [],
      "name": "pause",
      "outputs": [],
      "stateMutability": "nonpayable",
      "type": "function"
    },
    {
      "inputs": [],
      "name": "paused",
      "outputs": [
        {
          "internalType": "bool",
          "name": "",
          "type": "bool"
        }
      ],
      "stateMutability": "view",
      "type": "function"
    },
    {
      "inputs": [
        {
          "internalType": "bytes32",
          "name": "role",
          "type": "bytes32"
        },
        {
          "internalType": "address",
          "name": "account",
          "type": "address"
        }
      ],
      "name": "renounceRole",
      "outputs": [],
      "stateMutability": "nonpayable",
      "type": "function"
    },
    {
      "inputs": [
        {
          "internalType": "bytes32",
          "name": "role",
          "type": "bytes32"
        },
        {
          "internalType": "address",
          "name": "account",
          "type": "address"
        }
      ],
      "name": "revokeRole",
      "outputs": [],
      "stateMutability": "nonpayable",
      "type": "function"
    },
    {
      "inputs": [
        {
          "internalType": "address",
          "name": "_l1Counterpart",
          "type": "address"
        }
      ],
      "name": "setCounterpart",
      "outputs": [],
      "stateMutability": "nonpayable",
      "type": "function"
    },
    {
      "inputs": [
        {
          "internalType": "bytes4",
          "name": "interfaceId",
          "type": "bytes4"
        }
      ],
      "name": "supportsInterface",
      "outputs": [
        {
          "internalType": "bool",
          "name": "",
          "type": "bool"
        }
      ],
      "stateMutability": "view",
      "type": "function"
    },
    {
      "inputs": [],
      "name": "unpause",
      "outputs": [],
      "stateMutability": "nonpayable",
      "type": "function"
    }
  ],
  "transactionHash": "0x4dfbb52bfc44f610cf1eea99f78d77b282a231759df6b81b3b29d1f2774efb83",
  "args": [
    "0xC502Ded1EE1d616B43F7f20Ebde83Be1A275ca3c",
    "0x9E5403486780c37F6Fe9c47d17Af6151e27fE8a5",
    "0x127C21dD971E7E58A5f94c8849e7F7d8177B4B3d",
    "0xaE75aC1B84f2603c76c002690B4d1F836aB34413"
  ],
  "solcInputHash": "a582cfe11011008962da6f3d958d9716",
  "bytecode": "0x6101006040523480156200001257600080fd5b5060405162002e2138038062002e218339818101604052810190620000389190620003f1565b82826000600160006101000a81548160ff0219169083151502179055506200006a6000801b336200015660201b60201c565b8173ffffffffffffffffffffffffffffffffffffffff1660808173ffffffffffffffffffffffffffffffffffffffff16815250508073ffffffffffffffffffffffffffffffffffffffff1660a08173ffffffffffffffffffffffffffffffffffffffff168152505050508373ffffffffffffffffffffffffffffffffffffffff1660c08173ffffffffffffffffffffffffffffffffffffffff16815250508073ffffffffffffffffffffffffffffffffffffffff1660e08173ffffffffffffffffffffffffffffffffffffffff16815250506200014c6200024760201b60201c565b5050505062000514565b620001688282620002fe60201b60201c565b6200024357600160008084815260200190815260200160002060000160008373ffffffffffffffffffffffffffffffffffffffff1673ffffffffffffffffffffffffffffffffffffffff16815260200190815260200160002060006101000a81548160ff021916908315150217905550620001e86200036860201b60201c565b73ffffffffffffffffffffffffffffffffffffffff168173ffffffffffffffffffffffffffffffffffffffff16837f2f8788117e7eff1d82e926ec794901d17c78024a50270940304540a733656f0d60405160405180910390a45b5050565b620002576200037060201b60201c565b156200029a576040517f08c379a00000000000000000000000000000000000000000000000000000000081526004016200029190620004c4565b60405180910390fd5b60018060006101000a81548160ff0219169083151502179055507f62e78cea01bee320cd4e420270b5ea74000d11b0c9f74754ebdbfc544b05a258620002e56200036860201b60201c565b604051620002f49190620004f7565b60405180910390a1565b600080600084815260200190815260200160002060000160008373ffffffffffffffffffffffffffffffffffffffff1673ffffffffffffffffffffffffffffffffffffffff16815260200190815260200160002060009054906101000a900460ff16905092915050565b600033905090565b6000600160009054906101000a900460ff16905090565b600080fd5b600073ffffffffffffffffffffffffffffffffffffffff82169050919050565b6000620003b9826200038c565b9050919050565b620003cb81620003ac565b8114620003d757600080fd5b50565b600081519050620003eb81620003c0565b92915050565b600080600080608085870312156200040e576200040d62000387565b5b60006200041e87828801620003da565b94505060206200043187828801620003da565b93505060406200044487828801620003da565b92505060606200045787828801620003da565b91505092959194509250565b600082825260208201905092915050565b7f5061757361626c653a2070617573656400000000000000000000000000000000600082015250565b6000620004ac60108362000463565b9150620004b98262000474565b602082019050919050565b60006020820190508181036000830152620004df816200049d565b9050919050565b620004f181620003ac565b82525050565b60006020820190506200050e6000830184620004e6565b92915050565b60805160a05160c05160e0516128946200058d600039600081816106c001528181610dd10152610f5b01526000818161089c01526113c001526000818161063301528181610a0e01528181610b440152610d440152600081816104a3015281816105a501528181610ae80152610bdb01526128946000f3fe608060405234801561001057600080fd5b50600436106101425760003560e01c80637b3a3c8b116100b8578063a217fddf1161007c578063a217fddf14610351578063a7e28d481461036f578063c4c0087c1461039f578063d2ce7d65146103bd578063d547741f146103ed578063e83d1f171461040957610142565b80637b3a3c8b146102995780638456cb59146102c957806391d14854146102d35780639d79bdb514610303578063a0c76a961461032157610142565b80632f2ff15d1161010a5780632f2ff15d146101ff57806336568abe1461021b5780633f4ba83a146102375780634adc698a146102415780635c975abb1461025f57806377061e4d1461027d57610142565b806301ffc9a7146101475780630725667714610177578063248a9ca3146101955780632db09c1c146101c55780632e567b36146101e3575b600080fd5b610161600480360381019061015c91906117eb565b610427565b60405161016e9190611833565b60405180910390f35b61017f6104a1565b60405161018c919061188f565b60405180910390f35b6101af60048036038101906101aa91906118e0565b6104c5565b6040516101bc919061191c565b60405180910390f35b6101cd6104e4565b6040516101da919061188f565b60405180910390f35b6101fd60048036038101906101f891906119fe565b61050c565b005b61021960048036038101906102149190611a98565b6107ce565b005b61023560048036038101906102309190611a98565b6107f7565b005b61023f61087a565b005b61024961089a565b604051610256919061188f565b60405180910390f35b6102676108be565b6040516102749190611833565b60405180910390f35b61029760048036038101906102929190611ad8565b6108d5565b005b6102b360048036038101906102ae9190611b05565b610965565b6040516102c09190611c26565b60405180910390f35b6102d1610982565b005b6102ed60048036038101906102e89190611a98565b6109a2565b6040516102fa9190611833565b60405180910390f35b61030b610a0c565b604051610318919061188f565b60405180910390f35b61033b60048036038101906103369190611d78565b610a30565b6040516103489190611c26565b60405180910390f35b610359610add565b604051610366919061191c565b60405180910390f35b61038960048036038101906103849190611ad8565b610ae4565b604051610396919061188f565b60405180910390f35b6103a7610b6b565b6040516103b4919061188f565b60405180910390f35b6103d760048036038101906103d29190611e0f565b610b8f565b6040516103e49190611c26565b60405180910390f35b61040760048036038101906104029190611a98565b610f30565b005b610411610f59565b60405161041e919061188f565b60405180910390f35b60007f7965db0b000000000000000000000000000000000000000000000000000000007bffffffffffffffffffffffffffffffffffffffffffffffffffffffff1916827bffffffffffffffffffffffffffffffffffffffffffffffffffffffff1916148061049a575061049982610f7d565b5b9050919050565b7f000000000000000000000000000000000000000000000000000000000000000081565b6000806000838152602001908152602001600020600101549050919050565b600060018054906101000a900473ffffffffffffffffffffffffffffffffffffffff16905090565b60018054906101000a900473ffffffffffffffffffffffffffffffffffffffff1661053681610fe7565b73ffffffffffffffffffffffffffffffffffffffff163373ffffffffffffffffffffffffffffffffffffffff16146105a3576040517f08c379a000000000000000000000000000000000000000000000000000000000815260040161059a90611f1b565b60405180910390fd5b7f000000000000000000000000000000000000000000000000000000000000000073ffffffffffffffffffffffffffffffffffffffff168773ffffffffffffffffffffffffffffffffffffffff1614610631576040517f08c379a000000000000000000000000000000000000000000000000000000000815260040161062890611f87565b60405180910390fd5b7f000000000000000000000000000000000000000000000000000000000000000073ffffffffffffffffffffffffffffffffffffffff166340c10f1986866040518363ffffffff1660e01b815260040161068c929190611fb6565b600060405180830381600087803b1580156106a657600080fd5b505af11580156106ba573d6000803e3d6000fd5b505050507f000000000000000000000000000000000000000000000000000000000000000073ffffffffffffffffffffffffffffffffffffffff1663e879a2aa856040518263ffffffff1660e01b81526004016107179190611fdf565b600060405180830381600087803b15801561073157600080fd5b505af1158015610745573d6000803e3d6000fd5b505050508473ffffffffffffffffffffffffffffffffffffffff168673ffffffffffffffffffffffffffffffffffffffff168873ffffffffffffffffffffffffffffffffffffffff167fc7f2e9c55c40a50fbc217dfc70cd39a222940dfa62145aa0ca49eb9535d4fcb2876040516107bd9190611fdf565b60405180910390a450505050505050565b6107d7826104c5565b6107e8816107e3611010565b611018565b6107f283836110b5565b505050565b6107ff611010565b73ffffffffffffffffffffffffffffffffffffffff168173ffffffffffffffffffffffffffffffffffffffff161461086c576040517f08c379a00000000000000000000000000000000000000000000000000000000081526004016108639061206c565b60405180910390fd5b6108768282611195565b5050565b6000801b61088f8161088a611010565b611018565b610897611276565b50565b7f000000000000000000000000000000000000000000000000000000000000000081565b6000600160009054906101000a900460ff16905090565b6000801b6108ea816108e5611010565b611018565b816001806101000a81548173ffffffffffffffffffffffffffffffffffffffff021916908373ffffffffffffffffffffffffffffffffffffffff1602179055507f5a52572093ca222af40094844bd0260288e45ec83b5074852fe811e99b1474d582604051610959919061188f565b60405180910390a15050565b60606109778686866000808888610b8f565b905095945050505050565b6000801b61099781610992611010565b611018565b61099f611318565b50565b600080600084815260200190815260200160002060000160008373ffffffffffffffffffffffffffffffffffffffff1673ffffffffffffffffffffffffffffffffffffffff16815260200190815260200160002060009054906101000a900460ff16905092915050565b7f000000000000000000000000000000000000000000000000000000000000000081565b6060632e567b3660e01b86868686600087604051602001610a529291906120de565b604051602081830303815290604052604051602401610a7595949392919061210e565b604051602081830303815290604052907bffffffffffffffffffffffffffffffffffffffffffffffffffffffff19166020820180517bffffffffffffffffffffffffffffffffffffffffffffffffffffffff8381831617835250505050905095945050505050565b6000801b81565b60007f000000000000000000000000000000000000000000000000000000000000000073ffffffffffffffffffffffffffffffffffffffff168273ffffffffffffffffffffffffffffffffffffffff1614610b425760009050610b66565b7f000000000000000000000000000000000000000000000000000000000000000090505b919050565b60018054906101000a900473ffffffffffffffffffffffffffffffffffffffff1681565b6060610b996108be565b15610bd9576040517f08c379a0000000000000000000000000000000000000000000000000000000008152600401610bd0906121b4565b60405180910390fd5b7f000000000000000000000000000000000000000000000000000000000000000073ffffffffffffffffffffffffffffffffffffffff168873ffffffffffffffffffffffffffffffffffffffff1614610c67576040517f08c379a0000000000000000000000000000000000000000000000000000000008152600401610c5e90611f87565b60405180910390fd5b60008611610caa576040517f08c379a0000000000000000000000000000000000000000000000000000000008152600401610ca190612220565b60405180910390fd5b600080610cfa85858080601f016020809104026020016040519081016040528093929190818152602001838380828437600081840152601f19601f820116905080830192505050505050506113ba565b915091506000815114610d42576040517f08c379a0000000000000000000000000000000000000000000000000000000008152600401610d399061228c565b60405180910390fd5b7f000000000000000000000000000000000000000000000000000000000000000073ffffffffffffffffffffffffffffffffffffffff166379cc6790838a6040518363ffffffff1660e01b8152600401610d9d929190611fb6565b600060405180830381600087803b158015610db757600080fd5b505af1158015610dcb573d6000803e3d6000fd5b505050507f000000000000000000000000000000000000000000000000000000000000000073ffffffffffffffffffffffffffffffffffffffff1663a6402a7f896040518263ffffffff1660e01b8152600401610e289190611fdf565b600060405180830381600087803b158015610e4257600080fd5b505af1158015610e56573d6000803e3d6000fd5b505050506000610e938360018054906101000a900473ffffffffffffffffffffffffffffffffffffffff16610e8e8e878f8f89610a30565b61143f565b9050808a73ffffffffffffffffffffffffffffffffffffffff168473ffffffffffffffffffffffffffffffffffffffff167f3073a74ecb728d10be779fe19a74a1428e20468f5b4d167bf9c73d9067847d738e60008e604051610ef8939291906122dd565b60405180910390a480604051602001610f119190611fdf565b6040516020818303038152906040529350505050979650505050505050565b610f39826104c5565b610f4a81610f45611010565b611018565b610f548383611195565b505050565b7f000000000000000000000000000000000000000000000000000000000000000081565b60007f01ffc9a7000000000000000000000000000000000000000000000000000000007bffffffffffffffffffffffffffffffffffffffffffffffffffffffff1916827bffffffffffffffffffffffffffffffffffffffffffffffffffffffff1916149050919050565b6000731111000000000000000000000000000000001111826110099190612343565b9050919050565b600033905090565b61102282826109a2565b6110b1576110478173ffffffffffffffffffffffffffffffffffffffff166014611543565b6110558360001c6020611543565b60405160200161106692919061246c565b6040516020818303038152906040526040517f08c379a00000000000000000000000000000000000000000000000000000000081526004016110a891906124df565b60405180910390fd5b5050565b6110bf82826109a2565b61119157600160008084815260200190815260200160002060000160008373ffffffffffffffffffffffffffffffffffffffff1673ffffffffffffffffffffffffffffffffffffffff16815260200190815260200160002060006101000a81548160ff021916908315150217905550611136611010565b73ffffffffffffffffffffffffffffffffffffffff168173ffffffffffffffffffffffffffffffffffffffff16837f2f8788117e7eff1d82e926ec794901d17c78024a50270940304540a733656f0d60405160405180910390a45b5050565b61119f82826109a2565b1561127257600080600084815260200190815260200160002060000160008373ffffffffffffffffffffffffffffffffffffffff1673ffffffffffffffffffffffffffffffffffffffff16815260200190815260200160002060006101000a81548160ff021916908315150217905550611217611010565b73ffffffffffffffffffffffffffffffffffffffff168173ffffffffffffffffffffffffffffffffffffffff16837ff6391f5c32d9c69d2a47ea670b442974b53935d1edc7fd64eb21e047a839171b60405160405180910390a45b5050565b61127e6108be565b6112bd576040517f08c379a00000000000000000000000000000000000000000000000000000000081526004016112b49061254d565b60405180910390fd5b6000600160006101000a81548160ff0219169083151502179055507f5db9ee0a495bf2e6ff9c91a7834c1ba4fdd244a5e8aa4e537bd38aeae4b073aa611301611010565b60405161130e919061188f565b60405180910390a1565b6113206108be565b15611360576040517f08c379a0000000000000000000000000000000000000000000000000000000008152600401611357906121b4565b60405180910390fd5b60018060006101000a81548160ff0219169083151502179055507f62e78cea01bee320cd4e420270b5ea74000d11b0c9f74754ebdbfc544b05a2586113a3611010565b6040516113b0919061188f565b60405180910390a1565b600060607f000000000000000000000000000000000000000000000000000000000000000073ffffffffffffffffffffffffffffffffffffffff163373ffffffffffffffffffffffffffffffffffffffff1614156114335782806020019051810190611426919061261b565b809250819350505061143a565b3391508290505b915091565b600080606473ffffffffffffffffffffffffffffffffffffffff1663928c169a85856040518363ffffffff1660e01b815260040161147e929190612677565b602060405180830381600087803b15801561149857600080fd5b505af11580156114ac573d6000803e3d6000fd5b505050506040513d601f19601f820116820180604052508101906114d091906126bc565b9050808473ffffffffffffffffffffffffffffffffffffffff168673ffffffffffffffffffffffffffffffffffffffff167f2b986d32a0536b7e19baa48ab949fec7b903b7fad7730820b20632d100cc3a68866040516115309190611c26565b60405180910390a4809150509392505050565b60606000600283600261155691906126e9565b6115609190612743565b67ffffffffffffffff81111561157957611578611c4d565b5b6040519080825280601f01601f1916602001820160405280156115ab5781602001600182028036833780820191505090505b5090507f3000000000000000000000000000000000000000000000000000000000000000816000815181106115e3576115e2612799565b5b60200101907effffffffffffffffffffffffffffffffffffffffffffffffffffffffffffff1916908160001a9053507f78000000000000000000000000000000000000000000000000000000000000008160018151811061164757611646612799565b5b60200101907effffffffffffffffffffffffffffffffffffffffffffffffffffffffffffff1916908160001a9053506000600184600261168791906126e9565b6116919190612743565b90505b6001811115611731577f3031323334353637383961626364656600000000000000000000000000000000600f8616601081106116d3576116d2612799565b5b1a60f81b8282815181106116ea576116e9612799565b5b60200101907effffffffffffffffffffffffffffffffffffffffffffffffffffffffffffff1916908160001a905350600485901c94508061172a906127c8565b9050611694565b5060008414611775576040517f08c379a000000000000000000000000000000000000000000000000000000000815260040161176c9061283e565b60405180910390fd5b8091505092915050565b6000604051905090565b600080fd5b600080fd5b60007fffffffff0000000000000000000000000000000000000000000000000000000082169050919050565b6117c881611793565b81146117d357600080fd5b50565b6000813590506117e5816117bf565b92915050565b60006020828403121561180157611800611789565b5b600061180f848285016117d6565b91505092915050565b60008115159050919050565b61182d81611818565b82525050565b60006020820190506118486000830184611824565b92915050565b600073ffffffffffffffffffffffffffffffffffffffff82169050919050565b60006118798261184e565b9050919050565b6118898161186e565b82525050565b60006020820190506118a46000830184611880565b92915050565b6000819050919050565b6118bd816118aa565b81146118c857600080fd5b50565b6000813590506118da816118b4565b92915050565b6000602082840312156118f6576118f5611789565b5b6000611904848285016118cb565b91505092915050565b611916816118aa565b82525050565b6000602082019050611931600083018461190d565b92915050565b6119408161186e565b811461194b57600080fd5b50565b60008135905061195d81611937565b92915050565b6000819050919050565b61197681611963565b811461198157600080fd5b50565b6000813590506119938161196d565b92915050565b600080fd5b600080fd5b600080fd5b60008083601f8401126119be576119bd611999565b5b8235905067ffffffffffffffff8111156119db576119da61199e565b5b6020830191508360018202830111156119f7576119f66119a3565b5b9250929050565b60008060008060008060a08789031215611a1b57611a1a611789565b5b6000611a2989828a0161194e565b9650506020611a3a89828a0161194e565b9550506040611a4b89828a0161194e565b9450506060611a5c89828a01611984565b935050608087013567ffffffffffffffff811115611a7d57611a7c61178e565b5b611a8989828a016119a8565b92509250509295509295509295565b60008060408385031215611aaf57611aae611789565b5b6000611abd858286016118cb565b9250506020611ace8582860161194e565b9150509250929050565b600060208284031215611aee57611aed611789565b5b6000611afc8482850161194e565b91505092915050565b600080600080600060808688031215611b2157611b20611789565b5b6000611b2f8882890161194e565b9550506020611b408882890161194e565b9450506040611b5188828901611984565b935050606086013567ffffffffffffffff811115611b7257611b7161178e565b5b611b7e888289016119a8565b92509250509295509295909350565b600081519050919050565b600082825260208201905092915050565b60005b83811015611bc7578082015181840152602081019050611bac565b83811115611bd6576000848401525b50505050565b6000601f19601f8301169050919050565b6000611bf882611b8d565b611c028185611b98565b9350611c12818560208601611ba9565b611c1b81611bdc565b840191505092915050565b60006020820190508181036000830152611c408184611bed565b905092915050565b600080fd5b7f4e487b7100000000000000000000000000000000000000000000000000000000600052604160045260246000fd5b611c8582611bdc565b810181811067ffffffffffffffff82111715611ca457611ca3611c4d565b5b80604052505050565b6000611cb761177f565b9050611cc38282611c7c565b919050565b600067ffffffffffffffff821115611ce357611ce2611c4d565b5b611cec82611bdc565b9050602081019050919050565b82818337600083830152505050565b6000611d1b611d1684611cc8565b611cad565b905082815260208101848484011115611d3757611d36611c48565b5b611d42848285611cf9565b509392505050565b600082601f830112611d5f57611d5e611999565b5b8135611d6f848260208601611d08565b91505092915050565b600080600080600060a08688031215611d9457611d93611789565b5b6000611da28882890161194e565b9550506020611db38882890161194e565b9450506040611dc48882890161194e565b9350506060611dd588828901611984565b925050608086013567ffffffffffffffff811115611df657611df561178e565b5b611e0288828901611d4a565b9150509295509295909350565b600080600080600080600060c0888a031215611e2e57611e2d611789565b5b6000611e3c8a828b0161194e565b9750506020611e4d8a828b0161194e565b9650506040611e5e8a828b01611984565b9550506060611e6f8a828b01611984565b9450506080611e808a828b01611984565b93505060a088013567ffffffffffffffff811115611ea157611ea061178e565b5b611ead8a828b016119a8565b925092505092959891949750929550565b600082825260208201905092915050565b7f4f4e4c595f434f554e544552504152545f474154455741590000000000000000600082015250565b6000611f05601883611ebe565b9150611f1082611ecf565b602082019050919050565b60006020820190508181036000830152611f3481611ef8565b9050919050565b7f544f4b454e5f4e4f545f4c505400000000000000000000000000000000000000600082015250565b6000611f71600d83611ebe565b9150611f7c82611f3b565b602082019050919050565b60006020820190508181036000830152611fa081611f64565b9050919050565b611fb081611963565b82525050565b6000604082019050611fcb6000830185611880565b611fd86020830184611fa7565b9392505050565b6000602082019050611ff46000830184611fa7565b92915050565b7f416363657373436f6e74726f6c3a2063616e206f6e6c792072656e6f756e636560008201527f20726f6c657320666f722073656c660000000000000000000000000000000000602082015250565b6000612056602f83611ebe565b915061206182611ffa565b604082019050919050565b6000602082019050818103600083015261208581612049565b9050919050565b6000819050919050565b600060ff82169050919050565b6000819050919050565b60006120c86120c36120be8461208c565b6120a3565b612096565b9050919050565b6120d8816120ad565b82525050565b60006040820190506120f360008301856120cf565b81810360208301526121058184611bed565b90509392505050565b600060a0820190506121236000830188611880565b6121306020830187611880565b61213d6040830186611880565b61214a6060830185611fa7565b818103608083015261215c8184611bed565b90509695505050505050565b7f5061757361626c653a2070617573656400000000000000000000000000000000600082015250565b600061219e601083611ebe565b91506121a982612168565b602082019050919050565b600060208201905081810360008301526121cd81612191565b9050919050565b7f494e56414c49445f5a45524f5f414d4f554e5400000000000000000000000000600082015250565b600061220a601383611ebe565b9150612215826121d4565b602082019050919050565b60006020820190508181036000830152612239816121fd565b9050919050565b7f43414c4c5f484f4f4b5f444154415f4e4f545f414c4c4f574544000000000000600082015250565b6000612276601a83611ebe565b915061228182612240565b602082019050919050565b600060208201905081810360008301526122a581612269565b9050919050565b60006122c76122c26122bd8461208c565b6120a3565b611963565b9050919050565b6122d7816122ac565b82525050565b60006060820190506122f26000830186611880565b6122ff60208301856122ce565b61230c6040830184611fa7565b949350505050565b7f4e487b7100000000000000000000000000000000000000000000000000000000600052601160045260246000fd5b600061234e8261184e565b91506123598361184e565b92508273ffffffffffffffffffffffffffffffffffffffff0382111561238257612381612314565b5b828201905092915050565b600081905092915050565b7f416363657373436f6e74726f6c3a206163636f756e7420000000000000000000600082015250565b60006123ce60178361238d565b91506123d982612398565b601782019050919050565b600081519050919050565b60006123fa826123e4565b612404818561238d565b9350612414818560208601611ba9565b80840191505092915050565b7f206973206d697373696e6720726f6c6520000000000000000000000000000000600082015250565b600061245660118361238d565b915061246182612420565b601182019050919050565b6000612477826123c1565b915061248382856123ef565b915061248e82612449565b915061249a82846123ef565b91508190509392505050565b60006124b1826123e4565b6124bb8185611ebe565b93506124cb818560208601611ba9565b6124d481611bdc565b840191505092915050565b600060208201905081810360008301526124f981846124a6565b905092915050565b7f5061757361626c653a206e6f7420706175736564000000000000000000000000600082015250565b6000612537601483611ebe565b915061254282612501565b602082019050919050565b600060208201905081810360008301526125668161252a565b9050919050565b60006125788261184e565b9050919050565b6125888161256d565b811461259357600080fd5b50565b6000815190506125a58161257f565b92915050565b60006125be6125b984611cc8565b611cad565b9050828152602081018484840111156125da576125d9611c48565b5b6125e5848285611ba9565b509392505050565b600082601f83011261260257612601611999565b5b81516126128482602086016125ab565b91505092915050565b6000806040838503121561263257612631611789565b5b600061264085828601612596565b925050602083015167ffffffffffffffff8111156126615761266061178e565b5b61266d858286016125ed565b9150509250929050565b600060408201905061268c6000830185611880565b818103602083015261269e8184611bed565b90509392505050565b6000815190506126b68161196d565b92915050565b6000602082840312156126d2576126d1611789565b5b60006126e0848285016126a7565b91505092915050565b60006126f482611963565b91506126ff83611963565b9250817fffffffffffffffffffffffffffffffffffffffffffffffffffffffffffffffff048311821515161561273857612737612314565b5b828202905092915050565b600061274e82611963565b915061275983611963565b9250827fffffffffffffffffffffffffffffffffffffffffffffffffffffffffffffffff0382111561278e5761278d612314565b5b828201905092915050565b7f4e487b7100000000000000000000000000000000000000000000000000000000600052603260045260246000fd5b60006127d382611963565b915060008214156127e7576127e6612314565b5b600182039050919050565b7f537472696e67733a20686578206c656e67746820696e73756666696369656e74600082015250565b6000612828602083611ebe565b9150612833826127f2565b602082019050919050565b600060208201905081810360008301526128578161281b565b905091905056fea2646970667358221220ff7bb38ebd7d0f366fd8ca976d9a6381a9b56a311ff0e20880146217db4a1ef764736f6c63430008090033",
  "devdoc": {
    "details": "the contract can be paused by the governor which will prevent any outbound transfers but pausing the contract does not affect inbound transfers (tokens coming from L1)",
    "kind": "dev",
    "methods": {
      "finalizeInboundTransfer(address,address,address,uint256,bytes)": {
        "details": "can only accept txs coming directly from L1 LPT Gateway data param is unused because no additional data is allowed from L1",
        "params": {
          "_amount": "Amount of tokens transferred",
          "_from": "Address of the sender on L1",
          "_l1Token": "L1 Address of LPT",
          "_to": "Recepient address on L2"
        }
      },
      "getOutboundCalldata(address,address,address,uint256,bytes)": {
        "details": "encodes the target function with its params which will be called on L1 when the message is received on L1"
      },
      "getRoleAdmin(bytes32)": {
        "details": "Returns the admin role that controls `role`. See {grantRole} and {revokeRole}. To change a role's admin, use {_setRoleAdmin}."
      },
      "grantRole(bytes32,address)": {
        "details": "Grants `role` to `account`. If `account` had not been already granted `role`, emits a {RoleGranted} event. Requirements: - the caller must have ``role``'s admin role."
      },
      "hasRole(bytes32,address)": {
        "details": "Returns `true` if `account` has been granted `role`."
      },
      "outboundTransfer(address,address,uint256,bytes)": {
        "details": "no additional callhook data is allowed",
        "params": {
          "_amount": "Amount of tokens to burn",
          "_data": "Contains sender and additional data to send to L1",
          "_l1Token": "L1 Address of LPT",
          "_to": "Recipient address on L1"
        },
        "returns": {
          "_0": "ID of the withdraw tx"
        }
      },
      "outboundTransfer(address,address,uint256,uint256,uint256,bytes)": {
        "details": "no additional callhook data is allowed",
        "params": {
          "_amount": "Amount of tokens to burn",
          "_data": "Contains sender and additional data (always zero) to send to L1",
          "_l1Token": "L1 Address of LPT",
          "_to": "Recipient address on L1"
        },
        "returns": {
          "_0": "ID of the withdraw tx"
        }
      },
      "paused()": {
        "details": "Returns true if the contract is paused, and false otherwise."
      },
      "renounceRole(bytes32,address)": {
        "details": "Revokes `role` from the calling account. Roles are often managed via {grantRole} and {revokeRole}: this function's purpose is to provide a mechanism for accounts to lose their privileges if they are compromised (such as when a trusted device is misplaced). If the calling account had been revoked `role`, emits a {RoleRevoked} event. Requirements: - the caller must be `account`."
      },
      "revokeRole(bytes32,address)": {
        "details": "Revokes `role` from `account`. If `account` had been granted `role`, emits a {RoleRevoked} event. Requirements: - the caller must have ``role``'s admin role."
      },
      "setCounterpart(address)": {
        "details": "Only address with the governor role is allowed to change the value of l1Counterpart",
        "params": {
          "_l1Counterpart": "L1 Address of the counterpart"
        }
      },
      "supportsInterface(bytes4)": {
        "details": "See {IERC165-supportsInterface}."
      }
    },
    "title": "L2LPTGateway",
    "version": 1
  },
  "userdoc": {
    "kind": "user",
    "methods": {
      "calculateL2TokenAddress(address)": {
        "notice": "returns address of L2 version of LPT"
      },
      "counterpartGateway()": {
        "notice": "returns address of L1 LPT Gateway"
      },
      "finalizeInboundTransfer(address,address,address,uint256,bytes)": {
        "notice": "Receives token amount from L1 and mints the equivalent tokens to the receiving address"
      },
      "getOutboundCalldata(address,address,address,uint256,bytes)": {
        "notice": "Creates calldata required to send tx to L1"
      },
      "outboundTransfer(address,address,uint256,bytes)": {
        "notice": "Burns L2 tokens and sends a message to L1 The tokens will be received on L1 only after the wait period (7 days) is over"
      },
      "outboundTransfer(address,address,uint256,uint256,uint256,bytes)": {
        "notice": "Burns L2 tokens and sends a message to L1 The tokens will be received on L1 only after the wait period (7 days) is over"
      },
      "setCounterpart(address)": {
        "notice": "Sets address of companion L1LPTGateway"
      }
    },
    "notice": "Manages inbound and outbound transfers of LPT between Arbitrum Rollup and L1",
    "version": 1
  },
  "storageLayout": {
    "storage": [
      {
        "astId": 343,
        "contract": "contracts/L2/gateway/L2LPTGateway.sol:L2LPTGateway",
        "label": "_roles",
        "offset": 0,
        "slot": "0",
        "type": "t_mapping(t_bytes32,t_struct(RoleData)338_storage)"
      },
      {
        "astId": 903,
        "contract": "contracts/L2/gateway/L2LPTGateway.sol:L2LPTGateway",
        "label": "_paused",
        "offset": 0,
        "slot": "1",
        "type": "t_bool"
      },
      {
        "astId": 4939,
        "contract": "contracts/L2/gateway/L2LPTGateway.sol:L2LPTGateway",
        "label": "l1Counterpart",
        "offset": 1,
        "slot": "1",
        "type": "t_address"
      }
    ],
    "types": {
      "t_address": {
        "encoding": "inplace",
        "label": "address",
        "numberOfBytes": "20"
      },
      "t_bool": {
        "encoding": "inplace",
        "label": "bool",
        "numberOfBytes": "1"
      },
      "t_bytes32": {
        "encoding": "inplace",
        "label": "bytes32",
        "numberOfBytes": "32"
      },
      "t_mapping(t_address,t_bool)": {
        "encoding": "mapping",
        "key": "t_address",
        "label": "mapping(address => bool)",
        "numberOfBytes": "32",
        "value": "t_bool"
      },
      "t_mapping(t_bytes32,t_struct(RoleData)338_storage)": {
        "encoding": "mapping",
        "key": "t_bytes32",
        "label": "mapping(bytes32 => struct AccessControl.RoleData)",
        "numberOfBytes": "32",
        "value": "t_struct(RoleData)338_storage"
      },
      "t_struct(RoleData)338_storage": {
        "encoding": "inplace",
        "label": "struct AccessControl.RoleData",
        "members": [
          {
            "astId": 335,
            "contract": "contracts/L2/gateway/L2LPTGateway.sol:L2LPTGateway",
            "label": "members",
            "offset": 0,
            "slot": "0",
            "type": "t_mapping(t_address,t_bool)"
          },
          {
            "astId": 337,
            "contract": "contracts/L2/gateway/L2LPTGateway.sol:L2LPTGateway",
            "label": "adminRole",
            "offset": 0,
            "slot": "1",
            "type": "t_bytes32"
          }
        ],
        "numberOfBytes": "64"
      }
    }
  }
}