{
  "address": "0x464F814bbDC55069365B33d40B0C0dBb4239dfCf",
  "abi": [
    {
      "inputs": [
        {
          "internalType": "address",
          "name": "_inbox",
          "type": "address"
        },
        {
          "internalType": "address",
          "name": "_bondingManagerAddr",
          "type": "address"
        },
        {
          "internalType": "address",
          "name": "_ticketBrokerAddr",
          "type": "address"
        },
        {
          "internalType": "address",
          "name": "_bridgeMinterAddr",
          "type": "address"
        },
        {
          "internalType": "address",
          "name": "_tokenAddr",
          "type": "address"
        },
        {
          "internalType": "address",
          "name": "_l1LPTGatewayAddr",
          "type": "address"
        },
        {
          "internalType": "address",
          "name": "_l2MigratorAddr",
          "type": "address"
        }
      ],
      "stateMutability": "nonpayable",
      "type": "constructor"
    },
    {
      "anonymous": false,
      "inputs": [
        {
          "indexed": true,
          "internalType": "uint256",
          "name": "seqNo",
          "type": "uint256"
        },
        {
          "components": [
            {
              "internalType": "address",
              "name": "l1Addr",
              "type": "address"
            },
            {
              "internalType": "address",
              "name": "l2Addr",
              "type": "address"
            },
            {
              "internalType": "uint256",
              "name": "stake",
              "type": "uint256"
            },
            {
              "internalType": "uint256",
              "name": "delegatedStake",
              "type": "uint256"
            },
            {
              "internalType": "uint256",
              "name": "fees",
              "type": "uint256"
            },
            {
              "internalType": "address",
              "name": "delegate",
              "type": "address"
            }
          ],
          "indexed": false,
          "internalType": "struct IMigrator.MigrateDelegatorParams",
          "name": "params",
          "type": "tuple"
        }
      ],
      "name": "MigrateDelegatorInitiated",
      "type": "event"
    },
    {
      "anonymous": false,
      "inputs": [
        {
          "indexed": true,
          "internalType": "uint256",
          "name": "seqNo",
          "type": "uint256"
        },
        {
          "components": [
            {
              "internalType": "address",
              "name": "l1Addr",
              "type": "address"
            },
            {
              "internalType": "address",
              "name": "l2Addr",
              "type": "address"
            },
            {
              "internalType": "uint256",
              "name": "deposit",
              "type": "uint256"
            },
            {
              "internalType": "uint256",
              "name": "reserve",
              "type": "uint256"
            }
          ],
          "indexed": false,
          "internalType": "struct IMigrator.MigrateSenderParams",
          "name": "params",
          "type": "tuple"
        }
      ],
      "name": "MigrateSenderInitiated",
      "type": "event"
    },
    {
      "anonymous": false,
      "inputs": [
        {
          "indexed": true,
          "internalType": "uint256",
          "name": "seqNo",
          "type": "uint256"
        },
        {
          "components": [
            {
              "internalType": "address",
              "name": "l1Addr",
              "type": "address"
            },
            {
              "internalType": "address",
              "name": "l2Addr",
              "type": "address"
            },
            {
              "internalType": "uint256",
              "name": "total",
              "type": "uint256"
            },
            {
              "internalType": "uint256[]",
              "name": "unbondingLockIds",
              "type": "uint256[]"
            },
            {
              "internalType": "address",
              "name": "delegate",
              "type": "address"
            }
          ],
          "indexed": false,
          "internalType": "struct IMigrator.MigrateUnbondingLocksParams",
          "name": "params",
          "type": "tuple"
        }
      ],
      "name": "MigrateUnbondingLocksInitiated",
      "type": "event"
    },
    {
      "anonymous": false,
      "inputs": [
        {
          "indexed": false,
          "internalType": "address",
          "name": "account",
          "type": "address"
        }
      ],
      "name": "Paused",
      "type": "event"
    },
    {
      "anonymous": false,
      "inputs": [
        {
          "indexed": true,
          "internalType": "bytes32",
          "name": "role",
          "type": "bytes32"
        },
        {
          "indexed": true,
          "internalType": "bytes32",
          "name": "previousAdminRole",
          "type": "bytes32"
        },
        {
          "indexed": true,
          "internalType": "bytes32",
          "name": "newAdminRole",
          "type": "bytes32"
        }
      ],
      "name": "RoleAdminChanged",
      "type": "event"
    },
    {
      "anonymous": false,
      "inputs": [
        {
          "indexed": true,
          "internalType": "bytes32",
          "name": "role",
          "type": "bytes32"
        },
        {
          "indexed": true,
          "internalType": "address",
          "name": "account",
          "type": "address"
        },
        {
          "indexed": true,
          "internalType": "address",
          "name": "sender",
          "type": "address"
        }
      ],
      "name": "RoleGranted",
      "type": "event"
    },
    {
      "anonymous": false,
      "inputs": [
        {
          "indexed": true,
          "internalType": "bytes32",
          "name": "role",
          "type": "bytes32"
        },
        {
          "indexed": true,
          "internalType": "address",
          "name": "account",
          "type": "address"
        },
        {
          "indexed": true,
          "internalType": "address",
          "name": "sender",
          "type": "address"
        }
      ],
      "name": "RoleRevoked",
      "type": "event"
    },
    {
      "anonymous": false,
      "inputs": [
        {
          "indexed": true,
          "internalType": "address",
          "name": "from",
          "type": "address"
        },
        {
          "indexed": true,
          "internalType": "address",
          "name": "to",
          "type": "address"
        },
        {
          "indexed": true,
          "internalType": "uint256",
          "name": "seqNum",
          "type": "uint256"
        },
        {
          "indexed": false,
          "internalType": "bytes",
          "name": "data",
          "type": "bytes"
        }
      ],
      "name": "TxToL2",
      "type": "event"
    },
    {
      "anonymous": false,
      "inputs": [
        {
          "indexed": false,
          "internalType": "address",
          "name": "account",
          "type": "address"
        }
      ],
      "name": "Unpaused",
      "type": "event"
    },
    {
      "inputs": [],
      "name": "DEFAULT_ADMIN_ROLE",
      "outputs": [
        {
          "internalType": "bytes32",
          "name": "",
          "type": "bytes32"
        }
      ],
      "stateMutability": "view",
      "type": "function"
    },
    {
      "inputs": [],
      "name": "GOVERNOR_ROLE",
      "outputs": [
        {
          "internalType": "bytes32",
          "name": "",
          "type": "bytes32"
        }
      ],
      "stateMutability": "view",
      "type": "function"
    },
    {
      "inputs": [],
      "name": "bondingManagerAddr",
      "outputs": [
        {
          "internalType": "address",
          "name": "",
          "type": "address"
        }
      ],
      "stateMutability": "view",
      "type": "function"
    },
    {
      "inputs": [],
      "name": "bridgeMinterAddr",
      "outputs": [
        {
          "internalType": "address",
          "name": "",
          "type": "address"
        }
      ],
      "stateMutability": "view",
      "type": "function"
    },
    {
      "inputs": [
        {
          "internalType": "address",
          "name": "_l1Addr",
          "type": "address"
        },
        {
          "internalType": "address",
          "name": "_l2Addr",
          "type": "address"
        }
      ],
      "name": "getMigrateDelegatorParams",
      "outputs": [
        {
          "internalType": "bytes",
          "name": "data",
          "type": "bytes"
        },
        {
          "components": [
            {
              "internalType": "address",
              "name": "l1Addr",
              "type": "address"
            },
            {
              "internalType": "address",
              "name": "l2Addr",
              "type": "address"
            },
            {
              "internalType": "uint256",
              "name": "stake",
              "type": "uint256"
            },
            {
              "internalType": "uint256",
              "name": "delegatedStake",
              "type": "uint256"
            },
            {
              "internalType": "uint256",
              "name": "fees",
              "type": "uint256"
            },
            {
              "internalType": "address",
              "name": "delegate",
              "type": "address"
            }
          ],
          "internalType": "struct IMigrator.MigrateDelegatorParams",
          "name": "params",
          "type": "tuple"
        }
      ],
      "stateMutability": "view",
      "type": "function"
    },
    {
      "inputs": [
        {
          "internalType": "address",
          "name": "_l1Addr",
          "type": "address"
        },
        {
          "internalType": "address",
          "name": "_l2Addr",
          "type": "address"
        }
      ],
      "name": "getMigrateSenderParams",
      "outputs": [
        {
          "internalType": "bytes",
          "name": "data",
          "type": "bytes"
        },
        {
          "components": [
            {
              "internalType": "address",
              "name": "l1Addr",
              "type": "address"
            },
            {
              "internalType": "address",
              "name": "l2Addr",
              "type": "address"
            },
            {
              "internalType": "uint256",
              "name": "deposit",
              "type": "uint256"
            },
            {
              "internalType": "uint256",
              "name": "reserve",
              "type": "uint256"
            }
          ],
          "internalType": "struct IMigrator.MigrateSenderParams",
          "name": "params",
          "type": "tuple"
        }
      ],
      "stateMutability": "view",
      "type": "function"
    },
    {
      "inputs": [
        {
          "internalType": "address",
          "name": "_l1Addr",
          "type": "address"
        },
        {
          "internalType": "address",
          "name": "_l2Addr",
          "type": "address"
        },
        {
          "internalType": "uint256[]",
          "name": "_unbondingLockIds",
          "type": "uint256[]"
        }
      ],
      "name": "getMigrateUnbondingLocksParams",
      "outputs": [
        {
          "internalType": "bytes",
          "name": "data",
          "type": "bytes"
        },
        {
          "components": [
            {
              "internalType": "address",
              "name": "l1Addr",
              "type": "address"
            },
            {
              "internalType": "address",
              "name": "l2Addr",
              "type": "address"
            },
            {
              "internalType": "uint256",
              "name": "total",
              "type": "uint256"
            },
            {
              "internalType": "uint256[]",
              "name": "unbondingLockIds",
              "type": "uint256[]"
            },
            {
              "internalType": "address",
              "name": "delegate",
              "type": "address"
            }
          ],
          "internalType": "struct IMigrator.MigrateUnbondingLocksParams",
          "name": "params",
          "type": "tuple"
        }
      ],
      "stateMutability": "view",
      "type": "function"
    },
    {
      "inputs": [
        {
          "internalType": "bytes32",
          "name": "role",
          "type": "bytes32"
        }
      ],
      "name": "getRoleAdmin",
      "outputs": [
        {
          "internalType": "bytes32",
          "name": "",
          "type": "bytes32"
        }
      ],
      "stateMutability": "view",
      "type": "function"
    },
    {
      "inputs": [
        {
          "internalType": "bytes32",
          "name": "role",
          "type": "bytes32"
        },
        {
          "internalType": "address",
          "name": "account",
          "type": "address"
        }
      ],
      "name": "grantRole",
      "outputs": [],
      "stateMutability": "nonpayable",
      "type": "function"
    },
    {
      "inputs": [
        {
          "internalType": "bytes32",
          "name": "role",
          "type": "bytes32"
        },
        {
          "internalType": "address",
          "name": "account",
          "type": "address"
        }
      ],
      "name": "hasRole",
      "outputs": [
        {
          "internalType": "bool",
          "name": "",
          "type": "bool"
        }
      ],
      "stateMutability": "view",
      "type": "function"
    },
    {
      "inputs": [],
      "name": "inbox",
      "outputs": [
        {
          "internalType": "contract IInbox",
          "name": "",
          "type": "address"
        }
      ],
      "stateMutability": "view",
      "type": "function"
    },
    {
      "inputs": [],
      "name": "l1LPTGatewayAddr",
      "outputs": [
        {
          "internalType": "address",
          "name": "",
          "type": "address"
        }
      ],
      "stateMutability": "view",
      "type": "function"
    },
    {
      "inputs": [],
      "name": "l2MigratorAddr",
      "outputs": [
        {
          "internalType": "address",
          "name": "",
          "type": "address"
        }
      ],
      "stateMutability": "view",
      "type": "function"
    },
    {
      "inputs": [
        {
          "internalType": "address",
          "name": "_l1Addr",
          "type": "address"
        },
        {
          "internalType": "address",
          "name": "_l2Addr",
          "type": "address"
        },
        {
          "internalType": "bytes",
          "name": "_sig",
          "type": "bytes"
        },
        {
          "internalType": "uint256",
          "name": "_maxGas",
          "type": "uint256"
        },
        {
          "internalType": "uint256",
          "name": "_gasPriceBid",
          "type": "uint256"
        },
        {
          "internalType": "uint256",
          "name": "_maxSubmissionCost",
          "type": "uint256"
        }
      ],
      "name": "migrateDelegator",
      "outputs": [],
      "stateMutability": "payable",
      "type": "function"
    },
    {
      "inputs": [
        {
          "internalType": "uint256",
          "name": "_maxGas",
          "type": "uint256"
        },
        {
          "internalType": "uint256",
          "name": "_gasPriceBid",
          "type": "uint256"
        },
        {
          "internalType": "uint256",
          "name": "_maxSubmissionCost",
          "type": "uint256"
        }
      ],
      "name": "migrateETH",
      "outputs": [],
      "stateMutability": "payable",
      "type": "function"
    },
    {
      "inputs": [
        {
          "internalType": "uint256",
          "name": "_maxGas",
          "type": "uint256"
        },
        {
          "internalType": "uint256",
          "name": "_gasPriceBid",
          "type": "uint256"
        },
        {
          "internalType": "uint256",
          "name": "_maxSubmissionCost",
          "type": "uint256"
        }
      ],
      "name": "migrateLPT",
      "outputs": [],
      "stateMutability": "payable",
      "type": "function"
    },
    {
      "inputs": [
        {
          "internalType": "address",
          "name": "_l1Addr",
          "type": "address"
        },
        {
          "internalType": "address",
          "name": "_l2Addr",
          "type": "address"
        },
        {
          "internalType": "bytes",
          "name": "_sig",
          "type": "bytes"
        },
        {
          "internalType": "uint256",
          "name": "_maxGas",
          "type": "uint256"
        },
        {
          "internalType": "uint256",
          "name": "_gasPriceBid",
          "type": "uint256"
        },
        {
          "internalType": "uint256",
          "name": "_maxSubmissionCost",
          "type": "uint256"
        }
      ],
      "name": "migrateSender",
      "outputs": [],
      "stateMutability": "payable",
      "type": "function"
    },
    {
      "inputs": [
        {
          "internalType": "address",
          "name": "_l1Addr",
          "type": "address"
        },
        {
          "internalType": "address",
          "name": "_l2Addr",
          "type": "address"
        },
        {
          "internalType": "uint256[]",
          "name": "_unbondingLockIds",
          "type": "uint256[]"
        },
        {
          "internalType": "bytes",
          "name": "_sig",
          "type": "bytes"
        },
        {
          "internalType": "uint256",
          "name": "_maxGas",
          "type": "uint256"
        },
        {
          "internalType": "uint256",
          "name": "_gasPriceBid",
          "type": "uint256"
        },
        {
          "internalType": "uint256",
          "name": "_maxSubmissionCost",
          "type": "uint256"
        }
      ],
      "name": "migrateUnbondingLocks",
      "outputs": [],
      "stateMutability": "payable",
      "type": "function"
    },
    {
      "inputs": [],
      "name": "pause",
      "outputs": [],
      "stateMutability": "nonpayable",
      "type": "function"
    },
    {
      "inputs": [],
      "name": "paused",
      "outputs": [
        {
          "internalType": "bool",
          "name": "",
          "type": "bool"
        }
      ],
      "stateMutability": "view",
      "type": "function"
    },
    {
      "inputs": [
        {
          "internalType": "bytes32",
          "name": "role",
          "type": "bytes32"
        },
        {
          "internalType": "address",
          "name": "account",
          "type": "address"
        }
      ],
      "name": "renounceRole",
      "outputs": [],
      "stateMutability": "nonpayable",
      "type": "function"
    },
    {
      "inputs": [
        {
          "internalType": "bytes32",
          "name": "role",
          "type": "bytes32"
        },
        {
          "internalType": "address",
          "name": "account",
          "type": "address"
        }
      ],
      "name": "revokeRole",
      "outputs": [],
      "stateMutability": "nonpayable",
      "type": "function"
    },
    {
      "inputs": [
        {
          "internalType": "bytes4",
          "name": "interfaceId",
          "type": "bytes4"
        }
      ],
      "name": "supportsInterface",
      "outputs": [
        {
          "internalType": "bool",
          "name": "",
          "type": "bool"
        }
      ],
      "stateMutability": "view",
      "type": "function"
    },
    {
      "inputs": [],
      "name": "ticketBrokerAddr",
      "outputs": [
        {
          "internalType": "address",
          "name": "",
          "type": "address"
        }
      ],
      "stateMutability": "view",
      "type": "function"
    },
    {
      "inputs": [],
      "name": "tokenAddr",
      "outputs": [
        {
          "internalType": "address",
          "name": "",
          "type": "address"
        }
      ],
      "stateMutability": "view",
      "type": "function"
    },
    {
      "inputs": [],
      "name": "unpause",
      "outputs": [],
      "stateMutability": "nonpayable",
      "type": "function"
    }
  ],
  "transactionHash": "0xba16136bf41fa9679bef9cee2e9946cae3891cc48c79dabec56cc4f96d006d01",
  "args": [
    "0x578BAde599406A8fE3d24Fd7f7211c0911F5B29e",
    "0xa3Aa52cE79e85a21d9cCdA705C57e426B160112c",
    "0x511Bc4556D823Ae99630aE8de28b9B80Df90eA2e",
    "0xf623811b08b45792d0223D77d9c922dAE29712eC",
    "0x8573f2F5A3Bd960eeE3D998473e50C75cDbE6828",
    "0xEC97De7F469B705887CFcc83d9cAa215f97c168E",
    "0xD527B4ba179F41789dC00A144c1E1e374687CD5E"
  ],
  "solcInputHash": "3f7f51b7bc6dda218aa0e2e13638ff2c",
  "bytecode": "0x6102006040523480156200001257600080fd5b5060405162004d3138038062004d31833981810160405281019062000038919062000658565b6040518060400160405280601381526020017f4c69766570656572204c314d69677261746f72000000000000000000000000008152506040518060400160405280600181526020017f3100000000000000000000000000000000000000000000000000000000000000815250888073ffffffffffffffffffffffffffffffffffffffff1660808173ffffffffffffffffffffffffffffffffffffffff1660601b815250505060008280519060200120905060008280519060200120905060007f8b73c3c69bb8fe3d512ecc4cf759cc79239f7b179b0ffacaa9a75d522b39400f90508260e081815250508161010081815250504660c08181525050620001468184846200033c60201b60201c565b60a0818152505080610120818152505050505050506000600160006101000a81548160ff0219169083151502179055506200019a6000801b6200018e6200037860201b60201c565b6200038060201b60201c565b620001cf7f7935bd0ae54bc31f548c14dba4d37c5c64b3f8ca900cb468fb8abd54d5894f556000801b6200039660201b60201c565b8573ffffffffffffffffffffffffffffffffffffffff166101408173ffffffffffffffffffffffffffffffffffffffff1660601b815250508473ffffffffffffffffffffffffffffffffffffffff166101608173ffffffffffffffffffffffffffffffffffffffff1660601b815250508373ffffffffffffffffffffffffffffffffffffffff166101808173ffffffffffffffffffffffffffffffffffffffff1660601b815250508273ffffffffffffffffffffffffffffffffffffffff166101a08173ffffffffffffffffffffffffffffffffffffffff1660601b815250508173ffffffffffffffffffffffffffffffffffffffff166101c08173ffffffffffffffffffffffffffffffffffffffff1660601b815250508073ffffffffffffffffffffffffffffffffffffffff166101e08173ffffffffffffffffffffffffffffffffffffffff1660601b815250506200032f620003f960201b60201c565b5050505050505062000897565b60008383834630604051602001620003599594939291906200077c565b6040516020818303038152906040528051906020012090509392505050565b600033905090565b620003928282620004b060201b60201c565b5050565b6000620003a983620005a160201b60201c565b905081600080858152602001908152602001600020600101819055508181847fbd79b86ffe0ab8e8776151514217cd7cacd52c909f66475c3af44e129f0b00ff60405160405180910390a4505050565b62000409620005c060201b60201c565b156200044c576040517f08c379a00000000000000000000000000000000000000000000000000000000081526004016200044390620007d9565b60405180910390fd5b60018060006101000a81548160ff0219169083151502179055507f62e78cea01bee320cd4e420270b5ea74000d11b0c9f74754ebdbfc544b05a258620004976200037860201b60201c565b604051620004a691906200075f565b60405180910390a1565b620004c28282620005d760201b60201c565b6200059d57600160008084815260200190815260200160002060000160008373ffffffffffffffffffffffffffffffffffffffff1673ffffffffffffffffffffffffffffffffffffffff16815260200190815260200160002060006101000a81548160ff021916908315150217905550620005426200037860201b60201c565b73ffffffffffffffffffffffffffffffffffffffff168173ffffffffffffffffffffffffffffffffffffffff16837f2f8788117e7eff1d82e926ec794901d17c78024a50270940304540a733656f0d60405160405180910390a45b5050565b6000806000838152602001908152602001600020600101549050919050565b6000600160009054906101000a900460ff16905090565b600080600084815260200190815260200160002060000160008373ffffffffffffffffffffffffffffffffffffffff1673ffffffffffffffffffffffffffffffffffffffff16815260200190815260200160002060009054906101000a900460ff16905092915050565b60008151905062000652816200087d565b92915050565b600080600080600080600060e0888a0312156200067457600080fd5b6000620006848a828b0162000641565b9750506020620006978a828b0162000641565b9650506040620006aa8a828b0162000641565b9550506060620006bd8a828b0162000641565b9450506080620006d08a828b0162000641565b93505060a0620006e38a828b0162000641565b92505060c0620006f68a828b0162000641565b91505092959891949750929550565b62000710816200080c565b82525050565b620007218162000820565b82525050565b600062000736601083620007fb565b9150620007438262000854565b602082019050919050565b62000759816200084a565b82525050565b600060208201905062000776600083018462000705565b92915050565b600060a08201905062000793600083018862000716565b620007a2602083018762000716565b620007b1604083018662000716565b620007c060608301856200074e565b620007cf608083018462000705565b9695505050505050565b60006020820190508181036000830152620007f48162000727565b9050919050565b600082825260208201905092915050565b600062000819826200082a565b9050919050565b6000819050919050565b600073ffffffffffffffffffffffffffffffffffffffff82169050919050565b6000819050919050565b7f5061757361626c653a2070617573656400000000000000000000000000000000600082015250565b62000888816200080c565b81146200089457600080fd5b50565b60805160601c60a05160c05160e05161010051610120516101405160601c6101605160601c6101805160601c6101a05160601c6101c05160601c6101e05160601c61438a620009a7600039600081816107b901528181610f8b015281816110e1015281816115b2015281816116c2015261179a015260008181610fce015281816114e30152611554015260008181611009015281816114a7015261159101526000818161065601528181610ee6015261140501526000818161118e015261122801526000818161086001528181610bbc015261180a015260006122a2015260006122e4015260006122c30152600061224f0152600061227701526000818161182e0152611d09015261438a6000f3fe6080604052600436106101815760003560e01c806378da3574116100d1578063a375fa521161008a578063de1ec2d611610064578063de1ec2d61461053d578063e40309ca14610568578063e89320e514610584578063fb0e722b146105af57610181565b8063a375fa52146104cd578063ccc57490146104e9578063d547741f1461051457610181565b806378da3574146103c95780638456cb59146103e55780638f2c17ed146103fc57806391d14854146104275780639ca228bc14610464578063a217fddf146104a257610181565b806336568abe1161013e578063518fe44611610118578063518fe4461461032c57806359d95915146103485780635c975abb146103735780635fbe4d1d1461039e57610181565b806336568abe146102ae57806336e9feb9146102d75780633f4ba83a1461031557610181565b806301ffc9a714610186578063236cc70c146101c3578063248a9ca3146101ee57806328293d511461022b5780632f2ff15d14610247578063329b114e14610270575b600080fd5b34801561019257600080fd5b506101ad60048036038101906101a89190612f28565b6105da565b6040516101ba9190613843565b60405180910390f35b3480156101cf57600080fd5b506101d8610654565b6040516101e591906136e9565b60405180910390f35b3480156101fa57600080fd5b5061021560048036038101906102109190612ec3565b610678565b604051610222919061385e565b60405180910390f35b61024560048036038101906102409190612ce9565b610697565b005b34801561025357600080fd5b5061026e60048036038101906102699190612eec565b610829565b005b34801561027c57600080fd5b5061029760048036038101906102929190612cad565b610852565b6040516102a59291906139af565b60405180910390f35b3480156102ba57600080fd5b506102d560048036038101906102d09190612eec565b610b2b565b005b3480156102e357600080fd5b506102fe60048036038101906102f99190612dbb565b610bae565b60405161030c929190613a0f565b60405180910390f35b34801561032157600080fd5b5061032a610e5d565b005b610346600480360381019061034191906130d1565b610e9a565b005b34801561035457600080fd5b5061035d610fcc565b60405161036a91906136e9565b60405180910390f35b34801561037f57600080fd5b50610388610ff0565b6040516103959190613843565b60405180910390f35b3480156103aa57600080fd5b506103b3611007565b6040516103c091906136e9565b60405180910390f35b6103e360048036038101906103de9190612e22565b61102b565b005b3480156103f157600080fd5b506103fa61114f565b005b34801561040857600080fd5b5061041161118c565b60405161041e91906136e9565b60405180910390f35b34801561043357600080fd5b5061044e60048036038101906104499190612eec565b6111b0565b60405161045b9190613843565b60405180910390f35b34801561047057600080fd5b5061048b60048036038101906104869190612cad565b61121a565b6040516104999291906139df565b60405180910390f35b3480156104ae57600080fd5b506104b76113b2565b6040516104c4919061385e565b60405180910390f35b6104e760048036038101906104e291906130d1565b6113b9565b005b3480156104f557600080fd5b506104fe611673565b60405161050b919061385e565b60405180910390f35b34801561052057600080fd5b5061053b60048036038101906105369190612eec565b611697565b005b34801561054957600080fd5b506105526116c0565b60405161055f91906136e9565b60405180910390f35b610582600480360381019061057d9190612e22565b6116e4565b005b34801561059057600080fd5b50610599611808565b6040516105a691906136e9565b60405180910390f35b3480156105bb57600080fd5b506105c461182c565b6040516105d19190613a46565b60405180910390f35b60007f7965db0b000000000000000000000000000000000000000000000000000000007bffffffffffffffffffffffffffffffffffffffffffffffffffffffff1916827bffffffffffffffffffffffffffffffffffffffffffffffffffffffff1916148061064d575061064c82611850565b5b9050919050565b7f000000000000000000000000000000000000000000000000000000000000000081565b6000806000838152602001908152602001600020600101549050919050565b61069f610ff0565b156106df576040517f08c379a00000000000000000000000000000000000000000000000000000000081526004016106d690613b63565b60405180910390fd5b61075f88887f61aed36780e7480ed685cb5ea394df4fb8da267b9f97daeb24db6c660f7116978b8b8b8b60405160200161071a92919061365f565b6040516020818303038152906040528051906020012060405160200161074394939291906138b0565b60405160208183030381529060405280519060200120876118ba565b6000806107ae8a8a8a8a80806020026020016040519081016040528093929190818152602001838360200280828437600081840152601f19601f82011690508083019250505050505050610bae565b9150915060006107e27f00000000000000000000000000000000000000000000000000000000000000008b868989886119dd565b9050807f68d9b81e798c334d0daecab33df19f49cbc17c77cc19f4bcb772318e19316595836040516108149190613bf9565b60405180910390a25050505050505050505050565b61083282610678565b6108438161083e6119fc565b611a04565b61084d8383611aa1565b505050565b606061085c6128aa565b60007f0000000000000000000000000000000000000000000000000000000000000000905060008173ffffffffffffffffffffffffffffffffffffffff16639d0b2c7a8760006040518363ffffffff1660e01b81526004016108bf92919061376c565b60206040518083038186803b1580156108d757600080fd5b505afa1580156108eb573d6000803e3d6000fd5b505050506040513d601f19601f8201168201806040525081019061090f9190612fce565b905060008273ffffffffffffffffffffffffffffffffffffffff1663f595f1cc8860006040518363ffffffff1660e01b815260040161094f92919061376c565b60206040518083038186803b15801561096757600080fd5b505afa15801561097b573d6000803e3d6000fd5b505050506040513d601f19601f8201168201806040525081019061099f9190612fce565b90506000808473ffffffffffffffffffffffffffffffffffffffff1663a64ad5958a6040518263ffffffff1660e01b81526004016109dd91906136e9565b60e06040518083038186803b1580156109f557600080fd5b505afa158015610a09573d6000803e3d6000fd5b505050506040513d601f19601f82011682018060405250810190610a2d9190613033565b5050509350935050506040518060c001604052808a73ffffffffffffffffffffffffffffffffffffffff1681526020018973ffffffffffffffffffffffffffffffffffffffff1681526020018581526020018281526020018481526020018373ffffffffffffffffffffffffffffffffffffffff168152509550631a0725d860e01b86604051602401610ac09190613bc3565b604051602081830303815290604052907bffffffffffffffffffffffffffffffffffffffffffffffffffffffff19166020820180517bffffffffffffffffffffffffffffffffffffffffffffffffffffffff8381831617835250505050965050505050509250929050565b610b336119fc565b73ffffffffffffffffffffffffffffffffffffffff168173ffffffffffffffffffffffffffffffffffffffff1614610ba0576040517f08c379a0000000000000000000000000000000000000000000000000000000008152600401610b9790613ba3565b60405180910390fd5b610baa8282611b81565b5050565b6060610bb8612922565b60007f000000000000000000000000000000000000000000000000000000000000000090506000805b8551811015610cdb5760008373ffffffffffffffffffffffffffffffffffffffff1663412f83b68a898581518110610c42577f4e487b7100000000000000000000000000000000000000000000000000000000600052603260045260246000fd5b60200260200101516040518363ffffffff1660e01b8152600401610c67929190613795565b604080518083038186803b158015610c7e57600080fd5b505afa158015610c92573d6000803e3d6000fd5b505050506040513d601f19601f82011682018060405250810190610cb69190612ff7565b5090508083610cc59190613d52565b9250508080610cd390613f60565b915050610be1565b5060008273ffffffffffffffffffffffffffffffffffffffff1663a64ad595896040518263ffffffff1660e01b8152600401610d1791906136e9565b60e06040518083038186803b158015610d2f57600080fd5b505afa158015610d43573d6000803e3d6000fd5b505050506040513d601f19601f82011682018060405250810190610d679190613033565b50505050925050506040518060a001604052808973ffffffffffffffffffffffffffffffffffffffff1681526020018873ffffffffffffffffffffffffffffffffffffffff1681526020018381526020018781526020018273ffffffffffffffffffffffffffffffffffffffff16815250935063cc14c98860e01b84604051602401610df39190613bf9565b604051602081830303815290604052907bffffffffffffffffffffffffffffffffffffffffffffffffffffffff19166020820180517bffffffffffffffffffffffffffffffffffffffffffffffffffffffff83818316178352505050509450505050935093915050565b7f7935bd0ae54bc31f548c14dba4d37c5c64b3f8ca900cb468fb8abd54d5894f55610e8f81610e8a6119fc565b611a04565b610e97611c62565b50565b610ea2610ff0565b15610ee2576040517f08c379a0000000000000000000000000000000000000000000000000000000008152600401610ed990613b63565b60405180910390fd5b60007f000000000000000000000000000000000000000000000000000000000000000073ffffffffffffffffffffffffffffffffffffffff1663aa0946cd6040518163ffffffff1660e01b8152600401602060405180830381600087803b158015610f4c57600080fd5b505af1158015610f60573d6000803e3d6000fd5b505050506040513d601f19601f82011682018060405250810190610f849190612fce565b9050610fc57f000000000000000000000000000000000000000000000000000000000000000030348486898960405180602001604052806000815250611d04565b5050505050565b7f000000000000000000000000000000000000000000000000000000000000000081565b6000600160009054906101000a900460ff16905090565b7f000000000000000000000000000000000000000000000000000000000000000081565b611033610ff0565b15611073576040517f08c379a000000000000000000000000000000000000000000000000000000000815260040161106a90613b63565b60405180910390fd5b6110c986867f0988862b47ed3bbfb4a6ca37401c7f403b193459aeac85ae89b67007a66b7a8f89896040516020016110ad93929190613879565b60405160208183030381529060405280519060200120876118ba565b6000806110d68888610852565b91509150600061110a7f000000000000000000000000000000000000000000000000000000000000000089868989886119dd565b9050807f5dde64de6b2af2aa82b195f67a162a4f870e84c1416562735f6653c614a099eb8360405161113c9190613bc3565b60405180910390a2505050505050505050565b7f7935bd0ae54bc31f548c14dba4d37c5c64b3f8ca900cb468fb8abd54d5894f556111818161117c6119fc565b611a04565b611189611e39565b50565b7f000000000000000000000000000000000000000000000000000000000000000081565b600080600084815260200190815260200160002060000160008373ffffffffffffffffffffffffffffffffffffffff1673ffffffffffffffffffffffffffffffffffffffff16815260200190815260200160002060009054906101000a900460ff16905092915050565b6060611224612993565b60007f000000000000000000000000000000000000000000000000000000000000000090506000808273ffffffffffffffffffffffffffffffffffffffff1663e1a589da886040518263ffffffff1660e01b815260040161128591906136e9565b60806040518083038186803b15801561129d57600080fd5b505afa1580156112b1573d6000803e3d6000fd5b505050506040513d601f19601f820116820180604052508101906112d59190612f92565b9150915060405180608001604052808873ffffffffffffffffffffffffffffffffffffffff1681526020018773ffffffffffffffffffffffffffffffffffffffff168152602001836000015181526020018260000151815250935063b3f5ccae60e01b846040516024016113499190613bde565b604051602081830303815290604052907bffffffffffffffffffffffffffffffffffffffffffffffffffffffff19166020820180517bffffffffffffffffffffffffffffffffffffffffffffffffffffffff838183161783525050505094505050509250929050565b6000801b81565b6113c1610ff0565b15611401576040517f08c379a00000000000000000000000000000000000000000000000000000000081526004016113f890613b63565b60405180910390fd5b60007f000000000000000000000000000000000000000000000000000000000000000073ffffffffffffffffffffffffffffffffffffffff16634235dfbc6040518163ffffffff1660e01b8152600401602060405180830381600087803b15801561146b57600080fd5b505af115801561147f573d6000803e3d6000fd5b505050506040513d601f19601f820116820180604052508101906114a39190612fce565b90507f000000000000000000000000000000000000000000000000000000000000000073ffffffffffffffffffffffffffffffffffffffff1663095ea7b37f0000000000000000000000000000000000000000000000000000000000000000836040518363ffffffff1660e01b8152600401611520929190613795565b600060405180830381600087803b15801561153a57600080fd5b505af115801561154e573d6000803e3d6000fd5b505050507f000000000000000000000000000000000000000000000000000000000000000073ffffffffffffffffffffffffffffffffffffffff1663d2ce7d65347f00000000000000000000000000000000000000000000000000000000000000007f0000000000000000000000000000000000000000000000000000000000000000858989896040516020016115e59190613c1b565b6040516020818303038152906040526040518863ffffffff1660e01b815260040161161596959493929190613704565b6000604051808303818588803b15801561162e57600080fd5b505af1158015611642573d6000803e3d6000fd5b50505050506040513d6000823e3d601f19601f8201168201806040525081019061166c9190612f51565b5050505050565b7f7935bd0ae54bc31f548c14dba4d37c5c64b3f8ca900cb468fb8abd54d5894f5581565b6116a082610678565b6116b1816116ac6119fc565b611a04565b6116bb8383611b81565b505050565b7f000000000000000000000000000000000000000000000000000000000000000081565b6116ec610ff0565b1561172c576040517f08c379a000000000000000000000000000000000000000000000000000000000815260040161172390613b63565b60405180910390fd5b61178286867f028d23c953a67a525f843967e7e61f06d72d4a0aed8e3133159bee065e32f81f898960405160200161176693929190613879565b60405160208183030381529060405280519060200120876118ba565b60008061178f888861121a565b9150915060006117c37f000000000000000000000000000000000000000000000000000000000000000089868989886119dd565b9050807f53a728d7c49e850e9b34c39a448454863a6fbfc7afe9fbaf257f9dd5fd1663b3836040516117f59190613bde565b60405180910390a2505050505050505050565b7f000000000000000000000000000000000000000000000000000000000000000081565b7f000000000000000000000000000000000000000000000000000000000000000081565b60007f01ffc9a7000000000000000000000000000000000000000000000000000000007bffffffffffffffffffffffffffffffffffffffffffffffffffffffff1916827bffffffffffffffffffffffffffffffffffffffffffffffffffffffff1916149050919050565b600073ffffffffffffffffffffffffffffffffffffffff168373ffffffffffffffffffffffffffffffffffffffff16141561192a576040517f08c379a000000000000000000000000000000000000000000000000000000000815260040161192190613b03565b60405180910390fd5b8373ffffffffffffffffffffffffffffffffffffffff163373ffffffffffffffffffffffffffffffffffffffff16148061199857508373ffffffffffffffffffffffffffffffffffffffff166119808383611edb565b73ffffffffffffffffffffffffffffffffffffffff16145b6119d7576040517f08c379a00000000000000000000000000000000000000000000000000000000081526004016119ce90613b43565b60405180910390fd5b50505050565b60006119f0878734600089898989611d04565b90509695505050505050565b600033905090565b611a0e82826111b0565b611a9d57611a338173ffffffffffffffffffffffffffffffffffffffff166014611f10565b611a418360001c6020611f10565b604051602001611a529291906136af565b6040516020818303038152906040526040517f08c379a0000000000000000000000000000000000000000000000000000000008152600401611a949190613a61565b60405180910390fd5b5050565b611aab82826111b0565b611b7d57600160008084815260200190815260200160002060000160008373ffffffffffffffffffffffffffffffffffffffff1673ffffffffffffffffffffffffffffffffffffffff16815260200190815260200160002060006101000a81548160ff021916908315150217905550611b226119fc565b73ffffffffffffffffffffffffffffffffffffffff168173ffffffffffffffffffffffffffffffffffffffff16837f2f8788117e7eff1d82e926ec794901d17c78024a50270940304540a733656f0d60405160405180910390a45b5050565b611b8b82826111b0565b15611c5e57600080600084815260200190815260200160002060000160008373ffffffffffffffffffffffffffffffffffffffff1673ffffffffffffffffffffffffffffffffffffffff16815260200190815260200160002060006101000a81548160ff021916908315150217905550611c036119fc565b73ffffffffffffffffffffffffffffffffffffffff168173ffffffffffffffffffffffffffffffffffffffff16837ff6391f5c32d9c69d2a47ea670b442974b53935d1edc7fd64eb21e047a839171b60405160405180910390a45b5050565b611c6a610ff0565b611ca9576040517f08c379a0000000000000000000000000000000000000000000000000000000008152600401611ca090613ac3565b60405180910390fd5b6000600160006101000a81548160ff0219169083151502179055507f5db9ee0a495bf2e6ff9c91a7834c1ba4fdd244a5e8aa4e537bd38aeae4b073aa611ced6119fc565b604051611cfa91906136e9565b60405180910390a1565b6000807f000000000000000000000000000000000000000000000000000000000000000073ffffffffffffffffffffffffffffffffffffffff1663679b6ded898c8a8a8e8f8c8c8c6040518a63ffffffff1660e01b8152600401611d6f9897969594939291906137be565b6020604051808303818588803b158015611d8857600080fd5b505af1158015611d9c573d6000803e3d6000fd5b50505050506040513d601f19601f82011682018060405250810190611dc19190612fce565b9050808a73ffffffffffffffffffffffffffffffffffffffff168a73ffffffffffffffffffffffffffffffffffffffff167fc1d1490cf25c3b40d600dfb27c7680340ed1ab901b7e8f3551280968a3b372b086604051611e21919061398d565b60405180910390a48091505098975050505050505050565b611e41610ff0565b15611e81576040517f08c379a0000000000000000000000000000000000000000000000000000000008152600401611e7890613b63565b60405180910390fd5b60018060006101000a81548160ff0219169083151502179055507f62e78cea01bee320cd4e420270b5ea74000d11b0c9f74754ebdbfc544b05a258611ec46119fc565b604051611ed191906136e9565b60405180910390a1565b60008082511415611eef5760009050611f0a565b6000611efa8461220a565b9050611f068184612224565b9150505b92915050565b606060006002836002611f239190613da8565b611f2d9190613d52565b67ffffffffffffffff811115611f6c577f4e487b7100000000000000000000000000000000000000000000000000000000600052604160045260246000fd5b6040519080825280601f01601f191660200182016040528015611f9e5781602001600182028036833780820191505090505b5090507f300000000000000000000000000000000000000000000000000000000000000081600081518110611ffc577f4e487b7100000000000000000000000000000000000000000000000000000000600052603260045260246000fd5b60200101907effffffffffffffffffffffffffffffffffffffffffffffffffffffffffffff1916908160001a9053507f780000000000000000000000000000000000000000000000000000000000000081600181518110612086577f4e487b7100000000000000000000000000000000000000000000000000000000600052603260045260246000fd5b60200101907effffffffffffffffffffffffffffffffffffffffffffffffffffffffffffff1916908160001a905350600060018460026120c69190613da8565b6120d09190613d52565b90505b60018111156121bc577f3031323334353637383961626364656600000000000000000000000000000000600f861660108110612138577f4e487b7100000000000000000000000000000000000000000000000000000000600052603260045260246000fd5b1a60f81b828281518110612175577f4e487b7100000000000000000000000000000000000000000000000000000000600052603260045260246000fd5b60200101907effffffffffffffffffffffffffffffffffffffffffffffffffffffffffffff1916908160001a905350600485901c9450806121b590613f05565b90506120d3565b5060008414612200576040517f08c379a00000000000000000000000000000000000000000000000000000000081526004016121f790613aa3565b60405180910390fd5b8091505092915050565b600061221d61221761224b565b8361230e565b9050919050565b60008060006122338585612341565b91509150612240816123c4565b819250505092915050565b60007f000000000000000000000000000000000000000000000000000000000000000046141561229d577f0000000000000000000000000000000000000000000000000000000000000000905061230b565b6123087f00000000000000000000000000000000000000000000000000000000000000007f00000000000000000000000000000000000000000000000000000000000000007f0000000000000000000000000000000000000000000000000000000000000000612715565b90505b90565b60008282604051602001612323929190613678565b60405160208183030381529060405280519060200120905092915050565b6000806041835114156123835760008060006020860151925060408601519150606086015160001a90506123778782858561274f565b945094505050506123bd565b6040835114156123b45760008060208501519150604085015190506123a986838361285c565b9350935050506123bd565b60006002915091505b9250929050565b600060048111156123fe577f4e487b7100000000000000000000000000000000000000000000000000000000600052602160045260246000fd5b816004811115612437577f4e487b7100000000000000000000000000000000000000000000000000000000600052602160045260246000fd5b141561244257612712565b6001600481111561247c577f4e487b7100000000000000000000000000000000000000000000000000000000600052602160045260246000fd5b8160048111156124b5577f4e487b7100000000000000000000000000000000000000000000000000000000600052602160045260246000fd5b14156124f6576040517f08c379a00000000000000000000000000000000000000000000000000000000081526004016124ed90613a83565b60405180910390fd5b60026004811115612530577f4e487b7100000000000000000000000000000000000000000000000000000000600052602160045260246000fd5b816004811115612569577f4e487b7100000000000000000000000000000000000000000000000000000000600052602160045260246000fd5b14156125aa576040517f08c379a00000000000000000000000000000000000000000000000000000000081526004016125a190613ae3565b60405180910390fd5b600360048111156125e4577f4e487b7100000000000000000000000000000000000000000000000000000000600052602160045260246000fd5b81600481111561261d577f4e487b7100000000000000000000000000000000000000000000000000000000600052602160045260246000fd5b141561265e576040517f08c379a000000000000000000000000000000000000000000000000000000000815260040161265590613b23565b60405180910390fd5b600480811115612697577f4e487b7100000000000000000000000000000000000000000000000000000000600052602160045260246000fd5b8160048111156126d0577f4e487b7100000000000000000000000000000000000000000000000000000000600052602160045260246000fd5b1415612711576040517f08c379a000000000000000000000000000000000000000000000000000000000815260040161270890613b83565b60405180910390fd5b5b50565b600083838346306040516020016127309594939291906138f5565b6040516020818303038152906040528051906020012090509392505050565b6000807f7fffffffffffffffffffffffffffffff5d576e7357a4501ddfe92f46681b20a08360001c111561278a576000600391509150612853565b601b8560ff16141580156127a25750601c8560ff1614155b156127b4576000600491509150612853565b6000600187878787604051600081526020016040526040516127d99493929190613948565b6020604051602081039080840390855afa1580156127fb573d6000803e3d6000fd5b505050602060405103519050600073ffffffffffffffffffffffffffffffffffffffff168173ffffffffffffffffffffffffffffffffffffffff16141561284a57600060019250925050612853565b80600092509250505b94509492505050565b6000806000807f7fffffffffffffffffffffffffffffffffffffffffffffffffffffffffffffff85169150601b8560ff1c01905061289c8782888561274f565b935093505050935093915050565b6040518060c00160405280600073ffffffffffffffffffffffffffffffffffffffff168152602001600073ffffffffffffffffffffffffffffffffffffffff168152602001600081526020016000815260200160008152602001600073ffffffffffffffffffffffffffffffffffffffff1681525090565b6040518060a00160405280600073ffffffffffffffffffffffffffffffffffffffff168152602001600073ffffffffffffffffffffffffffffffffffffffff1681526020016000815260200160608152602001600073ffffffffffffffffffffffffffffffffffffffff1681525090565b6040518060800160405280600073ffffffffffffffffffffffffffffffffffffffff168152602001600073ffffffffffffffffffffffffffffffffffffffff16815260200160008152602001600081525090565b60006129fa6129f584613c6e565b613c49565b90508083825260208201905082856020860282011115612a1957600080fd5b60005b85811015612a495781612a2f8882612c83565b845260208401935060208301925050600181019050612a1c565b5050509392505050565b6000612a66612a6184613c9a565b613c49565b905082815260208101848484011115612a7e57600080fd5b612a89848285613ec3565b509392505050565b6000612aa4612a9f84613c9a565b613c49565b905082815260208101848484011115612abc57600080fd5b612ac7848285613ed2565b509392505050565b600081359050612ade816142f8565b92915050565b600081519050612af3816142f8565b92915050565b60008083601f840112612b0b57600080fd5b8235905067ffffffffffffffff811115612b2457600080fd5b602083019150836020820283011115612b3c57600080fd5b9250929050565b600082601f830112612b5457600080fd5b8135612b648482602086016129e7565b91505092915050565b600081359050612b7c8161430f565b92915050565b600081359050612b9181614326565b92915050565b600082601f830112612ba857600080fd5b8135612bb8848260208601612a53565b91505092915050565b600082601f830112612bd257600080fd5b8151612be2848260208601612a91565b91505092915050565b600060408284031215612bfd57600080fd5b612c076040613c49565b90506000612c1784828501612c98565b6000830152506020612c2b84828501612c98565b60208301525092915050565b600060408284031215612c4957600080fd5b612c536040613c49565b90506000612c6384828501612c98565b6000830152506020612c7784828501612c98565b60208301525092915050565b600081359050612c928161433d565b92915050565b600081519050612ca78161433d565b92915050565b60008060408385031215612cc057600080fd5b6000612cce85828601612acf565b9250506020612cdf85828601612acf565b9150509250929050565b60008060008060008060008060e0898b031215612d0557600080fd5b6000612d138b828c01612acf565b9850506020612d248b828c01612acf565b975050604089013567ffffffffffffffff811115612d4157600080fd5b612d4d8b828c01612af9565b9650965050606089013567ffffffffffffffff811115612d6c57600080fd5b612d788b828c01612b97565b9450506080612d898b828c01612c83565b93505060a0612d9a8b828c01612c83565b92505060c0612dab8b828c01612c83565b9150509295985092959890939650565b600080600060608486031215612dd057600080fd5b6000612dde86828701612acf565b9350506020612def86828701612acf565b925050604084013567ffffffffffffffff811115612e0c57600080fd5b612e1886828701612b43565b9150509250925092565b60008060008060008060c08789031215612e3b57600080fd5b6000612e4989828a01612acf565b9650506020612e5a89828a01612acf565b955050604087013567ffffffffffffffff811115612e7757600080fd5b612e8389828a01612b97565b9450506060612e9489828a01612c83565b9350506080612ea589828a01612c83565b92505060a0612eb689828a01612c83565b9150509295509295509295565b600060208284031215612ed557600080fd5b6000612ee384828501612b6d565b91505092915050565b60008060408385031215612eff57600080fd5b6000612f0d85828601612b6d565b9250506020612f1e85828601612acf565b9150509250929050565b600060208284031215612f3a57600080fd5b6000612f4884828501612b82565b91505092915050565b600060208284031215612f6357600080fd5b600082015167ffffffffffffffff811115612f7d57600080fd5b612f8984828501612bc1565b91505092915050565b60008060808385031215612fa557600080fd5b6000612fb385828601612c37565b9250506040612fc485828601612beb565b9150509250929050565b600060208284031215612fe057600080fd5b6000612fee84828501612c98565b91505092915050565b6000806040838503121561300a57600080fd5b600061301885828601612c98565b925050602061302985828601612c98565b9150509250929050565b600080600080600080600060e0888a03121561304e57600080fd5b600061305c8a828b01612c98565b975050602061306d8a828b01612c98565b965050604061307e8a828b01612ae4565b955050606061308f8a828b01612c98565b94505060806130a08a828b01612c98565b93505060a06130b18a828b01612c98565b92505060c06130c28a828b01612c98565b91505092959891949750929550565b6000806000606084860312156130e657600080fd5b60006130f486828701612c83565b935050602061310586828701612c83565b925050604061311686828701612c83565b9150509250925092565b600061312c8383613632565b60208301905092915050565b61314181613e02565b82525050565b61315081613e02565b82525050565b60006131628385613d1a565b93507f07ffffffffffffffffffffffffffffffffffffffffffffffffffffffffffffff83111561319157600080fd5b6020830292506131a2838584613ec3565b82840190509392505050565b60006131b982613cdb565b6131c38185613d09565b93506131ce83613ccb565b8060005b838110156131ff5781516131e68882613120565b97506131f183613cfc565b9250506001810190506131d2565b5085935050505092915050565b61321581613e14565b82525050565b61322481613e20565b82525050565b61323b61323682613e20565b613fa9565b82525050565b600061324c82613ce6565b6132568185613d25565b9350613266818560208601613ed2565b61326f81614011565b840191505092915050565b61328381613e8d565b82525050565b61329281613eb1565b82525050565b60006132a382613cf1565b6132ad8185613d36565b93506132bd818560208601613ed2565b6132c681614011565b840191505092915050565b60006132dc82613cf1565b6132e68185613d47565b93506132f6818560208601613ed2565b80840191505092915050565b600061330f601883613d36565b915061331a82614022565b602082019050919050565b6000613332602083613d36565b915061333d8261404b565b602082019050919050565b6000613355601483613d36565b915061336082614074565b602082019050919050565b6000613378601f83613d36565b91506133838261409d565b602082019050919050565b600061339b603183613d36565b91506133a6826140c6565b604082019050919050565b60006133be600283613d47565b91506133c982614115565b600282019050919050565b60006133e1602283613d36565b91506133ec8261413e565b604082019050919050565b6000613404602b83613d36565b915061340f8261418d565b604082019050919050565b6000613427601083613d36565b9150613432826141dc565b602082019050919050565b600061344a602283613d36565b915061345582614205565b604082019050919050565b600061346d600083613d36565b915061347882614254565b600082019050919050565b6000613490601783613d47565b915061349b82614257565b601782019050919050565b60006134b3601183613d47565b91506134be82614280565b601182019050919050565b60006134d6602f83613d36565b91506134e1826142a9565b604082019050919050565b60c0820160008201516135026000850182613138565b5060208201516135156020850182613138565b5060408201516135286040850182613632565b50606082015161353b6060850182613632565b50608082015161354e6080850182613632565b5060a082015161356160a0850182613138565b50505050565b60808201600082015161357d6000850182613138565b5060208201516135906020850182613138565b5060408201516135a36040850182613632565b5060608201516135b66060850182613632565b50505050565b600060a0830160008301516135d46000860182613138565b5060208301516135e76020860182613138565b5060408301516135fa6040860182613632565b506060830151848203606086015261361282826131ae565b91505060808301516136276080860182613138565b508091505092915050565b61363b81613e76565b82525050565b61364a81613e76565b82525050565b61365981613e80565b82525050565b600061366c828486613156565b91508190509392505050565b6000613683826133b1565b915061368f828561322a565b60208201915061369f828461322a565b6020820191508190509392505050565b60006136ba82613483565b91506136c682856132d1565b91506136d1826134a6565b91506136dd82846132d1565b91508190509392505050565b60006020820190506136fe6000830184613147565b92915050565b600060c0820190506137196000830189613147565b6137266020830188613147565b6137336040830187613641565b6137406060830186613641565b61374d6080830185613641565b81810360a083015261375f8184613241565b9050979650505050505050565b60006040820190506137816000830185613147565b61378e6020830184613289565b9392505050565b60006040820190506137aa6000830185613147565b6137b76020830184613641565b9392505050565b6000610100820190506137d4600083018b613147565b6137e1602083018a613641565b6137ee6040830189613641565b6137fb6060830188613147565b6138086080830187613147565b61381560a0830186613641565b61382260c0830185613641565b81810360e08301526138348184613241565b90509998505050505050505050565b6000602082019050613858600083018461320c565b92915050565b6000602082019050613873600083018461321b565b92915050565b600060608201905061388e600083018661321b565b61389b6020830185613147565b6138a86040830184613147565b949350505050565b60006080820190506138c5600083018761321b565b6138d26020830186613147565b6138df6040830185613147565b6138ec606083018461321b565b95945050505050565b600060a08201905061390a600083018861321b565b613917602083018761321b565b613924604083018661321b565b6139316060830185613641565b61393e6080830184613147565b9695505050505050565b600060808201905061395d600083018761321b565b61396a6020830186613650565b613977604083018561321b565b613984606083018461321b565b95945050505050565b600060208201905081810360008301526139a78184613241565b905092915050565b600060e08201905081810360008301526139c98185613241565b90506139d860208301846134ec565b9392505050565b600060a08201905081810360008301526139f98185613241565b9050613a086020830184613567565b9392505050565b60006040820190508181036000830152613a298185613241565b90508181036020830152613a3d81846135bc565b90509392505050565b6000602082019050613a5b600083018461327a565b92915050565b60006020820190508181036000830152613a7b8184613298565b905092915050565b60006020820190508181036000830152613a9c81613302565b9050919050565b60006020820190508181036000830152613abc81613325565b9050919050565b60006020820190508181036000830152613adc81613348565b9050919050565b60006020820190508181036000830152613afc8161336b565b9050919050565b60006020820190508181036000830152613b1c8161338e565b9050919050565b60006020820190508181036000830152613b3c816133d4565b9050919050565b60006020820190508181036000830152613b5c816133f7565b9050919050565b60006020820190508181036000830152613b7c8161341a565b9050919050565b60006020820190508181036000830152613b9c8161343d565b9050919050565b60006020820190508181036000830152613bbc816134c9565b9050919050565b600060c082019050613bd860008301846134ec565b92915050565b6000608082019050613bf36000830184613567565b92915050565b60006020820190508181036000830152613c1381846135bc565b905092915050565b6000604082019050613c306000830184613641565b8181036020830152613c4181613460565b905092915050565b6000613c53613c64565b9050613c5f8282613f2f565b919050565b6000604051905090565b600067ffffffffffffffff821115613c8957613c88613fe2565b5b602082029050602081019050919050565b600067ffffffffffffffff821115613cb557613cb4613fe2565b5b613cbe82614011565b9050602081019050919050565b6000819050602082019050919050565b600081519050919050565b600081519050919050565b600081519050919050565b6000602082019050919050565b600082825260208201905092915050565b600081905092915050565b600082825260208201905092915050565b600082825260208201905092915050565b600081905092915050565b6000613d5d82613e76565b9150613d6883613e76565b9250827fffffffffffffffffffffffffffffffffffffffffffffffffffffffffffffffff03821115613d9d57613d9c613fb3565b5b828201905092915050565b6000613db382613e76565b9150613dbe83613e76565b9250817fffffffffffffffffffffffffffffffffffffffffffffffffffffffffffffffff0483118215151615613df757613df6613fb3565b5b828202905092915050565b6000613e0d82613e56565b9050919050565b60008115159050919050565b6000819050919050565b60007fffffffff0000000000000000000000000000000000000000000000000000000082169050919050565b600073ffffffffffffffffffffffffffffffffffffffff82169050919050565b6000819050919050565b600060ff82169050919050565b6000613e9882613e9f565b9050919050565b6000613eaa82613e56565b9050919050565b6000613ebc82613e76565b9050919050565b82818337600083830152505050565b60005b83811015613ef0578082015181840152602081019050613ed5565b83811115613eff576000848401525b50505050565b6000613f1082613e76565b91506000821415613f2457613f23613fb3565b5b600182039050919050565b613f3882614011565b810181811067ffffffffffffffff82111715613f5757613f56613fe2565b5b80604052505050565b6000613f6b82613e76565b91507fffffffffffffffffffffffffffffffffffffffffffffffffffffffffffffffff821415613f9e57613f9d613fb3565b5b600182019050919050565b6000819050919050565b7f4e487b7100000000000000000000000000000000000000000000000000000000600052601160045260246000fd5b7f4e487b7100000000000000000000000000000000000000000000000000000000600052604160045260246000fd5b6000601f19601f8301169050919050565b7f45434453413a20696e76616c6964207369676e61747572650000000000000000600082015250565b7f537472696e67733a20686578206c656e67746820696e73756666696369656e74600082015250565b7f5061757361626c653a206e6f7420706175736564000000000000000000000000600082015250565b7f45434453413a20696e76616c6964207369676e6174757265206c656e67746800600082015250565b7f4c314d69677261746f72237265717569726556616c69644d6967726174696f6e60008201527f3a20494e56414c49445f4c325f41444452000000000000000000000000000000602082015250565b7f1901000000000000000000000000000000000000000000000000000000000000600082015250565b7f45434453413a20696e76616c6964207369676e6174757265202773272076616c60008201527f7565000000000000000000000000000000000000000000000000000000000000602082015250565b7f4c314d69677261746f72237265717569726556616c69644d6967726174696f6e60008201527f3a204641494c5f41555448000000000000000000000000000000000000000000602082015250565b7f5061757361626c653a2070617573656400000000000000000000000000000000600082015250565b7f45434453413a20696e76616c6964207369676e6174757265202776272076616c60008201527f7565000000000000000000000000000000000000000000000000000000000000602082015250565b50565b7f416363657373436f6e74726f6c3a206163636f756e7420000000000000000000600082015250565b7f206973206d697373696e6720726f6c6520000000000000000000000000000000600082015250565b7f416363657373436f6e74726f6c3a2063616e206f6e6c792072656e6f756e636560008201527f20726f6c657320666f722073656c660000000000000000000000000000000000602082015250565b61430181613e02565b811461430c57600080fd5b50565b61431881613e20565b811461432357600080fd5b50565b61432f81613e2a565b811461433a57600080fd5b50565b61434681613e76565b811461435157600080fd5b5056fea2646970667358221220124d2796fcf66be657f219b578961dae2888234d9ff69639fb5030cc84b1e14864736f6c63430008040033",
  "devdoc": {
    "kind": "dev",
    "methods": {
      "getMigrateDelegatorParams(address,address)": {
        "params": {
          "_l1Addr": "Address migrating from L1",
          "_l2Addr": "Address to use on L2"
        },
        "returns": {
          "data": "L2 calldata for finalizeMigrateDelegator() in L2Migrator",
          "params": "MigrateDelegatorParams to use for finalizeMigrateDelegator() in L2Migrator"
        }
      },
      "getMigrateSenderParams(address,address)": {
        "params": {
          "_l1Addr": "Address migrating from L1",
          "_l2Addr": "Address to use on L2"
        },
        "returns": {
          "data": "L2 calldata for finalizeMigrateSender() in L2Migrator",
          "params": "MigrateSenderParams to use for finalizeMigrateSender() in L2Migrator"
        }
      },
      "getMigrateUnbondingLocksParams(address,address,uint256[])": {
        "params": {
          "_l1Addr": "Address migrating from L1",
          "_l2Addr": "Address to use on L2",
          "_unbondingLockIds": "IDs of unbonding locks in L1 BondingManager to migrate"
        },
        "returns": {
          "data": "L2 calldata for finalizeMigrateUnbondingLocks() in L2Migrator",
          "params": "MigrateUnbondingLocksParams to use for finalizeMigrateUnbondingLocks() in L2Migrator"
        }
      },
      "getRoleAdmin(bytes32)": {
        "details": "Returns the admin role that controls `role`. See {grantRole} and {revokeRole}. To change a role's admin, use {_setRoleAdmin}."
      },
      "grantRole(bytes32,address)": {
        "details": "Grants `role` to `account`. If `account` had not been already granted `role`, emits a {RoleGranted} event. Requirements: - the caller must have ``role``'s admin role."
      },
      "hasRole(bytes32,address)": {
        "details": "Returns `true` if `account` has been granted `role`."
      },
      "migrateDelegator(address,address,bytes,uint256,uint256,uint256)": {
        "details": "The term \"delegator\" here can refer to both a transcoder (self-delegated delegator) and delegator.",
        "params": {
          "_gasPriceBid": "Gas price bid for L2 execution",
          "_l1Addr": "Address migrating from L1",
          "_l2Addr": "Address to use on L2",
          "_maxGas": "Gas limit for L2 execution",
          "_maxSubmissionCost": "Max ETH to pay for retryable ticket base submission fee",
          "_sig": "Optional EIP-712 signature over a payload that includes _l1Addr and _l2Addr"
        }
      },
      "migrateETH(uint256,uint256,uint256)": {
        "details": "Anyone can call this function.",
        "params": {
          "_gasPriceBid": "Gas price bid for L2 execution",
          "_maxGas": "Gas limit for L2 execution",
          "_maxSubmissionCost": "Max ETH to pay for retryable ticket base submission fee"
        }
      },
      "migrateLPT(uint256,uint256,uint256)": {
        "details": "Anyone can call this function.",
        "params": {
          "_gasPriceBid": "Gas price bid for L2 execution",
          "_maxGas": "Gas limit for L2 execution",
          "_maxSubmissionCost": "Max ETH to pay for retryable ticket base submission fee"
        }
      },
      "migrateSender(address,address,bytes,uint256,uint256,uint256)": {
        "params": {
          "_gasPriceBid": "Gas price bid for L2 execution",
          "_l1Addr": "Address migrating from L1",
          "_l2Addr": "Address to use on L2",
          "_maxGas": "Gas limit for L2 execution",
          "_maxSubmissionCost": "Max ETH to pay for retryable ticket base submission fee",
          "_sig": "Optional EIP-712 signature over a payload that includes _l1Addr and _l2Addr"
        }
      },
      "migrateUnbondingLocks(address,address,uint256[],bytes,uint256,uint256,uint256)": {
        "params": {
          "_gasPriceBid": "Gas price bid for L2 execution",
          "_l1Addr": "Address migrating from L1",
          "_l2Addr": "Address to use on L2",
          "_maxGas": "Gas limit for L2 execution",
          "_maxSubmissionCost": "Max ETH to pay for retryable ticket base submission fee",
          "_sig": "Optional EIP-712 signature over a payload that includes _l1Addr, _l2Addr and _unbondingLockIds",
          "_unbondingLockIds": "IDs of unbonding locks in the L1 BondingManager to migrate"
        }
      },
      "pause()": {
        "details": "Only callable by addresses with governor role"
      },
      "paused()": {
        "details": "Returns true if the contract is paused, and false otherwise."
      },
      "renounceRole(bytes32,address)": {
        "details": "Revokes `role` from the calling account. Roles are often managed via {grantRole} and {revokeRole}: this function's purpose is to provide a mechanism for accounts to lose their privileges if they are compromised (such as when a trusted device is misplaced). If the calling account had been granted `role`, emits a {RoleRevoked} event. Requirements: - the caller must be `account`."
      },
      "revokeRole(bytes32,address)": {
        "details": "Revokes `role` from `account`. If `account` had been granted `role`, emits a {RoleRevoked} event. Requirements: - the caller must have ``role``'s admin role."
      },
      "supportsInterface(bytes4)": {
        "details": "See {IERC165-supportsInterface}."
      },
      "unpause()": {
        "details": "Only callable by addresses with governor role"
      }
    },
    "version": 1
  },
  "userdoc": {
    "kind": "user",
    "methods": {
      "getMigrateDelegatorParams(address,address)": {
        "notice": "Return L2 calldata and MigrateDelegatorParams to use for a L2 call on L2Migrator"
      },
      "getMigrateSenderParams(address,address)": {
        "notice": "Return L2 calldata and MigrateSenderParams to use for a L2 call on L2Migrator"
      },
      "getMigrateUnbondingLocksParams(address,address,uint256[])": {
        "notice": "Return L2 calldata and MigrateUnbondingLocksParams to use for a L2 call on L2Migrator"
      },
      "migrateDelegator(address,address,bytes,uint256,uint256,uint256)": {
        "notice": "Executes a L2 call to L2Migrator to migrate transcoder/delegator state from the L1 BondingManager."
      },
      "migrateETH(uint256,uint256,uint256)": {
        "notice": "Executes a L2 call to send ETH from the L1BridgeMinter to the L2Migrator."
      },
      "migrateLPT(uint256,uint256,uint256)": {
        "notice": "Executes a L2 call to send LPT from the L1BridgeMinter to the L2Migrator."
      },
      "migrateSender(address,address,bytes,uint256,uint256,uint256)": {
        "notice": "Executes a L2 call to L2Migrator to migrate sender deposit/reserve state from the L1 TicketBroker."
      },
      "migrateUnbondingLocks(address,address,uint256[],bytes,uint256,uint256,uint256)": {
        "notice": "Executes a L2 call to L2Migrator to migrate unbonding locks state from the L1 BondingManager."
      },
      "pause()": {
        "notice": "Pause the contract"
      },
      "unpause()": {
        "notice": "Unpause the contract"
      }
    },
    "version": 1
  },
  "storageLayout": {
    "storage": [
      {
        "astId": 343,
        "contract": "contracts/L1/gateway/L1Migrator.sol:L1Migrator",
        "label": "_roles",
        "offset": 0,
        "slot": "0",
        "type": "t_mapping(t_bytes32,t_struct(RoleData)338_storage)"
      },
      {
        "astId": 900,
        "contract": "contracts/L1/gateway/L1Migrator.sol:L1Migrator",
        "label": "_paused",
        "offset": 0,
        "slot": "1",
        "type": "t_bool"
      }
    ],
    "types": {
      "t_address": {
        "encoding": "inplace",
        "label": "address",
        "numberOfBytes": "20"
      },
      "t_bool": {
        "encoding": "inplace",
        "label": "bool",
        "numberOfBytes": "1"
      },
      "t_bytes32": {
        "encoding": "inplace",
        "label": "bytes32",
        "numberOfBytes": "32"
      },
      "t_mapping(t_address,t_bool)": {
        "encoding": "mapping",
        "key": "t_address",
        "label": "mapping(address => bool)",
        "numberOfBytes": "32",
        "value": "t_bool"
      },
      "t_mapping(t_bytes32,t_struct(RoleData)338_storage)": {
        "encoding": "mapping",
        "key": "t_bytes32",
        "label": "mapping(bytes32 => struct AccessControl.RoleData)",
        "numberOfBytes": "32",
        "value": "t_struct(RoleData)338_storage"
      },
      "t_struct(RoleData)338_storage": {
        "encoding": "inplace",
        "label": "struct AccessControl.RoleData",
        "members": [
          {
            "astId": 335,
            "contract": "contracts/L1/gateway/L1Migrator.sol:L1Migrator",
            "label": "members",
            "offset": 0,
            "slot": "0",
            "type": "t_mapping(t_address,t_bool)"
          },
          {
            "astId": 337,
            "contract": "contracts/L1/gateway/L1Migrator.sol:L1Migrator",
            "label": "adminRole",
            "offset": 0,
            "slot": "1",
            "type": "t_bytes32"
          }
        ],
        "numberOfBytes": "64"
      }
    }
  }
}