{
  "address": "0x831C51Cd8A38C3E42D98Acd77F06BF537D29800e",
  "abi": [
    {
      "inputs": [
        {
          "internalType": "address",
          "name": "_l1Router",
          "type": "address"
        },
        {
          "internalType": "address",
          "name": "_l1LPTEscrow",
          "type": "address"
        },
        {
          "internalType": "address",
          "name": "_l1Lpt",
          "type": "address"
        },
        {
          "internalType": "address",
          "name": "_l2Lpt",
          "type": "address"
        },
        {
          "internalType": "address",
          "name": "_inbox",
          "type": "address"
        }
      ],
      "stateMutability": "nonpayable",
      "type": "constructor"
    },
    {
      "anonymous": false,
      "inputs": [
        {
          "indexed": false,
          "internalType": "address",
          "name": "_l1Token",
          "type": "address"
        },
        {
          "indexed": true,
          "internalType": "address",
          "name": "_from",
          "type": "address"
        },
        {
          "indexed": true,
          "internalType": "address",
          "name": "_to",
          "type": "address"
        },
        {
          "indexed": true,
          "internalType": "uint256",
          "name": "_sequenceNumber",
          "type": "uint256"
        },
        {
          "indexed": false,
          "internalType": "uint256",
          "name": "_amount",
          "type": "uint256"
        }
      ],
      "name": "DepositInitiated",
      "type": "event"
    },
    {
      "anonymous": false,
      "inputs": [
        {
          "indexed": false,
          "internalType": "address",
          "name": "account",
          "type": "address"
        }
      ],
      "name": "Paused",
      "type": "event"
    },
    {
      "anonymous": false,
      "inputs": [
        {
          "indexed": true,
          "internalType": "bytes32",
          "name": "role",
          "type": "bytes32"
        },
        {
          "indexed": true,
          "internalType": "bytes32",
          "name": "previousAdminRole",
          "type": "bytes32"
        },
        {
          "indexed": true,
          "internalType": "bytes32",
          "name": "newAdminRole",
          "type": "bytes32"
        }
      ],
      "name": "RoleAdminChanged",
      "type": "event"
    },
    {
      "anonymous": false,
      "inputs": [
        {
          "indexed": true,
          "internalType": "bytes32",
          "name": "role",
          "type": "bytes32"
        },
        {
          "indexed": true,
          "internalType": "address",
          "name": "account",
          "type": "address"
        },
        {
          "indexed": true,
          "internalType": "address",
          "name": "sender",
          "type": "address"
        }
      ],
      "name": "RoleGranted",
      "type": "event"
    },
    {
      "anonymous": false,
      "inputs": [
        {
          "indexed": true,
          "internalType": "bytes32",
          "name": "role",
          "type": "bytes32"
        },
        {
          "indexed": true,
          "internalType": "address",
          "name": "account",
          "type": "address"
        },
        {
          "indexed": true,
          "internalType": "address",
          "name": "sender",
          "type": "address"
        }
      ],
      "name": "RoleRevoked",
      "type": "event"
    },
    {
      "anonymous": false,
      "inputs": [
        {
          "indexed": true,
          "internalType": "address",
          "name": "from",
          "type": "address"
        },
        {
          "indexed": true,
          "internalType": "address",
          "name": "to",
          "type": "address"
        },
        {
          "indexed": true,
          "internalType": "uint256",
          "name": "seqNum",
          "type": "uint256"
        },
        {
          "indexed": false,
          "internalType": "bytes",
          "name": "data",
          "type": "bytes"
        }
      ],
      "name": "TxToL2",
      "type": "event"
    },
    {
      "anonymous": false,
      "inputs": [
        {
          "indexed": false,
          "internalType": "address",
          "name": "account",
          "type": "address"
        }
      ],
      "name": "Unpaused",
      "type": "event"
    },
    {
      "anonymous": false,
      "inputs": [
        {
          "indexed": false,
          "internalType": "address",
          "name": "_l1Token",
          "type": "address"
        },
        {
          "indexed": true,
          "internalType": "address",
          "name": "_from",
          "type": "address"
        },
        {
          "indexed": true,
          "internalType": "address",
          "name": "_to",
          "type": "address"
        },
        {
          "indexed": true,
          "internalType": "uint256",
          "name": "_exitNum",
          "type": "uint256"
        },
        {
          "indexed": false,
          "internalType": "uint256",
          "name": "_amount",
          "type": "uint256"
        }
      ],
      "name": "WithdrawalFinalized",
      "type": "event"
    },
    {
      "inputs": [],
      "name": "DEFAULT_ADMIN_ROLE",
      "outputs": [
        {
          "internalType": "bytes32",
          "name": "",
          "type": "bytes32"
        }
      ],
      "stateMutability": "view",
      "type": "function"
    },
    {
      "inputs": [],
      "name": "GOVERNOR_ROLE",
      "outputs": [
        {
          "internalType": "bytes32",
          "name": "",
          "type": "bytes32"
        }
      ],
      "stateMutability": "view",
      "type": "function"
    },
    {
      "inputs": [
        {
          "internalType": "address",
          "name": "l1Token",
          "type": "address"
        }
      ],
      "name": "calculateL2TokenAddress",
      "outputs": [
        {
          "internalType": "address",
          "name": "",
          "type": "address"
        }
      ],
      "stateMutability": "view",
      "type": "function"
    },
    {
      "inputs": [],
      "name": "counterpartGateway",
      "outputs": [
        {
          "internalType": "address",
          "name": "",
          "type": "address"
        }
      ],
      "stateMutability": "view",
      "type": "function"
    },
    {
      "inputs": [
        {
          "internalType": "address",
          "name": "l1Token",
          "type": "address"
        },
        {
          "internalType": "address",
          "name": "from",
          "type": "address"
        },
        {
          "internalType": "address",
          "name": "to",
          "type": "address"
        },
        {
          "internalType": "uint256",
          "name": "amount",
          "type": "uint256"
        },
        {
          "internalType": "bytes",
          "name": "data",
          "type": "bytes"
        }
      ],
      "name": "finalizeInboundTransfer",
      "outputs": [],
      "stateMutability": "nonpayable",
      "type": "function"
    },
    {
      "inputs": [
        {
          "internalType": "address",
          "name": "l1Token",
          "type": "address"
        },
        {
          "internalType": "address",
          "name": "from",
          "type": "address"
        },
        {
          "internalType": "address",
          "name": "to",
          "type": "address"
        },
        {
          "internalType": "uint256",
          "name": "amount",
          "type": "uint256"
        },
        {
          "internalType": "bytes",
          "name": "data",
          "type": "bytes"
        }
      ],
      "name": "getOutboundCalldata",
      "outputs": [
        {
          "internalType": "bytes",
          "name": "outboundCalldata",
          "type": "bytes"
        }
      ],
      "stateMutability": "pure",
      "type": "function"
    },
    {
      "inputs": [
        {
          "internalType": "bytes32",
          "name": "role",
          "type": "bytes32"
        }
      ],
      "name": "getRoleAdmin",
      "outputs": [
        {
          "internalType": "bytes32",
          "name": "",
          "type": "bytes32"
        }
      ],
      "stateMutability": "view",
      "type": "function"
    },
    {
      "inputs": [
        {
          "internalType": "bytes32",
          "name": "role",
          "type": "bytes32"
        },
        {
          "internalType": "address",
          "name": "account",
          "type": "address"
        }
      ],
      "name": "grantRole",
      "outputs": [],
      "stateMutability": "nonpayable",
      "type": "function"
    },
    {
      "inputs": [
        {
          "internalType": "bytes32",
          "name": "role",
          "type": "bytes32"
        },
        {
          "internalType": "address",
          "name": "account",
          "type": "address"
        }
      ],
      "name": "hasRole",
      "outputs": [
        {
          "internalType": "bool",
          "name": "",
          "type": "bool"
        }
      ],
      "stateMutability": "view",
      "type": "function"
    },
    {
      "inputs": [],
      "name": "inbox",
      "outputs": [
        {
          "internalType": "contract IInbox",
          "name": "",
          "type": "address"
        }
      ],
      "stateMutability": "view",
      "type": "function"
    },
    {
      "inputs": [],
      "name": "l1LPTEscrow",
      "outputs": [
        {
          "internalType": "address",
          "name": "",
          "type": "address"
        }
      ],
      "stateMutability": "view",
      "type": "function"
    },
    {
      "inputs": [],
      "name": "l1Lpt",
      "outputs": [
        {
          "internalType": "address",
          "name": "",
          "type": "address"
        }
      ],
      "stateMutability": "view",
      "type": "function"
    },
    {
      "inputs": [],
      "name": "l1Router",
      "outputs": [
        {
          "internalType": "address",
          "name": "",
          "type": "address"
        }
      ],
      "stateMutability": "view",
      "type": "function"
    },
    {
      "inputs": [],
      "name": "l2Counterpart",
      "outputs": [
        {
          "internalType": "address",
          "name": "",
          "type": "address"
        }
      ],
      "stateMutability": "view",
      "type": "function"
    },
    {
      "inputs": [],
      "name": "l2Lpt",
      "outputs": [
        {
          "internalType": "address",
          "name": "",
          "type": "address"
        }
      ],
      "stateMutability": "view",
      "type": "function"
    },
    {
      "inputs": [],
      "name": "minter",
      "outputs": [
        {
          "internalType": "address",
          "name": "",
          "type": "address"
        }
      ],
      "stateMutability": "view",
      "type": "function"
    },
    {
      "inputs": [
        {
          "internalType": "address",
          "name": "_l1Token",
          "type": "address"
        },
        {
          "internalType": "address",
          "name": "_to",
          "type": "address"
        },
        {
          "internalType": "uint256",
          "name": "_amount",
          "type": "uint256"
        },
        {
          "internalType": "uint256",
          "name": "_maxGas",
          "type": "uint256"
        },
        {
          "internalType": "uint256",
          "name": "_gasPriceBid",
          "type": "uint256"
        },
        {
          "internalType": "bytes",
          "name": "_data",
          "type": "bytes"
        }
      ],
      "name": "outboundTransfer",
      "outputs": [
        {
          "internalType": "bytes",
          "name": "",
          "type": "bytes"
        }
      ],
      "stateMutability": "payable",
      "type": "function"
    },
    {
      "inputs": [],
      "name": "pause",
      "outputs": [],
      "stateMutability": "nonpayable",
      "type": "function"
    },
    {
      "inputs": [],
      "name": "paused",
      "outputs": [
        {
          "internalType": "bool",
          "name": "",
          "type": "bool"
        }
      ],
      "stateMutability": "view",
      "type": "function"
    },
    {
      "inputs": [
        {
          "internalType": "bytes32",
          "name": "role",
          "type": "bytes32"
        },
        {
          "internalType": "address",
          "name": "account",
          "type": "address"
        }
      ],
      "name": "renounceRole",
      "outputs": [],
      "stateMutability": "nonpayable",
      "type": "function"
    },
    {
      "inputs": [
        {
          "internalType": "bytes32",
          "name": "role",
          "type": "bytes32"
        },
        {
          "internalType": "address",
          "name": "account",
          "type": "address"
        }
      ],
      "name": "revokeRole",
      "outputs": [],
      "stateMutability": "nonpayable",
      "type": "function"
    },
    {
      "inputs": [
        {
          "internalType": "address",
          "name": "_l2Counterpart",
          "type": "address"
        }
      ],
      "name": "setCounterpart",
      "outputs": [],
      "stateMutability": "nonpayable",
      "type": "function"
    },
    {
      "inputs": [
        {
          "internalType": "address",
          "name": "_minter",
          "type": "address"
        }
      ],
      "name": "setMinter",
      "outputs": [],
      "stateMutability": "nonpayable",
      "type": "function"
    },
    {
      "inputs": [
        {
          "internalType": "bytes4",
          "name": "interfaceId",
          "type": "bytes4"
        }
      ],
      "name": "supportsInterface",
      "outputs": [
        {
          "internalType": "bool",
          "name": "",
          "type": "bool"
        }
      ],
      "stateMutability": "view",
      "type": "function"
    },
    {
      "inputs": [],
      "name": "unpause",
      "outputs": [],
      "stateMutability": "nonpayable",
      "type": "function"
    }
  ],
  "transactionHash": "0x2d68919ab9004a42bbd761f1a8857a76a7b3cba7e709d70dd4dccc0adfb90919",
  "args": [
    "0x70C143928eCfFaf9F5b406f7f4fC28Dc43d68380",
    "0x192683D5Cb514da2081C543f6887EeaFD76EC64a",
    "0xEf5F154eb0261CB0331a28BC0fB60CA73E716617",
    "0x743b8469e5f54cD765F1954604cD4dfA67b64bF6",
    "0x578BAde599406A8fE3d24Fd7f7211c0911F5B29e"
  ],
  "solcInputHash": "c034c4c5135c3eaa2b471cbf69fd1f2b",
  "bytecode": "0x6101206040523480156200001257600080fd5b50604051620034c8380380620034c88339818101604052810190620000389190620003e3565b8083836000600160006101000a81548160ff0219169083151502179055506200007a6000801b6200006e620001d160201b60201c565b620001d960201b60201c565b620000af7f7935bd0ae54bc31f548c14dba4d37c5c64b3f8ca900cb468fb8abd54d5894f556000801b620001ef60201b60201c565b8173ffffffffffffffffffffffffffffffffffffffff1660808173ffffffffffffffffffffffffffffffffffffffff1660601b815250508073ffffffffffffffffffffffffffffffffffffffff1660a08173ffffffffffffffffffffffffffffffffffffffff1660601b8152505050508073ffffffffffffffffffffffffffffffffffffffff1660c08173ffffffffffffffffffffffffffffffffffffffff1660601b81525050508473ffffffffffffffffffffffffffffffffffffffff1660e08173ffffffffffffffffffffffffffffffffffffffff1660601b815250508373ffffffffffffffffffffffffffffffffffffffff166101008173ffffffffffffffffffffffffffffffffffffffff1660601b815250505050505050620004b3565b600033905090565b620001eb82826200025260201b60201c565b5050565b600062000202836200034360201b60201c565b905081600080858152602001908152602001600020600101819055508181847fbd79b86ffe0ab8e8776151514217cd7cacd52c909f66475c3af44e129f0b00ff60405160405180910390a4505050565b6200026482826200036260201b60201c565b6200033f57600160008084815260200190815260200160002060000160008373ffffffffffffffffffffffffffffffffffffffff1673ffffffffffffffffffffffffffffffffffffffff16815260200190815260200160002060006101000a81548160ff021916908315150217905550620002e4620001d160201b60201c565b73ffffffffffffffffffffffffffffffffffffffff168173ffffffffffffffffffffffffffffffffffffffff16837f2f8788117e7eff1d82e926ec794901d17c78024a50270940304540a733656f0d60405160405180910390a45b5050565b6000806000838152602001908152602001600020600101549050919050565b600080600084815260200190815260200160002060000160008373ffffffffffffffffffffffffffffffffffffffff1673ffffffffffffffffffffffffffffffffffffffff16815260200190815260200160002060009054906101000a900460ff16905092915050565b600081519050620003dd8162000499565b92915050565b600080600080600060a08688031215620003fc57600080fd5b60006200040c88828901620003cc565b95505060206200041f88828901620003cc565b94505060406200043288828901620003cc565b93505060606200044588828901620003cc565b92505060806200045888828901620003cc565b9150509295509295909350565b6000620004728262000479565b9050919050565b600073ffffffffffffffffffffffffffffffffffffffff82169050919050565b620004a48162000465565b8114620004b057600080fd5b50565b60805160601c60a05160601c60c05160601c60e05160601c6101005160601c612f746200055460003960008181610a3401528181610ae601528181610ba401528181610e6d0152611302015260008181610e32015261194d0152600081816106f9015281816114990152611d08015260008181610fd2015261111c01526000818161064501528181610974015281816110c001526111b30152612f746000f3fe6080604052600436106101665760003560e01c806377061e4d116100d1578063a217fddf1161008a578063d2ce7d6511610064578063d2ce7d651461051c578063d547741f1461054c578063fb0e722b14610575578063fca3b5aa146105a057610166565b8063a217fddf14610489578063a7e28d48146104b4578063ccc57490146104f157610166565b806377061e4d146103795780638456cb59146103a25780638e7c8efe146103b957806391d14854146103e45780639d79bdb514610421578063a0c76a961461044c57610166565b80632f2ff15d116101235780632f2ff15d1461028f57806336568abe146102b85780633f4ba83a146102e1578063407395e0146102f85780635c975abb1461032357806362dcefbb1461034e57610166565b806301ffc9a71461016b57806307256677146101a857806307546172146101d3578063248a9ca3146101fe5780632db09c1c1461023b5780632e567b3614610266575b600080fd5b34801561017757600080fd5b50610192600480360381019061018d91906122f6565b6105c9565b60405161019f91906127d0565b60405180910390f35b3480156101b457600080fd5b506101bd610643565b6040516101ca9190612676565b60405180910390f35b3480156101df57600080fd5b506101e8610667565b6040516101f59190612676565b60405180910390f35b34801561020a57600080fd5b5061022560048036038101906102209190612291565b61068d565b60405161023291906127eb565b60405180910390f35b34801561024757600080fd5b506102506106ac565b60405161025d9190612676565b60405180910390f35b34801561027257600080fd5b5061028d600480360381019061028891906120a0565b6106d4565b005b34801561029b57600080fd5b506102b660048036038101906102b191906122ba565b610d47565b005b3480156102c457600080fd5b506102df60048036038101906102da91906122ba565b610d70565b005b3480156102ed57600080fd5b506102f6610df3565b005b34801561030457600080fd5b5061030d610e30565b60405161031a9190612676565b60405180910390f35b34801561032f57600080fd5b50610338610e54565b60405161034591906127d0565b60405180910390f35b34801561035a57600080fd5b50610363610e6b565b6040516103709190612676565b60405180910390f35b34801561038557600080fd5b506103a0600480360381019061039b9190611ffa565b610e8f565b005b3480156103ae57600080fd5b506103b7610f05565b005b3480156103c557600080fd5b506103ce610f42565b6040516103db9190612676565b60405180910390f35b3480156103f057600080fd5b5061040b600480360381019061040691906122ba565b610f66565b60405161041891906127d0565b60405180910390f35b34801561042d57600080fd5b50610436610fd0565b6040516104439190612676565b60405180910390f35b34801561045857600080fd5b50610473600480360381019061046e9190612132565b610ff4565b6040516104809190612806565b60405180910390f35b34801561049557600080fd5b5061049e6110b5565b6040516104ab91906127eb565b60405180910390f35b3480156104c057600080fd5b506104db60048036038101906104d69190611ffa565b6110bc565b6040516104e89190612676565b60405180910390f35b3480156104fd57600080fd5b50610506611143565b60405161051391906127eb565b60405180910390f35b610536600480360381019061053191906121c1565b611167565b6040516105439190612806565b60405180910390f35b34801561055857600080fd5b50610573600480360381019061056e91906122ba565b61146e565b005b34801561058157600080fd5b5061058a611497565b604051610597919061285f565b60405180910390f35b3480156105ac57600080fd5b506105c760048036038101906105c29190611ffa565b6114bb565b005b60007f7965db0b000000000000000000000000000000000000000000000000000000007bffffffffffffffffffffffffffffffffffffffffffffffffffffffff1916827bffffffffffffffffffffffffffffffffffffffffffffffffffffffff1916148061063c575061063b82611532565b5b9050919050565b7f000000000000000000000000000000000000000000000000000000000000000081565b600260009054906101000a900473ffffffffffffffffffffffffffffffffffffffff1681565b6000806000838152602001908152602001600020600101549050919050565b600060018054906101000a900473ffffffffffffffffffffffffffffffffffffffff16905090565b60018054906101000a900473ffffffffffffffffffffffffffffffffffffffff1660007f000000000000000000000000000000000000000000000000000000000000000073ffffffffffffffffffffffffffffffffffffffff1663e78cea926040518163ffffffff1660e01b815260040160206040518083038186803b15801561075d57600080fd5b505afa158015610771573d6000803e3d6000fd5b505050506040513d601f19601f820116820180604052508101906107959190612023565b90508073ffffffffffffffffffffffffffffffffffffffff163373ffffffffffffffffffffffffffffffffffffffff1614610805576040517f08c379a00000000000000000000000000000000000000000000000000000000081526004016107fc906128dc565b60405180910390fd5b60008173ffffffffffffffffffffffffffffffffffffffff1663ab5d89436040518163ffffffff1660e01b815260040160206040518083038186803b15801561084d57600080fd5b505afa158015610861573d6000803e3d6000fd5b505050506040513d601f19601f820116820180604052508101906108859190612023565b73ffffffffffffffffffffffffffffffffffffffff166380648b026040518163ffffffff1660e01b815260040160206040518083038186803b1580156108ca57600080fd5b505afa1580156108de573d6000803e3d6000fd5b505050506040513d601f19601f820116820180604052508101906109029190612023565b90508273ffffffffffffffffffffffffffffffffffffffff168173ffffffffffffffffffffffffffffffffffffffff1614610972576040517f08c379a00000000000000000000000000000000000000000000000000000000081526004016109699061295c565b60405180910390fd5b7f000000000000000000000000000000000000000000000000000000000000000073ffffffffffffffffffffffffffffffffffffffff168973ffffffffffffffffffffffffffffffffffffffff1614610a00576040517f08c379a00000000000000000000000000000000000000000000000000000000081526004016109f7906128fc565b60405180910390fd5b60008585810190610a119190612348565b50905060008a73ffffffffffffffffffffffffffffffffffffffff166370a082317f00000000000000000000000000000000000000000000000000000000000000006040518263ffffffff1660e01b8152600401610a6f9190612676565b60206040518083038186803b158015610a8757600080fd5b505afa158015610a9b573d6000803e3d6000fd5b505050506040513d601f19601f82011682018060405250810190610abf919061231f565b9050808811610b7d578a73ffffffffffffffffffffffffffffffffffffffff166323b872dd7f00000000000000000000000000000000000000000000000000000000000000008b8b6040518463ffffffff1660e01b8152600401610b25939291906126eb565b602060405180830381600087803b158015610b3f57600080fd5b505af1158015610b53573d6000803e3d6000fd5b505050506040513d601f19601f82011682018060405250810190610b779190612268565b50610cd2565b6000811115610c37578a73ffffffffffffffffffffffffffffffffffffffff166323b872dd7f00000000000000000000000000000000000000000000000000000000000000008b846040518463ffffffff1660e01b8152600401610be3939291906126eb565b602060405180830381600087803b158015610bfd57600080fd5b505af1158015610c11573d6000803e3d6000fd5b505050506040513d601f19601f82011682018060405250810190610c359190612268565b505b600260009054906101000a900473ffffffffffffffffffffffffffffffffffffffff1673ffffffffffffffffffffffffffffffffffffffff16638c2a993e8a838b610c829190612b00565b6040518363ffffffff1660e01b8152600401610c9f929190612722565b600060405180830381600087803b158015610cb957600080fd5b505af1158015610ccd573d6000803e3d6000fd5b505050505b818973ffffffffffffffffffffffffffffffffffffffff168b73ffffffffffffffffffffffffffffffffffffffff167f891afe029c75c4f8c5855fc3480598bc5a53739344f6ae575bdb7ea2a79f56b38e8c604051610d32929190612722565b60405180910390a45050505050505050505050565b610d508261068d565b610d6181610d5c61159c565b6115a4565b610d6b8383611641565b505050565b610d7861159c565b73ffffffffffffffffffffffffffffffffffffffff168173ffffffffffffffffffffffffffffffffffffffff1614610de5576040517f08c379a0000000000000000000000000000000000000000000000000000000008152600401610ddc9061297c565b60405180910390fd5b610def8282611721565b5050565b7f7935bd0ae54bc31f548c14dba4d37c5c64b3f8ca900cb468fb8abd54d5894f55610e2581610e2061159c565b6115a4565b610e2d611802565b50565b7f000000000000000000000000000000000000000000000000000000000000000081565b6000600160009054906101000a900460ff16905090565b7f000000000000000000000000000000000000000000000000000000000000000081565b7f7935bd0ae54bc31f548c14dba4d37c5c64b3f8ca900cb468fb8abd54d5894f55610ec181610ebc61159c565b6115a4565b816001806101000a81548173ffffffffffffffffffffffffffffffffffffffff021916908373ffffffffffffffffffffffffffffffffffffffff1602179055505050565b7f7935bd0ae54bc31f548c14dba4d37c5c64b3f8ca900cb468fb8abd54d5894f55610f3781610f3261159c565b6115a4565b610f3f6118a4565b50565b60018054906101000a900473ffffffffffffffffffffffffffffffffffffffff1681565b600080600084815260200190815260200160002060000160008373ffffffffffffffffffffffffffffffffffffffff1673ffffffffffffffffffffffffffffffffffffffff16815260200190815260200160002060009054906101000a900460ff16905092915050565b7f000000000000000000000000000000000000000000000000000000000000000081565b60606000604051806020016040528060008152509050632e567b3660e01b878787878588604051602001611029929190612828565b60405160208183030381529060405260405160240161104c959493929190612691565b604051602081830303815290604052907bffffffffffffffffffffffffffffffffffffffffffffffffffffffff19166020820180517bffffffffffffffffffffffffffffffffffffffffffffffffffffffff838183161783525050505091505095945050505050565b6000801b81565b60007f000000000000000000000000000000000000000000000000000000000000000073ffffffffffffffffffffffffffffffffffffffff168273ffffffffffffffffffffffffffffffffffffffff161461111a576000905061113e565b7f000000000000000000000000000000000000000000000000000000000000000090505b919050565b7f7935bd0ae54bc31f548c14dba4d37c5c64b3f8ca900cb468fb8abd54d5894f5581565b6060611171610e54565b156111b1576040517f08c379a00000000000000000000000000000000000000000000000000000000081526004016111a89061291c565b60405180910390fd5b7f000000000000000000000000000000000000000000000000000000000000000073ffffffffffffffffffffffffffffffffffffffff168873ffffffffffffffffffffffffffffffffffffffff161461123f576040517f08c379a0000000000000000000000000000000000000000000000000000000008152600401611236906128fc565b60405180910390fd5b6000806060600061129387878080601f016020809104026020016040519081016040528093929190818152602001838380828437600081840152601f19601f82011690508083019250505050505050611946565b80945081935082965050505060008251146112e3576040517f08c379a00000000000000000000000000000000000000000000000000000000081526004016112da9061293c565b60405180910390fd5b8b73ffffffffffffffffffffffffffffffffffffffff166323b872dd857f00000000000000000000000000000000000000000000000000000000000000008d6040518463ffffffff1660e01b8152600401611340939291906126eb565b602060405180830381600087803b15801561135a57600080fd5b505af115801561136e573d6000803e3d6000fd5b505050506040513d601f19601f820116820180604052508101906113929190612268565b5060006113a28d868e8e87610ff4565b90506113d260018054906101000a900473ffffffffffffffffffffffffffffffffffffffff1686848d8d866119ea565b93505050818a73ffffffffffffffffffffffffffffffffffffffff168473ffffffffffffffffffffffffffffffffffffffff167fb8910b9960c443aac3240b98585384e3a6f109fbf6969e264c3f183d69aba7e18e8d604051611436929190612722565b60405180910390a48160405160200161144f919061299c565b6040516020818303038152906040529350505050979650505050505050565b6114778261068d565b6114888161148361159c565b6115a4565b6114928383611721565b505050565b7f000000000000000000000000000000000000000000000000000000000000000081565b7f7935bd0ae54bc31f548c14dba4d37c5c64b3f8ca900cb468fb8abd54d5894f556114ed816114e861159c565b6115a4565b81600260006101000a81548173ffffffffffffffffffffffffffffffffffffffff021916908373ffffffffffffffffffffffffffffffffffffffff1602179055505050565b60007f01ffc9a7000000000000000000000000000000000000000000000000000000007bffffffffffffffffffffffffffffffffffffffffffffffffffffffff1916827bffffffffffffffffffffffffffffffffffffffffffffffffffffffff1916149050919050565b600033905090565b6115ae8282610f66565b61163d576115d38173ffffffffffffffffffffffffffffffffffffffff166014611a09565b6115e18360001c6020611a09565b6040516020016115f292919061263c565b6040516020818303038152906040526040517f08c379a0000000000000000000000000000000000000000000000000000000008152600401611634919061287a565b60405180910390fd5b5050565b61164b8282610f66565b61171d57600160008084815260200190815260200160002060000160008373ffffffffffffffffffffffffffffffffffffffff1673ffffffffffffffffffffffffffffffffffffffff16815260200190815260200160002060006101000a81548160ff0219169083151502179055506116c261159c565b73ffffffffffffffffffffffffffffffffffffffff168173ffffffffffffffffffffffffffffffffffffffff16837f2f8788117e7eff1d82e926ec794901d17c78024a50270940304540a733656f0d60405160405180910390a45b5050565b61172b8282610f66565b156117fe57600080600084815260200190815260200160002060000160008373ffffffffffffffffffffffffffffffffffffffff1673ffffffffffffffffffffffffffffffffffffffff16815260200190815260200160002060006101000a81548160ff0219169083151502179055506117a361159c565b73ffffffffffffffffffffffffffffffffffffffff168173ffffffffffffffffffffffffffffffffffffffff16837ff6391f5c32d9c69d2a47ea670b442974b53935d1edc7fd64eb21e047a839171b60405160405180910390a45b5050565b61180a610e54565b611849576040517f08c379a0000000000000000000000000000000000000000000000000000000008152600401611840906128bc565b60405180910390fd5b6000600160006101000a81548160ff0219169083151502179055507f5db9ee0a495bf2e6ff9c91a7834c1ba4fdd244a5e8aa4e537bd38aeae4b073aa61188d61159c565b60405161189a9190612676565b60405180910390a1565b6118ac610e54565b156118ec576040517f08c379a00000000000000000000000000000000000000000000000000000000081526004016118e39061291c565b60405180910390fd5b60018060006101000a81548160ff0219169083151502179055507f62e78cea01bee320cd4e420270b5ea74000d11b0c9f74754ebdbfc544b05a25861192f61159c565b60405161193c9190612676565b60405180910390a1565b60008060607f000000000000000000000000000000000000000000000000000000000000000073ffffffffffffffffffffffffffffffffffffffff163373ffffffffffffffffffffffffffffffffffffffff1614156119c057838060200190518101906119b3919061204c565b80925081945050506119c7565b3392508390505b808060200190518101906119db919061239c565b80925081935050509193909250565b60006119fd878734600089898989611d03565b90509695505050505050565b606060006002836002611a1c9190612aa6565b611a269190612a50565b67ffffffffffffffff811115611a65577f4e487b7100000000000000000000000000000000000000000000000000000000600052604160045260246000fd5b6040519080825280601f01601f191660200182016040528015611a975781602001600182028036833780820191505090505b5090507f300000000000000000000000000000000000000000000000000000000000000081600081518110611af5577f4e487b7100000000000000000000000000000000000000000000000000000000600052603260045260246000fd5b60200101907effffffffffffffffffffffffffffffffffffffffffffffffffffffffffffff1916908160001a9053507f780000000000000000000000000000000000000000000000000000000000000081600181518110611b7f577f4e487b7100000000000000000000000000000000000000000000000000000000600052603260045260246000fd5b60200101907effffffffffffffffffffffffffffffffffffffffffffffffffffffffffffff1916908160001a90535060006001846002611bbf9190612aa6565b611bc99190612a50565b90505b6001811115611cb5577f3031323334353637383961626364656600000000000000000000000000000000600f861660108110611c31577f4e487b7100000000000000000000000000000000000000000000000000000000600052603260045260246000fd5b1a60f81b828281518110611c6e577f4e487b7100000000000000000000000000000000000000000000000000000000600052603260045260246000fd5b60200101907effffffffffffffffffffffffffffffffffffffffffffffffffffffffffffff1916908160001a905350600485901c945080611cae90612c2a565b9050611bcc565b5060008414611cf9576040517f08c379a0000000000000000000000000000000000000000000000000000000008152600401611cf09061289c565b60405180910390fd5b8091505092915050565b6000807f000000000000000000000000000000000000000000000000000000000000000073ffffffffffffffffffffffffffffffffffffffff1663679b6ded898c8a8a8e8f8c8c8c6040518a63ffffffff1660e01b8152600401611d6e98979695949392919061274b565b6020604051808303818588803b158015611d8757600080fd5b505af1158015611d9b573d6000803e3d6000fd5b50505050506040513d601f19601f82011682018060405250810190611dc0919061231f565b9050808a73ffffffffffffffffffffffffffffffffffffffff168a73ffffffffffffffffffffffffffffffffffffffff167fc1d1490cf25c3b40d600dfb27c7680340ed1ab901b7e8f3551280968a3b372b086604051611e209190612806565b60405180910390a48091505098975050505050505050565b6000611e4b611e46846129dc565b6129b7565b905082815260208101848484011115611e6357600080fd5b611e6e848285612be8565b509392505050565b6000611e89611e84846129dc565b6129b7565b905082815260208101848484011115611ea157600080fd5b611eac848285612bf7565b509392505050565b600081359050611ec381612eb4565b92915050565b600081519050611ed881612eb4565b92915050565b600081519050611eed81612ecb565b92915050565b600081519050611f0281612ee2565b92915050565b600081359050611f1781612ef9565b92915050565b600081359050611f2c81612f10565b92915050565b60008083601f840112611f4457600080fd5b8235905067ffffffffffffffff811115611f5d57600080fd5b602083019150836001820283011115611f7557600080fd5b9250929050565b600082601f830112611f8d57600080fd5b8135611f9d848260208601611e38565b91505092915050565b600082601f830112611fb757600080fd5b8151611fc7848260208601611e76565b91505092915050565b600081359050611fdf81612f27565b92915050565b600081519050611ff481612f27565b92915050565b60006020828403121561200c57600080fd5b600061201a84828501611eb4565b91505092915050565b60006020828403121561203557600080fd5b600061204384828501611ec9565b91505092915050565b6000806040838503121561205f57600080fd5b600061206d85828601611ede565b925050602083015167ffffffffffffffff81111561208a57600080fd5b61209685828601611fa6565b9150509250929050565b60008060008060008060a087890312156120b957600080fd5b60006120c789828a01611eb4565b96505060206120d889828a01611eb4565b95505060406120e989828a01611eb4565b94505060606120fa89828a01611fd0565b935050608087013567ffffffffffffffff81111561211757600080fd5b61212389828a01611f32565b92509250509295509295509295565b600080600080600060a0868803121561214a57600080fd5b600061215888828901611eb4565b955050602061216988828901611eb4565b945050604061217a88828901611eb4565b935050606061218b88828901611fd0565b925050608086013567ffffffffffffffff8111156121a857600080fd5b6121b488828901611f7c565b9150509295509295909350565b600080600080600080600060c0888a0312156121dc57600080fd5b60006121ea8a828b01611eb4565b97505060206121fb8a828b01611eb4565b965050604061220c8a828b01611fd0565b955050606061221d8a828b01611fd0565b945050608061222e8a828b01611fd0565b93505060a088013567ffffffffffffffff81111561224b57600080fd5b6122578a828b01611f32565b925092505092959891949750929550565b60006020828403121561227a57600080fd5b600061228884828501611ef3565b91505092915050565b6000602082840312156122a357600080fd5b60006122b184828501611f08565b91505092915050565b600080604083850312156122cd57600080fd5b60006122db85828601611f08565b92505060206122ec85828601611eb4565b9150509250929050565b60006020828403121561230857600080fd5b600061231684828501611f1d565b91505092915050565b60006020828403121561233157600080fd5b600061233f84828501611fe5565b91505092915050565b6000806040838503121561235b57600080fd5b600061236985828601611fd0565b925050602083013567ffffffffffffffff81111561238657600080fd5b61239285828601611f7c565b9150509250929050565b600080604083850312156123af57600080fd5b60006123bd85828601611fe5565b925050602083015167ffffffffffffffff8111156123da57600080fd5b6123e685828601611fa6565b9150509250929050565b6123f981612b34565b82525050565b61240881612b58565b82525050565b61241781612b64565b82525050565b600061242882612a0d565b6124328185612a23565b9350612442818560208601612bf7565b61244b81612ce3565b840191505092915050565b61245f81612bc4565b82525050565b600061247082612a18565b61247a8185612a34565b935061248a818560208601612bf7565b61249381612ce3565b840191505092915050565b60006124a982612a18565b6124b38185612a45565b93506124c3818560208601612bf7565b80840191505092915050565b60006124dc602083612a34565b91506124e782612cf4565b602082019050919050565b60006124ff601483612a34565b915061250a82612d1d565b602082019050919050565b6000612522600f83612a34565b915061252d82612d46565b602082019050919050565b6000612545600d83612a34565b915061255082612d6f565b602082019050919050565b6000612568601083612a34565b915061257382612d98565b602082019050919050565b600061258b601a83612a34565b915061259682612dc1565b602082019050919050565b60006125ae601783612a45565b91506125b982612dea565b601782019050919050565b60006125d1601883612a34565b91506125dc82612e13565b602082019050919050565b60006125f4601183612a45565b91506125ff82612e3c565b601182019050919050565b6000612617602f83612a34565b915061262282612e65565b604082019050919050565b61263681612bba565b82525050565b6000612647826125a1565b9150612653828561249e565b915061265e826125e7565b915061266a828461249e565b91508190509392505050565b600060208201905061268b60008301846123f0565b92915050565b600060a0820190506126a660008301886123f0565b6126b360208301876123f0565b6126c060408301866123f0565b6126cd606083018561262d565b81810360808301526126df818461241d565b90509695505050505050565b600060608201905061270060008301866123f0565b61270d60208301856123f0565b61271a604083018461262d565b949350505050565b600060408201905061273760008301856123f0565b612744602083018461262d565b9392505050565b600061010082019050612761600083018b6123f0565b61276e602083018a61262d565b61277b604083018961262d565b61278860608301886123f0565b61279560808301876123f0565b6127a260a083018661262d565b6127af60c083018561262d565b81810360e08301526127c1818461241d565b90509998505050505050505050565b60006020820190506127e560008301846123ff565b92915050565b6000602082019050612800600083018461240e565b92915050565b60006020820190508181036000830152612820818461241d565b905092915050565b60006040820190508181036000830152612842818561241d565b90508181036020830152612856818461241d565b90509392505050565b60006020820190506128746000830184612456565b92915050565b600060208201905081810360008301526128948184612465565b905092915050565b600060208201905081810360008301526128b5816124cf565b9050919050565b600060208201905081810360008301526128d5816124f2565b9050919050565b600060208201905081810360008301526128f581612515565b9050919050565b6000602082019050818103600083015261291581612538565b9050919050565b600060208201905081810360008301526129358161255b565b9050919050565b600060208201905081810360008301526129558161257e565b9050919050565b60006020820190508181036000830152612975816125c4565b9050919050565b600060208201905081810360008301526129958161260a565b9050919050565b60006020820190506129b1600083018461262d565b92915050565b60006129c16129d2565b90506129cd8282612c54565b919050565b6000604051905090565b600067ffffffffffffffff8211156129f7576129f6612cb4565b5b612a0082612ce3565b9050602081019050919050565b600081519050919050565b600081519050919050565b600082825260208201905092915050565b600082825260208201905092915050565b600081905092915050565b6000612a5b82612bba565b9150612a6683612bba565b9250827fffffffffffffffffffffffffffffffffffffffffffffffffffffffffffffffff03821115612a9b57612a9a612c85565b5b828201905092915050565b6000612ab182612bba565b9150612abc83612bba565b9250817fffffffffffffffffffffffffffffffffffffffffffffffffffffffffffffffff0483118215151615612af557612af4612c85565b5b828202905092915050565b6000612b0b82612bba565b9150612b1683612bba565b925082821015612b2957612b28612c85565b5b828203905092915050565b6000612b3f82612b9a565b9050919050565b6000612b5182612b9a565b9050919050565b60008115159050919050565b6000819050919050565b60007fffffffff0000000000000000000000000000000000000000000000000000000082169050919050565b600073ffffffffffffffffffffffffffffffffffffffff82169050919050565b6000819050919050565b6000612bcf82612bd6565b9050919050565b6000612be182612b9a565b9050919050565b82818337600083830152505050565b60005b83811015612c15578082015181840152602081019050612bfa565b83811115612c24576000848401525b50505050565b6000612c3582612bba565b91506000821415612c4957612c48612c85565b5b600182039050919050565b612c5d82612ce3565b810181811067ffffffffffffffff82111715612c7c57612c7b612cb4565b5b80604052505050565b7f4e487b7100000000000000000000000000000000000000000000000000000000600052601160045260246000fd5b7f4e487b7100000000000000000000000000000000000000000000000000000000600052604160045260246000fd5b6000601f19601f8301169050919050565b7f537472696e67733a20686578206c656e67746820696e73756666696369656e74600082015250565b7f5061757361626c653a206e6f7420706175736564000000000000000000000000600082015250565b7f4e4f545f46524f4d5f4252494447450000000000000000000000000000000000600082015250565b7f544f4b454e5f4e4f545f4c505400000000000000000000000000000000000000600082015250565b7f5061757361626c653a2070617573656400000000000000000000000000000000600082015250565b7f43414c4c5f484f4f4b5f444154415f4e4f545f414c4c4f574544000000000000600082015250565b7f416363657373436f6e74726f6c3a206163636f756e7420000000000000000000600082015250565b7f4f4e4c595f434f554e544552504152545f474154455741590000000000000000600082015250565b7f206973206d697373696e6720726f6c6520000000000000000000000000000000600082015250565b7f416363657373436f6e74726f6c3a2063616e206f6e6c792072656e6f756e636560008201527f20726f6c657320666f722073656c660000000000000000000000000000000000602082015250565b612ebd81612b34565b8114612ec857600080fd5b50565b612ed481612b46565b8114612edf57600080fd5b50565b612eeb81612b58565b8114612ef657600080fd5b50565b612f0281612b64565b8114612f0d57600080fd5b50565b612f1981612b6e565b8114612f2457600080fd5b50565b612f3081612bba565b8114612f3b57600080fd5b5056fea26469706673582212207b384833f9b6650b2a23179a5473f53ef5c267904822e0ff9e22bf2b3e7f60b264736f6c63430008040033",
  "devdoc": {
    "details": "the contract can be paused by the governor which will prevent any outbound transfers but pausing the contract does not affect inbound transfers (tokens coming from L2)",
    "kind": "dev",
    "methods": {
      "finalizeInboundTransfer(address,address,address,uint256,bytes)": {
        "details": "can only accept txs coming directly from L2 LPT Gateway",
        "params": {
          "amount": "Amount of tokens transferred",
          "data": "Contains exitNum which is always set to 0",
          "from": "Address of the sender",
          "l1Token": "L1 Address of LPT",
          "to": "Recepient address on L1"
        }
      },
      "getOutboundCalldata(address,address,address,uint256,bytes)": {
        "details": "encodes the target function with its params which will be called on L2 when the retryable ticket is redeemed"
      },
      "getRoleAdmin(bytes32)": {
        "details": "Returns the admin role that controls `role`. See {grantRole} and {revokeRole}. To change a role's admin, use {_setRoleAdmin}."
      },
      "grantRole(bytes32,address)": {
        "details": "Grants `role` to `account`. If `account` had not been already granted `role`, emits a {RoleGranted} event. Requirements: - the caller must have ``role``'s admin role."
      },
      "hasRole(bytes32,address)": {
        "details": "Returns `true` if `account` has been granted `role`."
      },
      "outboundTransfer(address,address,uint256,uint256,uint256,bytes)": {
        "details": "maxGas and gasPriceBid must be set using arbitrum's Inbox.estimateRetryableTicket method.",
        "params": {
          "_amount": "Amount of tokens to tranfer",
          "_data": "Encoded maxSubmission cost and sender address along with additional calldata",
          "_gasPriceBid": "Price per gas on L2",
          "_l1Token": "L1 Address of LPT",
          "_maxGas": "Gas limit for L2 execution of the ticket",
          "_to": "Recepient address on L2"
        },
        "returns": {
          "_0": "seqNum Sequence number of the retryable ticket created by Inbox"
        }
      },
      "paused()": {
        "details": "Returns true if the contract is paused, and false otherwise."
      },
      "renounceRole(bytes32,address)": {
        "details": "Revokes `role` from the calling account. Roles are often managed via {grantRole} and {revokeRole}: this function's purpose is to provide a mechanism for accounts to lose their privileges if they are compromised (such as when a trusted device is misplaced). If the calling account had been granted `role`, emits a {RoleRevoked} event. Requirements: - the caller must be `account`."
      },
      "revokeRole(bytes32,address)": {
        "details": "Revokes `role` from `account`. If `account` had been granted `role`, emits a {RoleRevoked} event. Requirements: - the caller must have ``role``'s admin role."
      },
      "setCounterpart(address)": {
        "details": "Only address with the governor role is allowed to change the value of l2Counterpart",
        "params": {
          "_l2Counterpart": "L2 Address of the counterpart"
        }
      },
      "setMinter(address)": {
        "details": "Only address with the governor role is allowed to change the value of minter",
        "params": {
          "_minter": "L1 Address of minter"
        }
      },
      "supportsInterface(bytes4)": {
        "details": "See {IERC165-supportsInterface}."
      }
    },
    "title": "L1LPTGateway",
    "version": 1
  },
  "userdoc": {
    "kind": "user",
    "methods": {
      "calculateL2TokenAddress(address)": {
        "notice": "returns address of L2 version of LPT"
      },
      "counterpartGateway()": {
        "notice": "returns address of L2 LPT Gateway"
      },
      "finalizeInboundTransfer(address,address,address,uint256,bytes)": {
        "notice": "Receives withdrawn token amount from L2 The equivalent tokens are released from the Escrow contract and sent to the destination In case the escrow doesn't have enough balance, new tokens are minted"
      },
      "getOutboundCalldata(address,address,address,uint256,bytes)": {
        "notice": "Creates calldata required to create a retryable ticket"
      },
      "outboundTransfer(address,address,uint256,uint256,uint256,bytes)": {
        "notice": "Creates and sends a retryable ticket to migrate LPT to L2 using arbitrum Inbox. The tokens are sent to the Escrow contract for safekeeping until they are withdrawn The ticket must be redeemed on L2 to receive tokens at the specified address."
      },
      "setCounterpart(address)": {
        "notice": "Sets address of companion L2LPTGateway"
      },
      "setMinter(address)": {
        "notice": "Sets address of Minter"
      }
    },
    "notice": "Manages inbound and outbound transfers of LPT between L1 and Arbitrum Rollup",
    "version": 1
  },
  "storageLayout": {
    "storage": [
      {
        "astId": 343,
        "contract": "contracts/L1/gateway/L1LPTGateway.sol:L1LPTGateway",
        "label": "_roles",
        "offset": 0,
        "slot": "0",
        "type": "t_mapping(t_bytes32,t_struct(RoleData)338_storage)"
      },
      {
        "astId": 900,
        "contract": "contracts/L1/gateway/L1LPTGateway.sol:L1LPTGateway",
        "label": "_paused",
        "offset": 0,
        "slot": "1",
        "type": "t_bool"
      },
      {
        "astId": 3239,
        "contract": "contracts/L1/gateway/L1LPTGateway.sol:L1LPTGateway",
        "label": "l2Counterpart",
        "offset": 1,
        "slot": "1",
        "type": "t_address"
      },
      {
        "astId": 3241,
        "contract": "contracts/L1/gateway/L1LPTGateway.sol:L1LPTGateway",
        "label": "minter",
        "offset": 0,
        "slot": "2",
        "type": "t_address"
      }
    ],
    "types": {
      "t_address": {
        "encoding": "inplace",
        "label": "address",
        "numberOfBytes": "20"
      },
      "t_bool": {
        "encoding": "inplace",
        "label": "bool",
        "numberOfBytes": "1"
      },
      "t_bytes32": {
        "encoding": "inplace",
        "label": "bytes32",
        "numberOfBytes": "32"
      },
      "t_mapping(t_address,t_bool)": {
        "encoding": "mapping",
        "key": "t_address",
        "label": "mapping(address => bool)",
        "numberOfBytes": "32",
        "value": "t_bool"
      },
      "t_mapping(t_bytes32,t_struct(RoleData)338_storage)": {
        "encoding": "mapping",
        "key": "t_bytes32",
        "label": "mapping(bytes32 => struct AccessControl.RoleData)",
        "numberOfBytes": "32",
        "value": "t_struct(RoleData)338_storage"
      },
      "t_struct(RoleData)338_storage": {
        "encoding": "inplace",
        "label": "struct AccessControl.RoleData",
        "members": [
          {
            "astId": 335,
            "contract": "contracts/L1/gateway/L1LPTGateway.sol:L1LPTGateway",
            "label": "members",
            "offset": 0,
            "slot": "0",
            "type": "t_mapping(t_address,t_bool)"
          },
          {
            "astId": 337,
            "contract": "contracts/L1/gateway/L1LPTGateway.sol:L1LPTGateway",
            "label": "adminRole",
            "offset": 0,
            "slot": "1",
            "type": "t_bytes32"
          }
        ],
        "numberOfBytes": "64"
      }
    }
  }
}