{
  "address": "0x7cfB164BDdB051da1CF6d66B1395dA0FBB18E749",
  "abi": [
    {
      "inputs": [
        {
          "internalType": "address",
          "name": "_inbox",
          "type": "address"
        },
        {
          "internalType": "address",
          "name": "_bondingManagerAddr",
          "type": "address"
        },
        {
          "internalType": "address",
          "name": "_ticketBrokerAddr",
          "type": "address"
        },
        {
          "internalType": "address",
          "name": "_l2MigratorAddr",
          "type": "address"
        }
      ],
      "stateMutability": "nonpayable",
      "type": "constructor"
    },
    {
      "anonymous": false,
      "inputs": [
        {
          "indexed": true,
          "internalType": "uint256",
          "name": "seqNo",
          "type": "uint256"
        },
        {
          "components": [
            {
              "internalType": "address",
              "name": "l1Addr",
              "type": "address"
            },
            {
              "internalType": "address",
              "name": "l2Addr",
              "type": "address"
            },
            {
              "internalType": "uint256",
              "name": "stake",
              "type": "uint256"
            },
            {
              "internalType": "uint256",
              "name": "delegatedStake",
              "type": "uint256"
            },
            {
              "internalType": "uint256",
              "name": "fees",
              "type": "uint256"
            },
            {
              "internalType": "address",
              "name": "delegate",
              "type": "address"
            }
          ],
          "indexed": false,
          "internalType": "struct IMigrator.MigrateDelegatorParams",
          "name": "params",
          "type": "tuple"
        }
      ],
      "name": "MigrateDelegatorInitiated",
      "type": "event"
    },
    {
      "anonymous": false,
      "inputs": [
        {
          "indexed": true,
          "internalType": "uint256",
          "name": "seqNo",
          "type": "uint256"
        },
        {
          "components": [
            {
              "internalType": "address",
              "name": "l1Addr",
              "type": "address"
            },
            {
              "internalType": "address",
              "name": "l2Addr",
              "type": "address"
            },
            {
              "internalType": "uint256",
              "name": "deposit",
              "type": "uint256"
            },
            {
              "internalType": "uint256",
              "name": "reserve",
              "type": "uint256"
            }
          ],
          "indexed": false,
          "internalType": "struct IMigrator.MigrateSenderParams",
          "name": "params",
          "type": "tuple"
        }
      ],
      "name": "MigrateSenderInitiated",
      "type": "event"
    },
    {
      "anonymous": false,
      "inputs": [
        {
          "indexed": true,
          "internalType": "uint256",
          "name": "seqNo",
          "type": "uint256"
        },
        {
          "components": [
            {
              "internalType": "address",
              "name": "l1Addr",
              "type": "address"
            },
            {
              "internalType": "address",
              "name": "l2Addr",
              "type": "address"
            },
            {
              "internalType": "uint256",
              "name": "total",
              "type": "uint256"
            },
            {
              "internalType": "uint256[]",
              "name": "unbondingLockIds",
              "type": "uint256[]"
            }
          ],
          "indexed": false,
          "internalType": "struct IMigrator.MigrateUnbondingLocksParams",
          "name": "params",
          "type": "tuple"
        }
      ],
      "name": "MigrateUnbondingLocksInitiated",
      "type": "event"
    },
    {
      "anonymous": false,
      "inputs": [
        {
          "indexed": true,
          "internalType": "address",
          "name": "from",
          "type": "address"
        },
        {
          "indexed": true,
          "internalType": "address",
          "name": "to",
          "type": "address"
        },
        {
          "indexed": true,
          "internalType": "uint256",
          "name": "seqNum",
          "type": "uint256"
        },
        {
          "indexed": false,
          "internalType": "bytes",
          "name": "data",
          "type": "bytes"
        }
      ],
      "name": "TxToL2",
      "type": "event"
    },
    {
      "inputs": [],
      "name": "bondingManagerAddr",
      "outputs": [
        {
          "internalType": "address",
          "name": "",
          "type": "address"
        }
      ],
      "stateMutability": "view",
      "type": "function"
    },
    {
      "inputs": [],
      "name": "inbox",
      "outputs": [
        {
          "internalType": "contract IInbox",
          "name": "",
          "type": "address"
        }
      ],
      "stateMutability": "view",
      "type": "function"
    },
    {
      "inputs": [],
      "name": "l2MigratorAddr",
      "outputs": [
        {
          "internalType": "address",
          "name": "",
          "type": "address"
        }
      ],
      "stateMutability": "view",
      "type": "function"
    },
    {
      "inputs": [
        {
          "internalType": "address",
          "name": "_l1Addr",
          "type": "address"
        },
        {
          "internalType": "address",
          "name": "_l2Addr",
          "type": "address"
        },
        {
          "internalType": "bytes",
          "name": "_sig",
          "type": "bytes"
        },
        {
          "internalType": "uint256",
          "name": "_maxGas",
          "type": "uint256"
        },
        {
          "internalType": "uint256",
          "name": "_gasPriceBid",
          "type": "uint256"
        },
        {
          "internalType": "uint256",
          "name": "_maxSubmissionCost",
          "type": "uint256"
        }
      ],
      "name": "migrateDelegator",
      "outputs": [],
      "stateMutability": "nonpayable",
      "type": "function"
    },
    {
      "inputs": [
        {
          "internalType": "address",
          "name": "_l1Addr",
          "type": "address"
        },
        {
          "internalType": "address",
          "name": "_l2Addr",
          "type": "address"
        },
        {
          "internalType": "bytes",
          "name": "_sig",
          "type": "bytes"
        },
        {
          "internalType": "uint256",
          "name": "_maxGas",
          "type": "uint256"
        },
        {
          "internalType": "uint256",
          "name": "_gasPriceBid",
          "type": "uint256"
        },
        {
          "internalType": "uint256",
          "name": "_maxSubmissionCost",
          "type": "uint256"
        }
      ],
      "name": "migrateSender",
      "outputs": [],
      "stateMutability": "nonpayable",
      "type": "function"
    },
    {
      "inputs": [
        {
          "internalType": "address",
          "name": "_l1Addr",
          "type": "address"
        },
        {
          "internalType": "address",
          "name": "_l2Addr",
          "type": "address"
        },
        {
          "internalType": "uint256[]",
          "name": "_unbondingLockIds",
          "type": "uint256[]"
        },
        {
          "internalType": "bytes",
          "name": "_sig",
          "type": "bytes"
        },
        {
          "internalType": "uint256",
          "name": "_maxGas",
          "type": "uint256"
        },
        {
          "internalType": "uint256",
          "name": "_gasPriceBid",
          "type": "uint256"
        },
        {
          "internalType": "uint256",
          "name": "_maxSubmissionCost",
          "type": "uint256"
        }
      ],
      "name": "migrateUnbondingLocks",
      "outputs": [],
      "stateMutability": "nonpayable",
      "type": "function"
    },
    {
      "inputs": [],
      "name": "ticketBrokerAddr",
      "outputs": [
        {
          "internalType": "address",
          "name": "",
          "type": "address"
        }
      ],
      "stateMutability": "view",
      "type": "function"
    }
  ],
  "transactionHash": "0x8ec41edd4ad3ae0d7309c2cc2985af886262cadee584ae06e798e7c8fbf50710",
  "args": [
    "0x578BAde599406A8fE3d24Fd7f7211c0911F5B29e",
    "0x595ab11a0bffbca8134d2105bcf985e85732af5c",
    "0xbc10683cf0d6c1152f80e9954701bec1e7dd1648",
    "0x49a8B5Fbe9AC1ddcE947d951a36376A33f7d5c19"
  ],
  "solcInputHash": "6871bf33593674a53c637fe333e529f1",
  "bytecode": "0x6101a06040523480156200001257600080fd5b506040516200294738038062002947833981810160405281019062000038919062000260565b6040518060400160405280601381526020017f4c69766570656572204c314d69677261746f72000000000000000000000000008152506040518060400160405280600181526020017f3100000000000000000000000000000000000000000000000000000000000000815250858073ffffffffffffffffffffffffffffffffffffffff1660808173ffffffffffffffffffffffffffffffffffffffff1660601b815250505060008280519060200120905060008280519060200120905060007f8b73c3c69bb8fe3d512ecc4cf759cc79239f7b179b0ffacaa9a75d522b39400f90508260e081815250508161010081815250504660c08181525050620001468184846200020d60201b60201c565b60a0818152505080610120818152505050505050508273ffffffffffffffffffffffffffffffffffffffff166101408173ffffffffffffffffffffffffffffffffffffffff1660601b815250508173ffffffffffffffffffffffffffffffffffffffff166101608173ffffffffffffffffffffffffffffffffffffffff1660601b815250508073ffffffffffffffffffffffffffffffffffffffff166101808173ffffffffffffffffffffffffffffffffffffffff1660601b8152505050505050620003be565b600083838346306040516020016200022a959493929190620002ff565b6040516020818303038152906040528051906020012090509392505050565b6000815190506200025a81620003a4565b92915050565b600080600080608085870312156200027757600080fd5b6000620002878782880162000249565b94505060206200029a8782880162000249565b9350506040620002ad8782880162000249565b9250506060620002c08782880162000249565b91505092959194509250565b620002d7816200035c565b82525050565b620002e88162000370565b82525050565b620002f9816200039a565b82525050565b600060a082019050620003166000830188620002dd565b620003256020830187620002dd565b620003346040830186620002dd565b620003436060830185620002ee565b620003526080830184620002cc565b9695505050505050565b600062000369826200037a565b9050919050565b6000819050919050565b600073ffffffffffffffffffffffffffffffffffffffff82169050919050565b6000819050919050565b620003af816200035c565b8114620003bb57600080fd5b50565b60805160601c60a05160c05160e05161010051610120516101405160601c6101605160601c6101805160601c6124db6200046c600039600081816104060152818161079c015281816108350152610a3c01526000818161081101526108b10152600081816101d2015281816104d20152610aaf01526000610e1901526000610e5b01526000610e3a01526000610dc601526000610dee015260008181610ad30152610c1d01526124db6000f3fe608060405234801561001057600080fd5b506004361061007d5760003560e01c8063de1ec2d61161005b578063de1ec2d6146100d8578063e40309ca146100f6578063e89320e514610112578063fb0e722b146101305761007d565b806328293d511461008257806378da35741461009e5780638f2c17ed146100ba575b600080fd5b61009c600480360381019061009791906115bf565b61014e565b005b6100b860048036038101906100b39190611691565b610478565b005b6100c261080f565b6040516100cf9190611c7f565b60405180910390f35b6100e0610833565b6040516100ed9190611c7f565b60405180910390f35b610110600480360381019061010b9190611691565b610857565b005b61011a610aad565b6040516101279190611c7f565b60405180910390f35b610138610ad1565b6040516101459190611ea7565b60405180910390f35b6101ce88887f61aed36780e7480ed685cb5ea394df4fb8da267b9f97daeb24db6c660f7116978b8b8b8b604051602001610189929190611c2f565b604051602081830303815290604052805190602001206040516020016101b29493929190611da8565b6040516020818303038152906040528051906020012087610af5565b60007f000000000000000000000000000000000000000000000000000000000000000090506000805b888890508110156102f25760008373ffffffffffffffffffffffffffffffffffffffff1663412f83b68d8c8c8681811061025a577f4e487b7100000000000000000000000000000000000000000000000000000000600052603260045260246000fd5b905060200201356040518363ffffffff1660e01b815260040161027e929190611d48565b604080518083038186803b15801561029557600080fd5b505afa1580156102a9573d6000803e3d6000fd5b505050506040513d601f19601f820116820180604052508101906102cd9190611797565b50905080836102dc91906120ac565b92505080806102ea906121fe565b9150506101f7565b50600060405180608001604052808c73ffffffffffffffffffffffffffffffffffffffff1681526020018b73ffffffffffffffffffffffffffffffffffffffff1681526020018381526020018a8a80806020026020016040519081016040528093929190818152602001838360200280828437600081840152601f19601f8201169050808301925050505050505081525090506000637164394560e01b826040516024016103a09190611fb8565b604051602081830303815290604052907bffffffffffffffffffffffffffffffffffffffffffffffffffffffff19166020820180517bffffffffffffffffffffffffffffffffffffffffffffffffffffffff83818316178352505050509050600061042f7f00000000000000000000000000000000000000000000000000000000000000008d888b8b87610c18565b9050807f866b95b17eb8769a4c75462bd9ce7c2f12ba80be2b0d459669a7a2a624e06444846040516104619190611fb8565b60405180910390a250505050505050505050505050565b6104ce86867f0988862b47ed3bbfb4a6ca37401c7f403b193459aeac85ae89b67007a66b7a8f89896040516020016104b293929190611d71565b6040516020818303038152906040528051906020012087610af5565b60007f0000000000000000000000000000000000000000000000000000000000000000905060008173ffffffffffffffffffffffffffffffffffffffff16639d0b2c7a8960006040518363ffffffff1660e01b8152600401610531929190611c9a565b60206040518083038186803b15801561054957600080fd5b505afa15801561055d573d6000803e3d6000fd5b505050506040513d601f19601f82011682018060405250810190610581919061176e565b905060008273ffffffffffffffffffffffffffffffffffffffff1663f595f1cc8a60006040518363ffffffff1660e01b81526004016105c1929190611c9a565b60206040518083038186803b1580156105d957600080fd5b505afa1580156105ed573d6000803e3d6000fd5b505050506040513d601f19601f82011682018060405250810190610611919061176e565b90506000808473ffffffffffffffffffffffffffffffffffffffff1663a64ad5958c6040518263ffffffff1660e01b815260040161064f9190611c7f565b60e06040518083038186803b15801561066757600080fd5b505afa15801561067b573d6000803e3d6000fd5b505050506040513d601f19601f8201168201806040525081019061069f91906117d3565b50505093509350505060006040518060c001604052808d73ffffffffffffffffffffffffffffffffffffffff1681526020018c73ffffffffffffffffffffffffffffffffffffffff1681526020018681526020018381526020018581526020018473ffffffffffffffffffffffffffffffffffffffff1681525090506000631a0725d860e01b826040516024016107369190611f82565b604051602081830303815290604052907bffffffffffffffffffffffffffffffffffffffffffffffffffffffff19166020820180517bffffffffffffffffffffffffffffffffffffffffffffffffffffffff8381831617835250505050905060006107c57f00000000000000000000000000000000000000000000000000000000000000008e8b8e8e87610c18565b9050807f5dde64de6b2af2aa82b195f67a162a4f870e84c1416562735f6653c614a099eb846040516107f79190611f82565b60405180910390a25050505050505050505050505050565b7f000000000000000000000000000000000000000000000000000000000000000081565b7f000000000000000000000000000000000000000000000000000000000000000081565b6108ad86867f028d23c953a67a525f843967e7e61f06d72d4a0aed8e3133159bee065e32f81f898960405160200161089193929190611d71565b6040516020818303038152906040528051906020012087610af5565b60007f000000000000000000000000000000000000000000000000000000000000000090506000808273ffffffffffffffffffffffffffffffffffffffff1663e1a589da8a6040518263ffffffff1660e01b815260040161090e9190611c7f565b60806040518083038186803b15801561092657600080fd5b505afa15801561093a573d6000803e3d6000fd5b505050506040513d601f19601f8201168201806040525081019061095e9190611732565b91509150600060405180608001604052808b73ffffffffffffffffffffffffffffffffffffffff1681526020018a73ffffffffffffffffffffffffffffffffffffffff1681526020018460000151815260200183600001518152509050600063b3f5ccae60e01b826040516024016109d69190611f9d565b604051602081830303815290604052907bffffffffffffffffffffffffffffffffffffffffffffffffffffffff19166020820180517bffffffffffffffffffffffffffffffffffffffffffffffffffffffff838183161783525050505090506000610a657f00000000000000000000000000000000000000000000000000000000000000008c898c8c87610c18565b9050807f53a728d7c49e850e9b34c39a448454863a6fbfc7afe9fbaf257f9dd5fd1663b384604051610a979190611f9d565b60405180910390a2505050505050505050505050565b7f000000000000000000000000000000000000000000000000000000000000000081565b7f000000000000000000000000000000000000000000000000000000000000000081565b600073ffffffffffffffffffffffffffffffffffffffff168373ffffffffffffffffffffffffffffffffffffffff161415610b65576040517f08c379a0000000000000000000000000000000000000000000000000000000008152600401610b5c90611f02565b60405180910390fd5b8373ffffffffffffffffffffffffffffffffffffffff163373ffffffffffffffffffffffffffffffffffffffff161480610bd357508373ffffffffffffffffffffffffffffffffffffffff16610bbb8383610d4c565b73ffffffffffffffffffffffffffffffffffffffff16145b610c12576040517f08c379a0000000000000000000000000000000000000000000000000000000008152600401610c0990611f42565b60405180910390fd5b50505050565b6000807f000000000000000000000000000000000000000000000000000000000000000073ffffffffffffffffffffffffffffffffffffffff1663679b6ded348a60008a8c8d8c8c8c6040518a63ffffffff1660e01b8152600401610c84989796959493929190611cc3565b6020604051808303818588803b158015610c9d57600080fd5b505af1158015610cb1573d6000803e3d6000fd5b50505050506040513d601f19601f82011682018060405250810190610cd6919061176e565b9050808873ffffffffffffffffffffffffffffffffffffffff168873ffffffffffffffffffffffffffffffffffffffff167fc1d1490cf25c3b40d600dfb27c7680340ed1ab901b7e8f3551280968a3b372b086604051610d369190611e85565b60405180910390a4809150509695505050505050565b60008082511415610d605760009050610d7b565b6000610d6b84610d81565b9050610d778184610d9b565b9150505b92915050565b6000610d94610d8e610dc2565b83610e85565b9050919050565b6000806000610daa8585610eb8565b91509150610db781610f3b565b819250505092915050565b60007f0000000000000000000000000000000000000000000000000000000000000000461415610e14577f00000000000000000000000000000000000000000000000000000000000000009050610e82565b610e7f7f00000000000000000000000000000000000000000000000000000000000000007f00000000000000000000000000000000000000000000000000000000000000007f000000000000000000000000000000000000000000000000000000000000000061128c565b90505b90565b60008282604051602001610e9a929190611c48565b60405160208183030381529060405280519060200120905092915050565b600080604183511415610efa5760008060006020860151925060408601519150606086015160001a9050610eee878285856112c6565b94509450505050610f34565b604083511415610f2b576000806020850151915060408501519050610f208683836113d3565b935093505050610f34565b60006002915091505b9250929050565b60006004811115610f75577f4e487b7100000000000000000000000000000000000000000000000000000000600052602160045260246000fd5b816004811115610fae577f4e487b7100000000000000000000000000000000000000000000000000000000600052602160045260246000fd5b1415610fb957611289565b60016004811115610ff3577f4e487b7100000000000000000000000000000000000000000000000000000000600052602160045260246000fd5b81600481111561102c577f4e487b7100000000000000000000000000000000000000000000000000000000600052602160045260246000fd5b141561106d576040517f08c379a000000000000000000000000000000000000000000000000000000000815260040161106490611ec2565b60405180910390fd5b600260048111156110a7577f4e487b7100000000000000000000000000000000000000000000000000000000600052602160045260246000fd5b8160048111156110e0577f4e487b7100000000000000000000000000000000000000000000000000000000600052602160045260246000fd5b1415611121576040517f08c379a000000000000000000000000000000000000000000000000000000000815260040161111890611ee2565b60405180910390fd5b6003600481111561115b577f4e487b7100000000000000000000000000000000000000000000000000000000600052602160045260246000fd5b816004811115611194577f4e487b7100000000000000000000000000000000000000000000000000000000600052602160045260246000fd5b14156111d5576040517f08c379a00000000000000000000000000000000000000000000000000000000081526004016111cc90611f22565b60405180910390fd5b60048081111561120e577f4e487b7100000000000000000000000000000000000000000000000000000000600052602160045260246000fd5b816004811115611247577f4e487b7100000000000000000000000000000000000000000000000000000000600052602160045260246000fd5b1415611288576040517f08c379a000000000000000000000000000000000000000000000000000000000815260040161127f90611f62565b60405180910390fd5b5b50565b600083838346306040516020016112a7959493929190611ded565b6040516020818303038152906040528051906020012090509392505050565b6000807f7fffffffffffffffffffffffffffffff5d576e7357a4501ddfe92f46681b20a08360001c11156113015760006003915091506113ca565b601b8560ff16141580156113195750601c8560ff1614155b1561132b5760006004915091506113ca565b6000600187878787604051600081526020016040526040516113509493929190611e40565b6020604051602081039080840390855afa158015611372573d6000803e3d6000fd5b505050602060405103519050600073ffffffffffffffffffffffffffffffffffffffff168173ffffffffffffffffffffffffffffffffffffffff1614156113c1576000600192509250506113ca565b80600092509250505b94509492505050565b6000806000807f7fffffffffffffffffffffffffffffffffffffffffffffffffffffffffffffff85169150601b8560ff1c019050611413878288856112c6565b935093505050935093915050565b600061143461142f84611fff565b611fda565b90508281526020810184848401111561144c57600080fd5b61145784828561218b565b509392505050565b60008135905061146e81612477565b92915050565b60008151905061148381612477565b92915050565b60008083601f84011261149b57600080fd5b8235905067ffffffffffffffff8111156114b457600080fd5b6020830191508360208202830111156114cc57600080fd5b9250929050565b600082601f8301126114e457600080fd5b81356114f4848260208601611421565b91505092915050565b60006040828403121561150f57600080fd5b6115196040611fda565b90506000611529848285016115aa565b600083015250602061153d848285016115aa565b60208301525092915050565b60006040828403121561155b57600080fd5b6115656040611fda565b90506000611575848285016115aa565b6000830152506020611589848285016115aa565b60208301525092915050565b6000813590506115a48161248e565b92915050565b6000815190506115b98161248e565b92915050565b60008060008060008060008060e0898b0312156115db57600080fd5b60006115e98b828c0161145f565b98505060206115fa8b828c0161145f565b975050604089013567ffffffffffffffff81111561161757600080fd5b6116238b828c01611489565b9650965050606089013567ffffffffffffffff81111561164257600080fd5b61164e8b828c016114d3565b945050608061165f8b828c01611595565b93505060a06116708b828c01611595565b92505060c06116818b828c01611595565b9150509295985092959890939650565b60008060008060008060c087890312156116aa57600080fd5b60006116b889828a0161145f565b96505060206116c989828a0161145f565b955050604087013567ffffffffffffffff8111156116e657600080fd5b6116f289828a016114d3565b945050606061170389828a01611595565b935050608061171489828a01611595565b92505060a061172589828a01611595565b9150509295509295509295565b6000806080838503121561174557600080fd5b600061175385828601611549565b9250506040611764858286016114fd565b9150509250929050565b60006020828403121561178057600080fd5b600061178e848285016115aa565b91505092915050565b600080604083850312156117aa57600080fd5b60006117b8858286016115aa565b92505060206117c9858286016115aa565b9150509250929050565b600080600080600080600060e0888a0312156117ee57600080fd5b60006117fc8a828b016115aa565b975050602061180d8a828b016115aa565b965050604061181e8a828b01611474565b955050606061182f8a828b016115aa565b94505060806118408a828b016115aa565b93505060a06118518a828b016115aa565b92505060c06118628a828b016115aa565b91505092959891949750929550565b600061187d8383611c02565b60208301905092915050565b61189281612102565b82525050565b6118a181612102565b82525050565b60006118b38385612074565b93507f07ffffffffffffffffffffffffffffffffffffffffffffffffffffffffffffff8311156118e257600080fd5b6020830292506118f383858461218b565b82840190509392505050565b600061190a82612040565b6119148185612063565b935061191f83612030565b8060005b838110156119505781516119378882611871565b975061194283612056565b925050600181019050611923565b5085935050505092915050565b61196681612114565b82525050565b61197d61197882612114565b612247565b82525050565b600061198e8261204b565b611998818561207f565b93506119a881856020860161219a565b6119b1816122af565b840191505092915050565b6119c581612155565b82525050565b6119d481612179565b82525050565b60006119e7601883612090565b91506119f2826122c0565b602082019050919050565b6000611a0a601f83612090565b9150611a15826122e9565b602082019050919050565b6000611a2d603183612090565b9150611a3882612312565b604082019050919050565b6000611a506002836120a1565b9150611a5b82612361565b600282019050919050565b6000611a73602283612090565b9150611a7e8261238a565b604082019050919050565b6000611a96602b83612090565b9150611aa1826123d9565b604082019050919050565b6000611ab9602283612090565b9150611ac482612428565b604082019050919050565b60c082016000820151611ae56000850182611889565b506020820151611af86020850182611889565b506040820151611b0b6040850182611c02565b506060820151611b1e6060850182611c02565b506080820151611b316080850182611c02565b5060a0820151611b4460a0850182611889565b50505050565b608082016000820151611b606000850182611889565b506020820151611b736020850182611889565b506040820151611b866040850182611c02565b506060820151611b996060850182611c02565b50505050565b6000608083016000830151611bb76000860182611889565b506020830151611bca6020860182611889565b506040830151611bdd6040860182611c02565b5060608301518482036060860152611bf582826118ff565b9150508091505092915050565b611c0b8161213e565b82525050565b611c1a8161213e565b82525050565b611c2981612148565b82525050565b6000611c3c8284866118a7565b91508190509392505050565b6000611c5382611a43565b9150611c5f828561196c565b602082019150611c6f828461196c565b6020820191508190509392505050565b6000602082019050611c946000830184611898565b92915050565b6000604082019050611caf6000830185611898565b611cbc60208301846119cb565b9392505050565b600061010082019050611cd9600083018b611898565b611ce6602083018a6119cb565b611cf36040830189611c11565b611d006060830188611898565b611d0d6080830187611898565b611d1a60a0830186611c11565b611d2760c0830185611c11565b81810360e0830152611d398184611983565b90509998505050505050505050565b6000604082019050611d5d6000830185611898565b611d6a6020830184611c11565b9392505050565b6000606082019050611d86600083018661195d565b611d936020830185611898565b611da06040830184611898565b949350505050565b6000608082019050611dbd600083018761195d565b611dca6020830186611898565b611dd76040830185611898565b611de4606083018461195d565b95945050505050565b600060a082019050611e02600083018861195d565b611e0f602083018761195d565b611e1c604083018661195d565b611e296060830185611c11565b611e366080830184611898565b9695505050505050565b6000608082019050611e55600083018761195d565b611e626020830186611c20565b611e6f604083018561195d565b611e7c606083018461195d565b95945050505050565b60006020820190508181036000830152611e9f8184611983565b905092915050565b6000602082019050611ebc60008301846119bc565b92915050565b60006020820190508181036000830152611edb816119da565b9050919050565b60006020820190508181036000830152611efb816119fd565b9050919050565b60006020820190508181036000830152611f1b81611a20565b9050919050565b60006020820190508181036000830152611f3b81611a66565b9050919050565b60006020820190508181036000830152611f5b81611a89565b9050919050565b60006020820190508181036000830152611f7b81611aac565b9050919050565b600060c082019050611f976000830184611acf565b92915050565b6000608082019050611fb26000830184611b4a565b92915050565b60006020820190508181036000830152611fd28184611b9f565b905092915050565b6000611fe4611ff5565b9050611ff082826121cd565b919050565b6000604051905090565b600067ffffffffffffffff82111561201a57612019612280565b5b612023826122af565b9050602081019050919050565b6000819050602082019050919050565b600081519050919050565b600081519050919050565b6000602082019050919050565b600082825260208201905092915050565b600081905092915050565b600082825260208201905092915050565b600082825260208201905092915050565b600081905092915050565b60006120b78261213e565b91506120c28361213e565b9250827fffffffffffffffffffffffffffffffffffffffffffffffffffffffffffffffff038211156120f7576120f6612251565b5b828201905092915050565b600061210d8261211e565b9050919050565b6000819050919050565b600073ffffffffffffffffffffffffffffffffffffffff82169050919050565b6000819050919050565b600060ff82169050919050565b600061216082612167565b9050919050565b60006121728261211e565b9050919050565b60006121848261213e565b9050919050565b82818337600083830152505050565b60005b838110156121b857808201518184015260208101905061219d565b838111156121c7576000848401525b50505050565b6121d6826122af565b810181811067ffffffffffffffff821117156121f5576121f4612280565b5b80604052505050565b60006122098261213e565b91507fffffffffffffffffffffffffffffffffffffffffffffffffffffffffffffffff82141561223c5761223b612251565b5b600182019050919050565b6000819050919050565b7f4e487b7100000000000000000000000000000000000000000000000000000000600052601160045260246000fd5b7f4e487b7100000000000000000000000000000000000000000000000000000000600052604160045260246000fd5b6000601f19601f8301169050919050565b7f45434453413a20696e76616c6964207369676e61747572650000000000000000600082015250565b7f45434453413a20696e76616c6964207369676e6174757265206c656e67746800600082015250565b7f4c314d69677261746f72237265717569726556616c69644d6967726174696f6e60008201527f3a20494e56414c49445f4c325f41444452000000000000000000000000000000602082015250565b7f1901000000000000000000000000000000000000000000000000000000000000600082015250565b7f45434453413a20696e76616c6964207369676e6174757265202773272076616c60008201527f7565000000000000000000000000000000000000000000000000000000000000602082015250565b7f4c314d69677261746f72237265717569726556616c69644d6967726174696f6e60008201527f3a204641494c5f41555448000000000000000000000000000000000000000000602082015250565b7f45434453413a20696e76616c6964207369676e6174757265202776272076616c60008201527f7565000000000000000000000000000000000000000000000000000000000000602082015250565b61248081612102565b811461248b57600080fd5b50565b6124978161213e565b81146124a257600080fd5b5056fea26469706673582212205f10402138951d36cb6fa465c7d7aff1df1b66b5190f7535742910786b7b9c4d64736f6c63430008040033",
  "devdoc": {
    "kind": "dev",
    "methods": {},
    "version": 1
  },
  "userdoc": {
    "kind": "user",
    "methods": {},
    "version": 1
  },
  "storageLayout": {
    "storage": [],
    "types": null
  }
}