{
  "address": "0x3308fE256A91DfccCAa64cb8Df39Ae8f1E7619a1",
  "abi": [
    {
      "anonymous": false,
      "inputs": [
        {
          "indexed": true,
          "internalType": "address",
          "name": "_delegator",
          "type": "address"
        },
        {
          "indexed": false,
          "internalType": "uint256",
          "name": "_stake",
          "type": "uint256"
        },
        {
          "indexed": false,
          "internalType": "uint256",
          "name": "_fees",
          "type": "uint256"
        }
      ],
      "name": "Claimed",
      "type": "event"
    },
    {
      "inputs": [],
      "name": "bondingManager",
      "outputs": [
        {
          "internalType": "address",
          "name": "",
          "type": "address"
        }
      ],
      "stateMutability": "view",
      "type": "function"
    },
    {
      "inputs": [
        {
          "internalType": "address",
          "name": "_delegator",
          "type": "address"
        },
        {
          "internalType": "uint256",
          "name": "_stake",
          "type": "uint256"
        }
      ],
      "name": "claim",
      "outputs": [],
      "stateMutability": "nonpayable",
      "type": "function"
    },
    {
      "inputs": [],
      "name": "claimedInitialStake",
      "outputs": [
        {
          "internalType": "uint256",
          "name": "",
          "type": "uint256"
        }
      ],
      "stateMutability": "view",
      "type": "function"
    },
    {
      "inputs": [],
      "name": "initialStake",
      "outputs": [
        {
          "internalType": "uint256",
          "name": "",
          "type": "uint256"
        }
      ],
      "stateMutability": "view",
      "type": "function"
    },
    {
      "inputs": [
        {
          "internalType": "address",
          "name": "_bondingManager",
          "type": "address"
        }
      ],
      "name": "initialize",
      "outputs": [],
      "stateMutability": "nonpayable",
      "type": "function"
    },
    {
      "inputs": [],
      "name": "migrator",
      "outputs": [
        {
          "internalType": "address",
          "name": "",
          "type": "address"
        }
      ],
      "stateMutability": "view",
      "type": "function"
    }
  ],
  "transactionHash": "0xa56237d34f2011a10ef9c49994989208c88d37ef2cc0caf06ebd49b1247656ba",
  "args": [],
  "solcInputHash": "c034c4c5135c3eaa2b471cbf69fd1f2b",
  "bytecode": "0x608060405234801561001057600080fd5b50610d73806100206000396000f3fe608060405234801561001057600080fd5b50600436106100615760003560e01c80625b291a1461006657806316e6c6fd14610084578063426eae45146100a25780637cd07e47146100c0578063aad3ec96146100de578063c4d66de8146100fa575b600080fd5b61006e610116565b60405161007b91906109fa565b60405180910390f35b61008c61011c565b60405161009991906109fa565b60405180910390f35b6100aa610122565b6040516100b791906108cc565b60405180910390f35b6100c8610148565b6040516100d591906108cc565b60405180910390f35b6100f860048036038101906100f391906107c2565b61016e565b005b610114600480360381019061010f9190610799565b6103ba565b005b60015481565b60025481565b600360009054906101000a900473ffffffffffffffffffffffffffffffffffffffff1681565b600460009054906101000a900473ffffffffffffffffffffffffffffffffffffffff1681565b600460009054906101000a900473ffffffffffffffffffffffffffffffffffffffff1673ffffffffffffffffffffffffffffffffffffffff163373ffffffffffffffffffffffffffffffffffffffff16146101fe576040517f08c379a00000000000000000000000000000000000000000000000000000000081526004016101f5906109da565b60405180910390fd5b60015460025410610244576040517f08c379a000000000000000000000000000000000000000000000000000000000815260040161023b906109ba565b60405180910390fd5b600061024e61052f565b905060006002546001546102629190610b30565b838361026e9190610ad6565b6102789190610aa5565b905060006102846105e4565b905060006002546001546102989190610b30565b85836102a49190610ad6565b6102ae9190610aa5565b905084600260008282546102c29190610a4f565b925050819055506102d38684610699565b600360009054906101000a900473ffffffffffffffffffffffffffffffffffffffff1673ffffffffffffffffffffffffffffffffffffffff1663ad3b1b4787836040518363ffffffff1660e01b81526004016103309291906108e7565b600060405180830381600087803b15801561034a57600080fd5b505af115801561035e573d6000803e3d6000fd5b505050508573ffffffffffffffffffffffffffffffffffffffff167f987d620f307ff6b94d58743cb7a7509f24071586a77759b77c2d4e29f75a2f9a84836040516103aa929190610a15565b60405180910390a2505050505050565b600060019054906101000a900460ff166103e25760008054906101000a900460ff16156103eb565b6103ea610736565b5b61042a576040517f08c379a00000000000000000000000000000000000000000000000000000000081526004016104219061099a565b60405180910390fd5b60008060019054906101000a900460ff16159050801561047a576001600060016101000a81548160ff02191690831515021790555060016000806101000a81548160ff0219169083151502179055505b81600360006101000a81548173ffffffffffffffffffffffffffffffffffffffff021916908373ffffffffffffffffffffffffffffffffffffffff16021790555033600460006101000a81548173ffffffffffffffffffffffffffffffffffffffff021916908373ffffffffffffffffffffffffffffffffffffffff16021790555061050461052f565b600181905550801561052b5760008060016101000a81548160ff0219169083151502179055505b5050565b6000600360009054906101000a900473ffffffffffffffffffffffffffffffffffffffff1673ffffffffffffffffffffffffffffffffffffffff16639d0b2c7a3060006040518363ffffffff1660e01b815260040161058f929190610910565b60206040518083038186803b1580156105a757600080fd5b505afa1580156105bb573d6000803e3d6000fd5b505050506040513d601f19601f820116820180604052508101906105df91906107fe565b905090565b6000600360009054906101000a900473ffffffffffffffffffffffffffffffffffffffff1673ffffffffffffffffffffffffffffffffffffffff1663f595f1cc3060006040518363ffffffff1660e01b8152600401610644929190610910565b60206040518083038186803b15801561065c57600080fd5b505afa158015610670573d6000803e3d6000fd5b505050506040513d601f19601f8201168201806040525081019061069491906107fe565b905090565b600360009054906101000a900473ffffffffffffffffffffffffffffffffffffffff1673ffffffffffffffffffffffffffffffffffffffff1663062e98b883836000806000806040518763ffffffff1660e01b815260040161070096959493929190610939565b600060405180830381600087803b15801561071a57600080fd5b505af115801561072e573d6000803e3d6000fd5b505050505050565b600061074130610747565b15905090565b600080823b905060008111915050919050565b60008135905061076981610d0f565b92915050565b60008135905061077e81610d26565b92915050565b60008151905061079381610d26565b92915050565b6000602082840312156107ab57600080fd5b60006107b98482850161075a565b91505092915050565b600080604083850312156107d557600080fd5b60006107e38582860161075a565b92505060206107f48582860161076f565b9150509250929050565b60006020828403121561081057600080fd5b600061081e84828501610784565b91505092915050565b61083081610b76565b82525050565b61083f81610b64565b82525050565b61084e81610bb2565b82525050565b6000610861602e83610a3e565b915061086c82610c22565b604082019050919050565b6000610884602283610a3e565b915061088f82610c71565b604082019050919050565b60006108a7602183610a3e565b91506108b282610cc0565b604082019050919050565b6108c681610ba8565b82525050565b60006020820190506108e16000830184610836565b92915050565b60006040820190506108fc6000830185610827565b61090960208301846108bd565b9392505050565b60006040820190506109256000830185610836565b6109326020830184610845565b9392505050565b600060c08201905061094e6000830189610836565b61095b60208301886108bd565b6109686040830187610836565b6109756060830186610836565b6109826080830185610836565b61098f60a0830184610836565b979650505050505050565b600060208201905081810360008301526109b381610854565b9050919050565b600060208201905081810360008301526109d381610877565b9050919050565b600060208201905081810360008301526109f38161089a565b9050919050565b6000602082019050610a0f60008301846108bd565b92915050565b6000604082019050610a2a60008301856108bd565b610a3760208301846108bd565b9392505050565b600082825260208201905092915050565b6000610a5a82610ba8565b9150610a6583610ba8565b9250827fffffffffffffffffffffffffffffffffffffffffffffffffffffffffffffffff03821115610a9a57610a99610bc4565b5b828201905092915050565b6000610ab082610ba8565b9150610abb83610ba8565b925082610acb57610aca610bf3565b5b828204905092915050565b6000610ae182610ba8565b9150610aec83610ba8565b9250817fffffffffffffffffffffffffffffffffffffffffffffffffffffffffffffffff0483118215151615610b2557610b24610bc4565b5b828202905092915050565b6000610b3b82610ba8565b9150610b4683610ba8565b925082821015610b5957610b58610bc4565b5b828203905092915050565b6000610b6f82610b88565b9050919050565b6000610b8182610b88565b9050919050565b600073ffffffffffffffffffffffffffffffffffffffff82169050919050565b6000819050919050565b6000610bbd82610ba8565b9050919050565b7f4e487b7100000000000000000000000000000000000000000000000000000000600052601160045260246000fd5b7f4e487b7100000000000000000000000000000000000000000000000000000000600052601260045260246000fd5b7f496e697469616c697a61626c653a20636f6e747261637420697320616c72656160008201527f647920696e697469616c697a6564000000000000000000000000000000000000602082015250565b7f44656c656761746f72506f6f6c23636c61696d3a2046554c4c595f434c41494d60008201527f4544000000000000000000000000000000000000000000000000000000000000602082015250565b7f44656c656761746f72506f6f6c23636c61696d3a204e4f545f4d49475241544f60008201527f5200000000000000000000000000000000000000000000000000000000000000602082015250565b610d1881610b64565b8114610d2357600080fd5b50565b610d2f81610ba8565b8114610d3a57600080fd5b5056fea264697066735822122021a29760c53299dbc0dd6f83bff1df2426f1ef5123d5575bd6752fc71653afe164736f6c63430008040033",
  "devdoc": {
    "kind": "dev",
    "methods": {
      "claim(address,uint256)": {
        "params": {
          "_delegator": "Address of delegator",
          "_stake": "Stake of delegator"
        }
      },
      "initialize(address)": {
        "params": {
          "_bondingManager": "Address of L2 BondingManager"
        }
      }
    },
    "version": 1
  },
  "userdoc": {
    "kind": "user",
    "methods": {
      "claim(address,uint256)": {
        "notice": "Called by L2Migrator to credit stake and fees held by this contract to a delegator"
      },
      "initialize(address)": {
        "notice": "Initialize state"
      }
    },
    "version": 1
  },
  "storageLayout": {
    "storage": [
      {
        "astId": 6,
        "contract": "contracts/L2/pool/DelegatorPool.sol:DelegatorPool",
        "label": "_initialized",
        "offset": 0,
        "slot": "0",
        "type": "t_bool"
      },
      {
        "astId": 9,
        "contract": "contracts/L2/pool/DelegatorPool.sol:DelegatorPool",
        "label": "_initializing",
        "offset": 1,
        "slot": "0",
        "type": "t_bool"
      },
      {
        "astId": 5792,
        "contract": "contracts/L2/pool/DelegatorPool.sol:DelegatorPool",
        "label": "initialStake",
        "offset": 0,
        "slot": "1",
        "type": "t_uint256"
      },
      {
        "astId": 5794,
        "contract": "contracts/L2/pool/DelegatorPool.sol:DelegatorPool",
        "label": "claimedInitialStake",
        "offset": 0,
        "slot": "2",
        "type": "t_uint256"
      },
      {
        "astId": 5796,
        "contract": "contracts/L2/pool/DelegatorPool.sol:DelegatorPool",
        "label": "bondingManager",
        "offset": 0,
        "slot": "3",
        "type": "t_address"
      },
      {
        "astId": 5798,
        "contract": "contracts/L2/pool/DelegatorPool.sol:DelegatorPool",
        "label": "migrator",
        "offset": 0,
        "slot": "4",
        "type": "t_address"
      }
    ],
    "types": {
      "t_address": {
        "encoding": "inplace",
        "label": "address",
        "numberOfBytes": "20"
      },
      "t_bool": {
        "encoding": "inplace",
        "label": "bool",
        "numberOfBytes": "1"
      },
      "t_uint256": {
        "encoding": "inplace",
        "label": "uint256",
        "numberOfBytes": "32"
      }
    }
  }
}