{
  "address": "0xe2f931931B8E04a01c99a2DeBA44A9FF782F688a",
  "abi": [
    {
      "inputs": [
        {
          "internalType": "address",
          "name": "_l1Migrator",
          "type": "address"
        },
        {
          "internalType": "address",
          "name": "_delegatorPoolImpl",
          "type": "address"
        },
        {
          "internalType": "address",
          "name": "_bondingManagerAddr",
          "type": "address"
        },
        {
          "internalType": "address",
          "name": "_ticketBrokerAddr",
          "type": "address"
        },
        {
          "internalType": "address",
          "name": "_merkleSnapshotAddr",
          "type": "address"
        },
        {
          "internalType": "address",
          "name": "_tokenAddr",
          "type": "address"
        }
      ],
      "stateMutability": "nonpayable",
      "type": "constructor"
    },
    {
      "anonymous": false,
      "inputs": [
        {
          "indexed": true,
          "internalType": "address",
          "name": "l1Addr",
          "type": "address"
        },
        {
          "indexed": false,
          "internalType": "address",
          "name": "delegatorPool",
          "type": "address"
        }
      ],
      "name": "DelegatorPoolCreated",
      "type": "event"
    },
    {
      "anonymous": false,
      "inputs": [
        {
          "components": [
            {
              "internalType": "address",
              "name": "l1Addr",
              "type": "address"
            },
            {
              "internalType": "address",
              "name": "l2Addr",
              "type": "address"
            },
            {
              "internalType": "uint256",
              "name": "stake",
              "type": "uint256"
            },
            {
              "internalType": "uint256",
              "name": "delegatedStake",
              "type": "uint256"
            },
            {
              "internalType": "uint256",
              "name": "fees",
              "type": "uint256"
            },
            {
              "internalType": "address",
              "name": "delegate",
              "type": "address"
            }
          ],
          "indexed": false,
          "internalType": "struct IMigrator.MigrateDelegatorParams",
          "name": "params",
          "type": "tuple"
        }
      ],
      "name": "MigrateDelegatorFinalized",
      "type": "event"
    },
    {
      "anonymous": false,
      "inputs": [
        {
          "components": [
            {
              "internalType": "address",
              "name": "l1Addr",
              "type": "address"
            },
            {
              "internalType": "address",
              "name": "l2Addr",
              "type": "address"
            },
            {
              "internalType": "uint256",
              "name": "deposit",
              "type": "uint256"
            },
            {
              "internalType": "uint256",
              "name": "reserve",
              "type": "uint256"
            }
          ],
          "indexed": false,
          "internalType": "struct IMigrator.MigrateSenderParams",
          "name": "params",
          "type": "tuple"
        }
      ],
      "name": "MigrateSenderFinalized",
      "type": "event"
    },
    {
      "anonymous": false,
      "inputs": [
        {
          "components": [
            {
              "internalType": "address",
              "name": "l1Addr",
              "type": "address"
            },
            {
              "internalType": "address",
              "name": "l2Addr",
              "type": "address"
            },
            {
              "internalType": "uint256",
              "name": "total",
              "type": "uint256"
            },
            {
              "internalType": "uint256[]",
              "name": "unbondingLockIds",
              "type": "uint256[]"
            },
            {
              "internalType": "address",
              "name": "delegate",
              "type": "address"
            }
          ],
          "indexed": false,
          "internalType": "struct IMigrator.MigrateUnbondingLocksParams",
          "name": "params",
          "type": "tuple"
        }
      ],
      "name": "MigrateUnbondingLocksFinalized",
      "type": "event"
    },
    {
      "anonymous": false,
      "inputs": [
        {
          "indexed": true,
          "internalType": "bytes32",
          "name": "role",
          "type": "bytes32"
        },
        {
          "indexed": true,
          "internalType": "bytes32",
          "name": "previousAdminRole",
          "type": "bytes32"
        },
        {
          "indexed": true,
          "internalType": "bytes32",
          "name": "newAdminRole",
          "type": "bytes32"
        }
      ],
      "name": "RoleAdminChanged",
      "type": "event"
    },
    {
      "anonymous": false,
      "inputs": [
        {
          "indexed": true,
          "internalType": "bytes32",
          "name": "role",
          "type": "bytes32"
        },
        {
          "indexed": true,
          "internalType": "address",
          "name": "account",
          "type": "address"
        },
        {
          "indexed": true,
          "internalType": "address",
          "name": "sender",
          "type": "address"
        }
      ],
      "name": "RoleGranted",
      "type": "event"
    },
    {
      "anonymous": false,
      "inputs": [
        {
          "indexed": true,
          "internalType": "bytes32",
          "name": "role",
          "type": "bytes32"
        },
        {
          "indexed": true,
          "internalType": "address",
          "name": "account",
          "type": "address"
        },
        {
          "indexed": true,
          "internalType": "address",
          "name": "sender",
          "type": "address"
        }
      ],
      "name": "RoleRevoked",
      "type": "event"
    },
    {
      "anonymous": false,
      "inputs": [
        {
          "indexed": true,
          "internalType": "address",
          "name": "delegator",
          "type": "address"
        },
        {
          "indexed": false,
          "internalType": "address",
          "name": "delegate",
          "type": "address"
        },
        {
          "indexed": false,
          "internalType": "uint256",
          "name": "stake",
          "type": "uint256"
        },
        {
          "indexed": false,
          "internalType": "uint256",
          "name": "fees",
          "type": "uint256"
        }
      ],
      "name": "StakeClaimed",
      "type": "event"
    },
    {
      "anonymous": false,
      "inputs": [
        {
          "indexed": true,
          "internalType": "address",
          "name": "_from",
          "type": "address"
        },
        {
          "indexed": true,
          "internalType": "address",
          "name": "_to",
          "type": "address"
        },
        {
          "indexed": true,
          "internalType": "uint256",
          "name": "_id",
          "type": "uint256"
        },
        {
          "indexed": false,
          "internalType": "bytes",
          "name": "_data",
          "type": "bytes"
        }
      ],
      "name": "TxToL1",
      "type": "event"
    },
    {
      "inputs": [],
      "name": "DEFAULT_ADMIN_ROLE",
      "outputs": [
        {
          "internalType": "bytes32",
          "name": "",
          "type": "bytes32"
        }
      ],
      "stateMutability": "view",
      "type": "function"
    },
    {
      "inputs": [],
      "name": "GOVERNOR_ROLE",
      "outputs": [
        {
          "internalType": "bytes32",
          "name": "",
          "type": "bytes32"
        }
      ],
      "stateMutability": "view",
      "type": "function"
    },
    {
      "inputs": [],
      "name": "bondingManagerAddr",
      "outputs": [
        {
          "internalType": "address",
          "name": "",
          "type": "address"
        }
      ],
      "stateMutability": "view",
      "type": "function"
    },
    {
      "inputs": [
        {
          "internalType": "address",
          "name": "_delegate",
          "type": "address"
        },
        {
          "internalType": "uint256",
          "name": "_stake",
          "type": "uint256"
        },
        {
          "internalType": "uint256",
          "name": "_fees",
          "type": "uint256"
        },
        {
          "internalType": "bytes32[]",
          "name": "_proof",
          "type": "bytes32[]"
        },
        {
          "internalType": "address",
          "name": "_newDelegate",
          "type": "address"
        }
      ],
      "name": "claimStake",
      "outputs": [],
      "stateMutability": "nonpayable",
      "type": "function"
    },
    {
      "inputs": [],
      "name": "claimStakeEnabled",
      "outputs": [
        {
          "internalType": "bool",
          "name": "",
          "type": "bool"
        }
      ],
      "stateMutability": "view",
      "type": "function"
    },
    {
      "inputs": [
        {
          "internalType": "address",
          "name": "",
          "type": "address"
        }
      ],
      "name": "claimedDelegatedStake",
      "outputs": [
        {
          "internalType": "uint256",
          "name": "",
          "type": "uint256"
        }
      ],
      "stateMutability": "view",
      "type": "function"
    },
    {
      "inputs": [],
      "name": "delegatorPoolImpl",
      "outputs": [
        {
          "internalType": "address",
          "name": "",
          "type": "address"
        }
      ],
      "stateMutability": "view",
      "type": "function"
    },
    {
      "inputs": [
        {
          "internalType": "address",
          "name": "",
          "type": "address"
        }
      ],
      "name": "delegatorPools",
      "outputs": [
        {
          "internalType": "address",
          "name": "",
          "type": "address"
        }
      ],
      "stateMutability": "view",
      "type": "function"
    },
    {
      "inputs": [
        {
          "components": [
            {
              "internalType": "address",
              "name": "l1Addr",
              "type": "address"
            },
            {
              "internalType": "address",
              "name": "l2Addr",
              "type": "address"
            },
            {
              "internalType": "uint256",
              "name": "stake",
              "type": "uint256"
            },
            {
              "internalType": "uint256",
              "name": "delegatedStake",
              "type": "uint256"
            },
            {
              "internalType": "uint256",
              "name": "fees",
              "type": "uint256"
            },
            {
              "internalType": "address",
              "name": "delegate",
              "type": "address"
            }
          ],
          "internalType": "struct IMigrator.MigrateDelegatorParams",
          "name": "_params",
          "type": "tuple"
        }
      ],
      "name": "finalizeMigrateDelegator",
      "outputs": [],
      "stateMutability": "nonpayable",
      "type": "function"
    },
    {
      "inputs": [
        {
          "components": [
            {
              "internalType": "address",
              "name": "l1Addr",
              "type": "address"
            },
            {
              "internalType": "address",
              "name": "l2Addr",
              "type": "address"
            },
            {
              "internalType": "uint256",
              "name": "deposit",
              "type": "uint256"
            },
            {
              "internalType": "uint256",
              "name": "reserve",
              "type": "uint256"
            }
          ],
          "internalType": "struct IMigrator.MigrateSenderParams",
          "name": "_params",
          "type": "tuple"
        }
      ],
      "name": "finalizeMigrateSender",
      "outputs": [],
      "stateMutability": "nonpayable",
      "type": "function"
    },
    {
      "inputs": [
        {
          "components": [
            {
              "internalType": "address",
              "name": "l1Addr",
              "type": "address"
            },
            {
              "internalType": "address",
              "name": "l2Addr",
              "type": "address"
            },
            {
              "internalType": "uint256",
              "name": "total",
              "type": "uint256"
            },
            {
              "internalType": "uint256[]",
              "name": "unbondingLockIds",
              "type": "uint256[]"
            },
            {
              "internalType": "address",
              "name": "delegate",
              "type": "address"
            }
          ],
          "internalType": "struct IMigrator.MigrateUnbondingLocksParams",
          "name": "_params",
          "type": "tuple"
        }
      ],
      "name": "finalizeMigrateUnbondingLocks",
      "outputs": [],
      "stateMutability": "nonpayable",
      "type": "function"
    },
    {
      "inputs": [
        {
          "internalType": "bytes32",
          "name": "role",
          "type": "bytes32"
        }
      ],
      "name": "getRoleAdmin",
      "outputs": [
        {
          "internalType": "bytes32",
          "name": "",
          "type": "bytes32"
        }
      ],
      "stateMutability": "view",
      "type": "function"
    },
    {
      "inputs": [
        {
          "internalType": "bytes32",
          "name": "role",
          "type": "bytes32"
        },
        {
          "internalType": "address",
          "name": "account",
          "type": "address"
        }
      ],
      "name": "grantRole",
      "outputs": [],
      "stateMutability": "nonpayable",
      "type": "function"
    },
    {
      "inputs": [
        {
          "internalType": "bytes32",
          "name": "role",
          "type": "bytes32"
        },
        {
          "internalType": "address",
          "name": "account",
          "type": "address"
        }
      ],
      "name": "hasRole",
      "outputs": [
        {
          "internalType": "bool",
          "name": "",
          "type": "bool"
        }
      ],
      "stateMutability": "view",
      "type": "function"
    },
    {
      "inputs": [],
      "name": "l1Migrator",
      "outputs": [
        {
          "internalType": "address",
          "name": "",
          "type": "address"
        }
      ],
      "stateMutability": "view",
      "type": "function"
    },
    {
      "inputs": [],
      "name": "merkleSnapshotAddr",
      "outputs": [
        {
          "internalType": "address",
          "name": "",
          "type": "address"
        }
      ],
      "stateMutability": "view",
      "type": "function"
    },
    {
      "inputs": [
        {
          "internalType": "address",
          "name": "",
          "type": "address"
        }
      ],
      "name": "migratedDelegators",
      "outputs": [
        {
          "internalType": "bool",
          "name": "",
          "type": "bool"
        }
      ],
      "stateMutability": "view",
      "type": "function"
    },
    {
      "inputs": [
        {
          "internalType": "address",
          "name": "",
          "type": "address"
        }
      ],
      "name": "migratedSenders",
      "outputs": [
        {
          "internalType": "bool",
          "name": "",
          "type": "bool"
        }
      ],
      "stateMutability": "view",
      "type": "function"
    },
    {
      "inputs": [
        {
          "internalType": "address",
          "name": "",
          "type": "address"
        },
        {
          "internalType": "uint256",
          "name": "",
          "type": "uint256"
        }
      ],
      "name": "migratedUnbondingLocks",
      "outputs": [
        {
          "internalType": "bool",
          "name": "",
          "type": "bool"
        }
      ],
      "stateMutability": "view",
      "type": "function"
    },
    {
      "inputs": [
        {
          "internalType": "bytes32",
          "name": "role",
          "type": "bytes32"
        },
        {
          "internalType": "address",
          "name": "account",
          "type": "address"
        }
      ],
      "name": "renounceRole",
      "outputs": [],
      "stateMutability": "nonpayable",
      "type": "function"
    },
    {
      "inputs": [
        {
          "internalType": "bytes32",
          "name": "role",
          "type": "bytes32"
        },
        {
          "internalType": "address",
          "name": "account",
          "type": "address"
        }
      ],
      "name": "revokeRole",
      "outputs": [],
      "stateMutability": "nonpayable",
      "type": "function"
    },
    {
      "inputs": [
        {
          "internalType": "bool",
          "name": "_enabled",
          "type": "bool"
        }
      ],
      "name": "setClaimStakeEnabled",
      "outputs": [],
      "stateMutability": "nonpayable",
      "type": "function"
    },
    {
      "inputs": [
        {
          "internalType": "address",
          "name": "_delegatorPoolImpl",
          "type": "address"
        }
      ],
      "name": "setDelegatorPoolImpl",
      "outputs": [],
      "stateMutability": "nonpayable",
      "type": "function"
    },
    {
      "inputs": [
        {
          "internalType": "address",
          "name": "_l1Migrator",
          "type": "address"
        }
      ],
      "name": "setL1Migrator",
      "outputs": [],
      "stateMutability": "nonpayable",
      "type": "function"
    },
    {
      "inputs": [
        {
          "internalType": "bytes4",
          "name": "interfaceId",
          "type": "bytes4"
        }
      ],
      "name": "supportsInterface",
      "outputs": [
        {
          "internalType": "bool",
          "name": "",
          "type": "bool"
        }
      ],
      "stateMutability": "view",
      "type": "function"
    },
    {
      "inputs": [],
      "name": "ticketBrokerAddr",
      "outputs": [
        {
          "internalType": "address",
          "name": "",
          "type": "address"
        }
      ],
      "stateMutability": "view",
      "type": "function"
    },
    {
      "inputs": [],
      "name": "tokenAddr",
      "outputs": [
        {
          "internalType": "address",
          "name": "",
          "type": "address"
        }
      ],
      "stateMutability": "view",
      "type": "function"
    },
    {
      "stateMutability": "payable",
      "type": "receive"
    }
  ],
  "transactionHash": "0x7752f1ed32d7fb8f1989098eb21a0453bc6da0b1ade06d2cdaa53a5f28915b51",
  "args": [
    "0x0000000000000000000000000000000000000000",
    "0x3308fE256A91DfccCAa64cb8Df39Ae8f1E7619a1",
    "0xe42229d764F673EB3FB8B9a56016C2a4DA45ffd7",
    "0xD218f6eA99907C2EDB889A151DF326aCd0F70D88",
    "0x4756766C61e0755db5963Ab3505280Ddf1B36cD8",
    "0x743b8469e5f54cD765F1954604cD4dfA67b64bF6"
  ],
  "solcInputHash": "b1d3600a47ac0198e9ba7a921721ff30",
  "bytecode": "0x6101006040523480156200001257600080fd5b5060405162003f2338038062003f2383398181016040528101906200003891906200040d565b6200005c6000801b62000050620001fb60201b60201c565b6200020360201b60201c565b620000917f7935bd0ae54bc31f548c14dba4d37c5c64b3f8ca900cb468fb8abd54d5894f556000801b6200021960201b60201c565b85600160006101000a81548173ffffffffffffffffffffffffffffffffffffffff021916908373ffffffffffffffffffffffffffffffffffffffff16021790555084600260006101000a81548173ffffffffffffffffffffffffffffffffffffffff021916908373ffffffffffffffffffffffffffffffffffffffff1602179055508373ffffffffffffffffffffffffffffffffffffffff1660808173ffffffffffffffffffffffffffffffffffffffff1660601b815250508273ffffffffffffffffffffffffffffffffffffffff1660a08173ffffffffffffffffffffffffffffffffffffffff1660601b815250508173ffffffffffffffffffffffffffffffffffffffff1660c08173ffffffffffffffffffffffffffffffffffffffff1660601b815250508073ffffffffffffffffffffffffffffffffffffffff1660e08173ffffffffffffffffffffffffffffffffffffffff1660601b81525050505050505050620004f1565b600033905090565b6200021582826200027c60201b60201c565b5050565b60006200022c836200036d60201b60201c565b905081600080858152602001908152602001600020600101819055508181847fbd79b86ffe0ab8e8776151514217cd7cacd52c909f66475c3af44e129f0b00ff60405160405180910390a4505050565b6200028e82826200038c60201b60201c565b6200036957600160008084815260200190815260200160002060000160008373ffffffffffffffffffffffffffffffffffffffff1673ffffffffffffffffffffffffffffffffffffffff16815260200190815260200160002060006101000a81548160ff0219169083151502179055506200030e620001fb60201b60201c565b73ffffffffffffffffffffffffffffffffffffffff168173ffffffffffffffffffffffffffffffffffffffff16837f2f8788117e7eff1d82e926ec794901d17c78024a50270940304540a733656f0d60405160405180910390a45b5050565b6000806000838152602001908152602001600020600101549050919050565b600080600084815260200190815260200160002060000160008373ffffffffffffffffffffffffffffffffffffffff1673ffffffffffffffffffffffffffffffffffffffff16815260200190815260200160002060009054906101000a900460ff16905092915050565b6000815190506200040781620004d7565b92915050565b60008060008060008060c087890312156200042757600080fd5b60006200043789828a01620003f6565b96505060206200044a89828a01620003f6565b95505060406200045d89828a01620003f6565b94505060606200047089828a01620003f6565b93505060806200048389828a01620003f6565b92505060a06200049689828a01620003f6565b9150509295509295509295565b6000620004b082620004b7565b9050919050565b600073ffffffffffffffffffffffffffffffffffffffff82169050919050565b620004e281620004a3565b8114620004ee57600080fd5b50565b60805160601c60a05160601c60c05160601c60e05160601c6139c262000561600039600081816113de0152611c0f015260008181610f1d01526113ba01526000818161145101526116f5015260008181610a3401528181611b3301528181611bec0152611c4b01526139c26000f3fe6080604052600436106101a05760003560e01c80638f2c17ed116100ec578063b76087361161008a578063d0b1cba211610064578063d0b1cba2146105f5578063d2f40c5a14610620578063d547741f1461065d578063e89320e514610686576101a7565b8063b760873614610578578063cc14c988146105a1578063ccc57490146105ca576101a7565b806396f995a2116100c657806396f995a2146104ce578063a0965da5146104f9578063a217fddf14610524578063b3f5ccae1461054f576101a7565b80638f2c17ed1461043d57806391d1485414610468578063923f475c146104a5576101a7565b80633aceba5d116101595780635cf207f8116101335780635cf207f81461036d5780635fbe4d1d1461039857806389bec344146103c35780638a716fbb14610400576101a7565b80633aceba5d146102ca5780633f1c49cc146103075780635118d8cf14610330576101a7565b806301ffc9a7146101ac5780631a0725d8146101e957806324583d9714610212578063248a9ca31461023b5780632f2ff15d1461027857806336568abe146102a1576101a7565b366101a757005b600080fd5b3480156101b857600080fd5b506101d360048036038101906101ce919061282a565b6106b1565b6040516101e09190612eee565b60405180910390f35b3480156101f557600080fd5b50610210600480360381019061020b9190612853565b61072b565b005b34801561021e57600080fd5b506102396004803603810190610234919061267c565b610d85565b005b34801561024757600080fd5b50610262600480360381019061025d91906127c5565b610ddf565b60405161026f9190612f09565b60405180910390f35b34801561028457600080fd5b5061029f600480360381019061029a91906127ee565b610dfe565b005b3480156102ad57600080fd5b506102c860048036038101906102c391906127ee565b610e27565b005b3480156102d657600080fd5b506102f160048036038101906102ec919061267c565b610eaa565b6040516102fe9190612eee565b60405180910390f35b34801561031357600080fd5b5061032e600480360381019061032991906126e1565b610eca565b005b34801561033c57600080fd5b506103576004803603810190610352919061267c565b6113a0565b604051610364919061313e565b60405180910390f35b34801561037957600080fd5b506103826113b8565b60405161038f9190612e73565b60405180910390f35b3480156103a457600080fd5b506103ad6113dc565b6040516103ba9190612e73565b60405180910390f35b3480156103cf57600080fd5b506103ea60048036038101906103e591906126a5565b611400565b6040516103f79190612eee565b60405180910390f35b34801561040c57600080fd5b506104276004803603810190610422919061267c565b61142f565b6040516104349190612eee565b60405180910390f35b34801561044957600080fd5b5061045261144f565b60405161045f9190612e73565b60405180910390f35b34801561047457600080fd5b5061048f600480360381019061048a91906127ee565b611473565b60405161049c9190612eee565b60405180910390f35b3480156104b157600080fd5b506104cc60048036038101906104c79190612773565b6114dd565b005b3480156104da57600080fd5b506104e361152d565b6040516104f09190612eee565b60405180910390f35b34801561050557600080fd5b5061050e611540565b60405161051b9190612e73565b60405180910390f35b34801561053057600080fd5b50610539611566565b6040516105469190612f09565b60405180910390f35b34801561055b57600080fd5b506105766004803603810190610571919061287c565b61156d565b005b34801561058457600080fd5b5061059f600480360381019061059a919061267c565b6117c9565b005b3480156105ad57600080fd5b506105c860048036038101906105c391906128a5565b611823565b005b3480156105d657600080fd5b506105df611a8b565b6040516105ec9190612f09565b60405180910390f35b34801561060157600080fd5b5061060a611aaf565b6040516106179190612e73565b60405180910390f35b34801561062c57600080fd5b506106476004803603810190610642919061267c565b611ad5565b6040516106549190612e73565b60405180910390f35b34801561066957600080fd5b50610684600480360381019061067f91906127ee565b611b08565b005b34801561069257600080fd5b5061069b611b31565b6040516106a89190612e73565b60405180910390f35b60007f7965db0b000000000000000000000000000000000000000000000000000000007bffffffffffffffffffffffffffffffffffffffffffffffffffffffff1916827bffffffffffffffffffffffffffffffffffffffffffffffffffffffff19161480610724575061072382611b55565b5b9050919050565b600160009054906101000a900473ffffffffffffffffffffffffffffffffffffffff1661075781611bbf565b73ffffffffffffffffffffffffffffffffffffffff163373ffffffffffffffffffffffffffffffffffffffff16146107c4576040517f08c379a00000000000000000000000000000000000000000000000000000000081526004016107bb906130a6565b60405180910390fd5b60036000836000015173ffffffffffffffffffffffffffffffffffffffff1673ffffffffffffffffffffffffffffffffffffffff16815260200190815260200160002060009054906101000a900460ff1615610855576040517f08c379a000000000000000000000000000000000000000000000000000000000815260040161084c90613026565b60405180910390fd5b600160036000846000015173ffffffffffffffffffffffffffffffffffffffff1673ffffffffffffffffffffffffffffffffffffffff16815260200190815260200160002060006101000a81548160ff0219169083151502179055508160a0015173ffffffffffffffffffffffffffffffffffffffff16826000015173ffffffffffffffffffffffffffffffffffffffff161415610af957610904826040015183602001518460a00151611be8565b6000610931600260009054906101000a900473ffffffffffffffffffffffffffffffffffffffff16611d39565b90508060046000856000015173ffffffffffffffffffffffffffffffffffffffff1673ffffffffffffffffffffffffffffffffffffffff16815260200190815260200160002060006101000a81548173ffffffffffffffffffffffffffffffffffffffff021916908373ffffffffffffffffffffffffffffffffffffffff160217905550610a1660056000856000015173ffffffffffffffffffffffffffffffffffffffff1673ffffffffffffffffffffffffffffffffffffffff168152602001908152602001600020548460600151610a0b919061338f565b828560a00151611be8565b8073ffffffffffffffffffffffffffffffffffffffff1663c4d66de87f00000000000000000000000000000000000000000000000000000000000000006040518263ffffffff1660e01b8152600401610a6f9190612e73565b600060405180830381600087803b158015610a8957600080fd5b505af1158015610a9d573d6000803e3d6000fd5b50505050826000015173ffffffffffffffffffffffffffffffffffffffff167ff8a0d4273560c59d7022f3feaae470fc5b68c55cff078a6ab7e618203b53041882604051610aeb9190612e73565b60405180910390a250610c29565b6000600460008460a0015173ffffffffffffffffffffffffffffffffffffffff1673ffffffffffffffffffffffffffffffffffffffff16815260200190815260200160002060009054906101000a900473ffffffffffffffffffffffffffffffffffffffff169050600073ffffffffffffffffffffffffffffffffffffffff168173ffffffffffffffffffffffffffffffffffffffff1614610c0f578073ffffffffffffffffffffffffffffffffffffffff1663aad3ec96846020015185604001516040518363ffffffff1660e01b8152600401610bd8929190612e8e565b600060405180830381600087803b158015610bf257600080fd5b505af1158015610c06573d6000803e3d6000fd5b50505050610c27565b610c26836040015184602001518560a00151611be8565b5b505b8160400151600560008460a0015173ffffffffffffffffffffffffffffffffffffffff1673ffffffffffffffffffffffffffffffffffffffff1681526020019081526020016000206000828254610c8091906132df565b92505081905550600082608001511115610d4a576000826020015173ffffffffffffffffffffffffffffffffffffffff168360800151604051610cc290612e24565b60006040518083038185875af1925050503d8060008114610cff576040519150601f19603f3d011682016040523d82523d6000602084013e610d04565b606091505b5050905080610d48576040517f08c379a0000000000000000000000000000000000000000000000000000000008152600401610d3f90613006565b60405180910390fd5b505b7fab2cb96eeb8726c709227935b01f6a5c6f7e9b518ab69eda0670c7ceda752d1a82604051610d7991906130e6565b60405180910390a15050565b6000801b610d9a81610d95611e0e565b611e16565b81600260006101000a81548173ffffffffffffffffffffffffffffffffffffffff021916908373ffffffffffffffffffffffffffffffffffffffff1602179055505050565b6000806000838152602001908152602001600020600101549050919050565b610e0782610ddf565b610e1881610e13611e0e565b611e16565b610e228383611eb3565b505050565b610e2f611e0e565b73ffffffffffffffffffffffffffffffffffffffff168173ffffffffffffffffffffffffffffffffffffffff1614610e9c576040517f08c379a0000000000000000000000000000000000000000000000000000000008152600401610e93906130c6565b60405180910390fd5b610ea68282611f93565b5050565b60076020528060005260406000206000915054906101000a900460ff1681565b600260149054906101000a900460ff16610f19576040517f08c379a0000000000000000000000000000000000000000000000000000000008152600401610f1090612fc6565b60405180910390fd5b60007f000000000000000000000000000000000000000000000000000000000000000090506000339050600081898989604051602001610f5c9493929190612dd6565b6040516020818303038152906040528051906020012090508273ffffffffffffffffffffffffffffffffffffffff16630a02831c7facef05f736f89c16facc0f940c13f4c3a386cf48a9b54b50f59defd8b301c40a8888856040518563ffffffff1660e01b8152600401610fd39493929190612f24565b60206040518083038186803b158015610feb57600080fd5b505afa158015610fff573d6000803e3d6000fd5b505050506040513d601f19601f82011682018060405250810190611023919061279c565b611062576040517f08c379a000000000000000000000000000000000000000000000000000000000815260040161105990613046565b60405180910390fd5b600360008373ffffffffffffffffffffffffffffffffffffffff1673ffffffffffffffffffffffffffffffffffffffff16815260200190815260200160002060009054906101000a900460ff16156110ef576040517f08c379a00000000000000000000000000000000000000000000000000000000081526004016110e690613086565b60405180910390fd5b6001600360008473ffffffffffffffffffffffffffffffffffffffff1673ffffffffffffffffffffffffffffffffffffffff16815260200190815260200160002060006101000a81548160ff02191690831515021790555087600560008b73ffffffffffffffffffffffffffffffffffffffff1673ffffffffffffffffffffffffffffffffffffffff168152602001908152602001600020600082825461119691906132df565b925050819055506000600460008b73ffffffffffffffffffffffffffffffffffffffff1673ffffffffffffffffffffffffffffffffffffffff16815260200190815260200160002060009054906101000a900473ffffffffffffffffffffffffffffffffffffffff16905060008a9050600073ffffffffffffffffffffffffffffffffffffffff168673ffffffffffffffffffffffffffffffffffffffff161461123e578590505b600073ffffffffffffffffffffffffffffffffffffffff168273ffffffffffffffffffffffffffffffffffffffff16146112e4578173ffffffffffffffffffffffffffffffffffffffff1663aad3ec96858c6040518363ffffffff1660e01b81526004016112ad929190612e8e565b600060405180830381600087803b1580156112c757600080fd5b505af11580156112db573d6000803e3d6000fd5b505050506112f0565b6112ef8a8583611be8565b5b6000891115611341578373ffffffffffffffffffffffffffffffffffffffff166108fc8a9081150290604051600060405180830381858888f1935050505015801561133f573d6000803e3d6000fd5b505b8373ffffffffffffffffffffffffffffffffffffffff167fc08c27d872ca12215b2df3f441676fe2c084a204a487086d7436a4ac433d417a828c8c60405161138b93929190612eb7565b60405180910390a25050505050505050505050565b60056020528060005260406000206000915090505481565b7f000000000000000000000000000000000000000000000000000000000000000081565b7f000000000000000000000000000000000000000000000000000000000000000081565b60066020528160005260406000206020528060005260406000206000915091509054906101000a900460ff1681565b60036020528060005260406000206000915054906101000a900460ff1681565b7f000000000000000000000000000000000000000000000000000000000000000081565b600080600084815260200190815260200160002060000160008373ffffffffffffffffffffffffffffffffffffffff1673ffffffffffffffffffffffffffffffffffffffff16815260200190815260200160002060009054906101000a900460ff16905092915050565b7f7935bd0ae54bc31f548c14dba4d37c5c64b3f8ca900cb468fb8abd54d5894f5561150f8161150a611e0e565b611e16565b81600260146101000a81548160ff0219169083151502179055505050565b600260149054906101000a900460ff1681565b600160009054906101000a900473ffffffffffffffffffffffffffffffffffffffff1681565b6000801b81565b600160009054906101000a900473ffffffffffffffffffffffffffffffffffffffff1661159981611bbf565b73ffffffffffffffffffffffffffffffffffffffff163373ffffffffffffffffffffffffffffffffffffffff1614611606576040517f08c379a00000000000000000000000000000000000000000000000000000000081526004016115fd906130a6565b60405180910390fd5b60076000836000015173ffffffffffffffffffffffffffffffffffffffff1673ffffffffffffffffffffffffffffffffffffffff16815260200190815260200160002060009054906101000a900460ff1615611697576040517f08c379a000000000000000000000000000000000000000000000000000000000815260040161168e90612fa6565b60405180910390fd5b600160076000846000015173ffffffffffffffffffffffffffffffffffffffff1673ffffffffffffffffffffffffffffffffffffffff16815260200190815260200160002060006101000a81548160ff0219169083151502179055507f000000000000000000000000000000000000000000000000000000000000000073ffffffffffffffffffffffffffffffffffffffff1663989f789c8360200151846040015185606001516040518463ffffffff1660e01b815260040161175c93929190612eb7565b600060405180830381600087803b15801561177657600080fd5b505af115801561178a573d6000803e3d6000fd5b505050507f71adb0cec7763a4cfefd893fc873369117ed172979f7b8f7b683f6a5787c52c0826040516117bd9190613101565b60405180910390a15050565b6000801b6117de816117d9611e0e565b611e16565b81600160006101000a81548173ffffffffffffffffffffffffffffffffffffffff021916908373ffffffffffffffffffffffffffffffffffffffff1602179055505050565b600160009054906101000a900473ffffffffffffffffffffffffffffffffffffffff1661184f81611bbf565b73ffffffffffffffffffffffffffffffffffffffff163373ffffffffffffffffffffffffffffffffffffffff16146118bc576040517f08c379a00000000000000000000000000000000000000000000000000000000081526004016118b3906130a6565b60405180910390fd5b60005b826060015151811015611a385760008360600151828151811061190b577f4e487b7100000000000000000000000000000000000000000000000000000000600052603260045260246000fd5b6020026020010151905060066000856000015173ffffffffffffffffffffffffffffffffffffffff1673ffffffffffffffffffffffffffffffffffffffff168152602001908152602001600020600082815260200190815260200160002060009054906101000a900460ff16156119b7576040517f08c379a00000000000000000000000000000000000000000000000000000000081526004016119ae90613066565b60405180910390fd5b600160066000866000015173ffffffffffffffffffffffffffffffffffffffff1673ffffffffffffffffffffffffffffffffffffffff168152602001908152602001600020600083815260200190815260200160002060006101000a81548160ff021916908315150217905550508080611a30906134de565b9150506118bf565b50611a50826040015183602001518460800151611be8565b7f9e36876ab9fc404649651fb29b8aebacf24393e00799e53abef98a59c5a0039482604051611a7f919061311c565b60405180910390a15050565b7f7935bd0ae54bc31f548c14dba4d37c5c64b3f8ca900cb468fb8abd54d5894f5581565b600260009054906101000a900473ffffffffffffffffffffffffffffffffffffffff1681565b60046020528060005260406000206000915054906101000a900473ffffffffffffffffffffffffffffffffffffffff1681565b611b1182610ddf565b611b2281611b1d611e0e565b611e16565b611b2c8383611f93565b505050565b7f000000000000000000000000000000000000000000000000000000000000000081565b60007f01ffc9a7000000000000000000000000000000000000000000000000000000007bffffffffffffffffffffffffffffffffffffffffffffffffffffffff1916827bffffffffffffffffffffffffffffffffffffffffffffffffffffffff1916149050919050565b600073111100000000000000000000000000000000111182611be19190613295565b9050919050565b60007f000000000000000000000000000000000000000000000000000000000000000090507f000000000000000000000000000000000000000000000000000000000000000073ffffffffffffffffffffffffffffffffffffffff1663095ea7b37f0000000000000000000000000000000000000000000000000000000000000000866040518363ffffffff1660e01b8152600401611c88929190612e8e565b600060405180830381600087803b158015611ca257600080fd5b505af1158015611cb6573d6000803e3d6000fd5b505050508073ffffffffffffffffffffffffffffffffffffffff1663ee4e804a8585856000806000806040518863ffffffff1660e01b8152600401611d019796959493929190613159565b600060405180830381600087803b158015611d1b57600080fd5b505af1158015611d2f573d6000803e3d6000fd5b5050505050505050565b60006040517f3d602d80600a3d3981f3363d3d373d3d3d363d7300000000000000000000000081528260601b60148201527f5af43d82803e903d91602b57fd5bf3000000000000000000000000000000000060288201526037816000f0915050600073ffffffffffffffffffffffffffffffffffffffff168173ffffffffffffffffffffffffffffffffffffffff161415611e09576040517f08c379a0000000000000000000000000000000000000000000000000000000008152600401611e0090612fe6565b60405180910390fd5b919050565b600033905090565b611e208282611473565b611eaf57611e458173ffffffffffffffffffffffffffffffffffffffff166014612074565b611e538360001c6020612074565b604051602001611e64929190612e39565b6040516020818303038152906040526040517f08c379a0000000000000000000000000000000000000000000000000000000008152600401611ea69190612f64565b60405180910390fd5b5050565b611ebd8282611473565b611f8f57600160008084815260200190815260200160002060000160008373ffffffffffffffffffffffffffffffffffffffff1673ffffffffffffffffffffffffffffffffffffffff16815260200190815260200160002060006101000a81548160ff021916908315150217905550611f34611e0e565b73ffffffffffffffffffffffffffffffffffffffff168173ffffffffffffffffffffffffffffffffffffffff16837f2f8788117e7eff1d82e926ec794901d17c78024a50270940304540a733656f0d60405160405180910390a45b5050565b611f9d8282611473565b1561207057600080600084815260200190815260200160002060000160008373ffffffffffffffffffffffffffffffffffffffff1673ffffffffffffffffffffffffffffffffffffffff16815260200190815260200160002060006101000a81548160ff021916908315150217905550612015611e0e565b73ffffffffffffffffffffffffffffffffffffffff168173ffffffffffffffffffffffffffffffffffffffff16837ff6391f5c32d9c69d2a47ea670b442974b53935d1edc7fd64eb21e047a839171b60405160405180910390a45b5050565b6060600060028360026120879190613335565b61209191906132df565b67ffffffffffffffff8111156120d0577f4e487b7100000000000000000000000000000000000000000000000000000000600052604160045260246000fd5b6040519080825280601f01601f1916602001820160405280156121025781602001600182028036833780820191505090505b5090507f300000000000000000000000000000000000000000000000000000000000000081600081518110612160577f4e487b7100000000000000000000000000000000000000000000000000000000600052603260045260246000fd5b60200101907effffffffffffffffffffffffffffffffffffffffffffffffffffffffffffff1916908160001a9053507f7800000000000000000000000000000000000000000000000000000000000000816001815181106121ea577f4e487b7100000000000000000000000000000000000000000000000000000000600052603260045260246000fd5b60200101907effffffffffffffffffffffffffffffffffffffffffffffffffffffffffffff1916908160001a9053506000600184600261222a9190613335565b61223491906132df565b90505b6001811115612320577f3031323334353637383961626364656600000000000000000000000000000000600f86166010811061229c577f4e487b7100000000000000000000000000000000000000000000000000000000600052603260045260246000fd5b1a60f81b8282815181106122d9577f4e487b7100000000000000000000000000000000000000000000000000000000600052603260045260246000fd5b60200101907effffffffffffffffffffffffffffffffffffffffffffffffffffffffffffff1916908160001a905350600485901c94508061231990613483565b9050612237565b5060008414612364576040517f08c379a000000000000000000000000000000000000000000000000000000000815260040161235b90612f86565b60405180910390fd5b8091505092915050565b600061238161237c846131ed565b6131c8565b905080838252602082019050828560208602820111156123a057600080fd5b60005b858110156123d057816123b68882612667565b8452602084019350602083019250506001810190506123a3565b5050509392505050565b6000813590506123e981613919565b92915050565b60008083601f84011261240157600080fd5b8235905067ffffffffffffffff81111561241a57600080fd5b60208301915083602082028301111561243257600080fd5b9250929050565b600082601f83011261244a57600080fd5b813561245a84826020860161236e565b91505092915050565b60008135905061247281613930565b92915050565b60008151905061248781613930565b92915050565b60008135905061249c81613947565b92915050565b6000813590506124b18161395e565b92915050565b600060c082840312156124c957600080fd5b6124d360c06131c8565b905060006124e3848285016123da565b60008301525060206124f7848285016123da565b602083015250604061250b84828501612667565b604083015250606061251f84828501612667565b606083015250608061253384828501612667565b60808301525060a0612547848285016123da565b60a08301525092915050565b60006080828403121561256557600080fd5b61256f60806131c8565b9050600061257f848285016123da565b6000830152506020612593848285016123da565b60208301525060406125a784828501612667565b60408301525060606125bb84828501612667565b60608301525092915050565b600060a082840312156125d957600080fd5b6125e360a06131c8565b905060006125f3848285016123da565b6000830152506020612607848285016123da565b602083015250604061261b84828501612667565b604083015250606082013567ffffffffffffffff81111561263b57600080fd5b61264784828501612439565b606083015250608061265b848285016123da565b60808301525092915050565b60008135905061267681613975565b92915050565b60006020828403121561268e57600080fd5b600061269c848285016123da565b91505092915050565b600080604083850312156126b857600080fd5b60006126c6858286016123da565b92505060206126d785828601612667565b9150509250929050565b60008060008060008060a087890312156126fa57600080fd5b600061270889828a016123da565b965050602061271989828a01612667565b955050604061272a89828a01612667565b945050606087013567ffffffffffffffff81111561274757600080fd5b61275389828a016123ef565b9350935050608061276689828a016123da565b9150509295509295509295565b60006020828403121561278557600080fd5b600061279384828501612463565b91505092915050565b6000602082840312156127ae57600080fd5b60006127bc84828501612478565b91505092915050565b6000602082840312156127d757600080fd5b60006127e58482850161248d565b91505092915050565b6000806040838503121561280157600080fd5b600061280f8582860161248d565b9250506020612820858286016123da565b9150509250929050565b60006020828403121561283c57600080fd5b600061284a848285016124a2565b91505092915050565b600060c0828403121561286557600080fd5b6000612873848285016124b7565b91505092915050565b60006080828403121561288e57600080fd5b600061289c84828501612553565b91505092915050565b6000602082840312156128b757600080fd5b600082013567ffffffffffffffff8111156128d157600080fd5b6128dd848285016125c7565b91505092915050565b60006128f28383612da1565b60208301905092915050565b612907816133c3565b82525050565b612916816133c3565b82525050565b61292d612928826133c3565b613527565b82525050565b600061293f838561324c565b93507f07ffffffffffffffffffffffffffffffffffffffffffffffffffffffffffffff83111561296e57600080fd5b60208302925061297f838584613441565b82840190509392505050565b600061299682613229565b6129a0818561325d565b93506129ab83613219565b8060005b838110156129dc5781516129c388826128e6565b97506129ce8361323f565b9250506001810190506129af565b5085935050505092915050565b6129f2816133d5565b82525050565b612a01816133e1565b82525050565b6000612a1282613234565b612a1c8185613279565b9350612a2c818560208601613450565b612a35816135b3565b840191505092915050565b6000612a4b82613234565b612a55818561328a565b9350612a65818560208601613450565b80840191505092915050565b6000612a7e602083613279565b9150612a89826135d1565b602082019050919050565b6000612aa1603283613279565b9150612aac826135fa565b604082019050919050565b6000612ac4602b83613279565b9150612acf82613649565b604082019050919050565b6000612ae7601683613279565b9150612af282613698565b602082019050919050565b6000612b0a602d83613279565b9150612b15826136c1565b604082019050919050565b6000612b2d603583613279565b9150612b3882613710565b604082019050919050565b6000612b50602483613279565b9150612b5b8261375f565b604082019050919050565b6000612b7360008361326e565b9150612b7e826137ae565b600082019050919050565b6000612b96603a83613279565b9150612ba1826137b1565b604082019050919050565b6000612bb960178361328a565b9150612bc482613800565b601782019050919050565b6000612bdc602783613279565b9150612be782613829565b604082019050919050565b6000612bff601883613279565b9150612c0a82613878565b602082019050919050565b6000612c2260118361328a565b9150612c2d826138a1565b601182019050919050565b6000612c45602f83613279565b9150612c50826138ca565b604082019050919050565b60c082016000820151612c7160008501826128fe565b506020820151612c8460208501826128fe565b506040820151612c976040850182612da1565b506060820151612caa6060850182612da1565b506080820151612cbd6080850182612da1565b5060a0820151612cd060a08501826128fe565b50505050565b608082016000820151612cec60008501826128fe565b506020820151612cff60208501826128fe565b506040820151612d126040850182612da1565b506060820151612d256060850182612da1565b50505050565b600060a083016000830151612d4360008601826128fe565b506020830151612d5660208601826128fe565b506040830151612d696040860182612da1565b5060608301518482036060860152612d81828261298b565b9150506080830151612d9660808601826128fe565b508091505092915050565b612daa81613437565b82525050565b612db981613437565b82525050565b612dd0612dcb82613437565b61354b565b82525050565b6000612de2828761291c565b601482019150612df2828661291c565b601482019150612e028285612dbf565b602082019150612e128284612dbf565b60208201915081905095945050505050565b6000612e2f82612b66565b9150819050919050565b6000612e4482612bac565b9150612e508285612a40565b9150612e5b82612c15565b9150612e678284612a40565b91508190509392505050565b6000602082019050612e88600083018461290d565b92915050565b6000604082019050612ea3600083018561290d565b612eb06020830184612db0565b9392505050565b6000606082019050612ecc600083018661290d565b612ed96020830185612db0565b612ee66040830184612db0565b949350505050565b6000602082019050612f0360008301846129e9565b92915050565b6000602082019050612f1e60008301846129f8565b92915050565b6000606082019050612f3960008301876129f8565b8181036020830152612f4c818587612933565b9050612f5b60408301846129f8565b95945050505050565b60006020820190508181036000830152612f7e8184612a07565b905092915050565b60006020820190508181036000830152612f9f81612a71565b9050919050565b60006020820190508181036000830152612fbf81612a94565b9050919050565b60006020820190508181036000830152612fdf81612ab7565b9050919050565b60006020820190508181036000830152612fff81612ada565b9050919050565b6000602082019050818103600083015261301f81612afd565b9050919050565b6000602082019050818103600083015261303f81612b20565b9050919050565b6000602082019050818103600083015261305f81612b43565b9050919050565b6000602082019050818103600083015261307f81612b89565b9050919050565b6000602082019050818103600083015261309f81612bcf565b9050919050565b600060208201905081810360008301526130bf81612bf2565b9050919050565b600060208201905081810360008301526130df81612c38565b9050919050565b600060c0820190506130fb6000830184612c5b565b92915050565b60006080820190506131166000830184612cd6565b92915050565b600060208201905081810360008301526131368184612d2b565b905092915050565b60006020820190506131536000830184612db0565b92915050565b600060e08201905061316e600083018a612db0565b61317b602083018961290d565b613188604083018861290d565b613195606083018761290d565b6131a2608083018661290d565b6131af60a083018561290d565b6131bc60c083018461290d565b98975050505050505050565b60006131d26131e3565b90506131de82826134ad565b919050565b6000604051905090565b600067ffffffffffffffff82111561320857613207613584565b5b602082029050602081019050919050565b6000819050602082019050919050565b600081519050919050565b600081519050919050565b6000602082019050919050565b600082825260208201905092915050565b600082825260208201905092915050565b600081905092915050565b600082825260208201905092915050565b600081905092915050565b60006132a082613417565b91506132ab83613417565b92508273ffffffffffffffffffffffffffffffffffffffff038211156132d4576132d3613555565b5b828201905092915050565b60006132ea82613437565b91506132f583613437565b9250827fffffffffffffffffffffffffffffffffffffffffffffffffffffffffffffffff0382111561332a57613329613555565b5b828201905092915050565b600061334082613437565b915061334b83613437565b9250817fffffffffffffffffffffffffffffffffffffffffffffffffffffffffffffffff048311821515161561338457613383613555565b5b828202905092915050565b600061339a82613437565b91506133a583613437565b9250828210156133b8576133b7613555565b5b828203905092915050565b60006133ce82613417565b9050919050565b60008115159050919050565b6000819050919050565b60007fffffffff0000000000000000000000000000000000000000000000000000000082169050919050565b600073ffffffffffffffffffffffffffffffffffffffff82169050919050565b6000819050919050565b82818337600083830152505050565b60005b8381101561346e578082015181840152602081019050613453565b8381111561347d576000848401525b50505050565b600061348e82613437565b915060008214156134a2576134a1613555565b5b600182039050919050565b6134b6826135b3565b810181811067ffffffffffffffff821117156134d5576134d4613584565b5b80604052505050565b60006134e982613437565b91507fffffffffffffffffffffffffffffffffffffffffffffffffffffffffffffffff82141561351c5761351b613555565b5b600182019050919050565b600061353282613539565b9050919050565b6000613544826135c4565b9050919050565b6000819050919050565b7f4e487b7100000000000000000000000000000000000000000000000000000000600052601160045260246000fd5b7f4e487b7100000000000000000000000000000000000000000000000000000000600052604160045260246000fd5b6000601f19601f8301169050919050565b60008160601b9050919050565b7f537472696e67733a20686578206c656e67746820696e73756666696369656e74600082015250565b7f4c324d69677261746f722366696e616c697a654d69677261746553656e64657260008201527f3a20414c52454144595f4d494752415445440000000000000000000000000000602082015250565b7f4c324d69677261746f7223636c61696d5374616b653a20434c41494d5f53544160008201527f4b455f44495341424c4544000000000000000000000000000000000000000000602082015250565b7f455243313136373a20637265617465206661696c656400000000000000000000600082015250565b7f4c324d69677261746f722366696e616c697a654d69677261746544656c65676160008201527f746f723a204641494c5f46454500000000000000000000000000000000000000602082015250565b7f4c324d69677261746f722366696e616c697a654d69677261746544656c65676160008201527f746f723a20414c52454144595f4d494752415445440000000000000000000000602082015250565b7f4c324d69677261746f7223636c61696d5374616b653a20494e56414c49445f5060008201527f524f4f4600000000000000000000000000000000000000000000000000000000602082015250565b50565b7f4c324d69677261746f722366696e616c697a654d696772617465556e626f6e6460008201527f696e674c6f636b733a20414c52454144595f4d49475241544544000000000000602082015250565b7f416363657373436f6e74726f6c3a206163636f756e7420000000000000000000600082015250565b7f4c324d69677261746f7223636c61696d5374616b653a20414c52454144595f4d60008201527f4947524154454400000000000000000000000000000000000000000000000000602082015250565b7f4f4e4c595f434f554e544552504152545f474154455741590000000000000000600082015250565b7f206973206d697373696e6720726f6c6520000000000000000000000000000000600082015250565b7f416363657373436f6e74726f6c3a2063616e206f6e6c792072656e6f756e636560008201527f20726f6c657320666f722073656c660000000000000000000000000000000000602082015250565b613922816133c3565b811461392d57600080fd5b50565b613939816133d5565b811461394457600080fd5b50565b613950816133e1565b811461395b57600080fd5b50565b613967816133eb565b811461397257600080fd5b50565b61397e81613437565b811461398957600080fd5b5056fea26469706673582212207e06490f3400cdaf3d8d6ab5ad8df31723476dc33602f06fa9fd71f99b0b3dfb64736f6c63430008040033",
  "devdoc": {
    "kind": "dev",
    "methods": {
      "claimStake(address,uint256,uint256,bytes32[],address)": {
        "details": "Assume that only EOAs are included in the snapshot Regardless of the caller of this function, the EOA from L1 will be able to access its stake on L2",
        "params": {
          "_delegate": "Address that is migrating",
          "_fees": "Fees of delegator on L1",
          "_newDelegate": "Optional address of a new delegate on L2",
          "_proof": "Merkle proof of inclusion in Merkle tree state snapshot",
          "_stake": "Stake of delegator on L1"
        }
      },
      "finalizeMigrateDelegator((address,address,uint256,uint256,uint256,address))": {
        "params": {
          "_params": "L1 state relevant for migration"
        }
      },
      "finalizeMigrateSender((address,address,uint256,uint256))": {
        "params": {
          "_params": "L1 state relevant for migration"
        }
      },
      "finalizeMigrateUnbondingLocks((address,address,uint256,uint256[],address))": {
        "params": {
          "_params": "L1 state relevant for migration"
        }
      },
      "getRoleAdmin(bytes32)": {
        "details": "Returns the admin role that controls `role`. See {grantRole} and {revokeRole}. To change a role's admin, use {_setRoleAdmin}."
      },
      "grantRole(bytes32,address)": {
        "details": "Grants `role` to `account`. If `account` had not been already granted `role`, emits a {RoleGranted} event. Requirements: - the caller must have ``role``'s admin role."
      },
      "hasRole(bytes32,address)": {
        "details": "Returns `true` if `account` has been granted `role`."
      },
      "renounceRole(bytes32,address)": {
        "details": "Revokes `role` from the calling account. Roles are often managed via {grantRole} and {revokeRole}: this function's purpose is to provide a mechanism for accounts to lose their privileges if they are compromised (such as when a trusted device is misplaced). If the calling account had been granted `role`, emits a {RoleRevoked} event. Requirements: - the caller must be `account`."
      },
      "revokeRole(bytes32,address)": {
        "details": "Revokes `role` from `account`. If `account` had been granted `role`, emits a {RoleRevoked} event. Requirements: - the caller must have ``role``'s admin role."
      },
      "setClaimStakeEnabled(bool)": {
        "params": {
          "_enabled": "True/false indicating claimStake() enabled/disabled"
        }
      },
      "setDelegatorPoolImpl(address)": {
        "params": {
          "_delegatorPoolImpl": "DelegatorPool implementation contract"
        }
      },
      "setL1Migrator(address)": {
        "params": {
          "_l1Migrator": "L1Migrator address"
        }
      },
      "supportsInterface(bytes4)": {
        "details": "See {IERC165-supportsInterface}."
      }
    },
    "version": 1
  },
  "userdoc": {
    "kind": "user",
    "methods": {
      "claimStake(address,uint256,uint256,bytes32[],address)": {
        "notice": "Completes delegator migration using a Merkle proof that a delegator's state was included in a state snapshot represented by a Merkle tree root"
      },
      "finalizeMigrateDelegator((address,address,uint256,uint256,uint256,address))": {
        "notice": "Called by L1Migrator to complete transcoder/delegator state migration"
      },
      "finalizeMigrateSender((address,address,uint256,uint256))": {
        "notice": "Called by L1Migrator to complete sender deposit/reserve migration"
      },
      "finalizeMigrateUnbondingLocks((address,address,uint256,uint256[],address))": {
        "notice": "Called by L1Migrator to complete unbonding locks migration"
      },
      "setClaimStakeEnabled(bool)": {
        "notice": "Enable/disable claimStake()"
      },
      "setDelegatorPoolImpl(address)": {
        "notice": "Sets DelegatorPool implementation contract"
      },
      "setL1Migrator(address)": {
        "notice": "Sets L1Migrator"
      }
    },
    "version": 1
  },
  "storageLayout": {
    "storage": [
      {
        "astId": 24,
        "contract": "contracts/L2/gateway/L2Migrator.sol:L2Migrator",
        "label": "_roles",
        "offset": 0,
        "slot": "0",
        "type": "t_mapping(t_bytes32,t_struct(RoleData)19_storage)"
      },
      {
        "astId": 2557,
        "contract": "contracts/L2/gateway/L2Migrator.sol:L2Migrator",
        "label": "l1Migrator",
        "offset": 0,
        "slot": "1",
        "type": "t_address"
      },
      {
        "astId": 2559,
        "contract": "contracts/L2/gateway/L2Migrator.sol:L2Migrator",
        "label": "delegatorPoolImpl",
        "offset": 0,
        "slot": "2",
        "type": "t_address"
      },
      {
        "astId": 2561,
        "contract": "contracts/L2/gateway/L2Migrator.sol:L2Migrator",
        "label": "claimStakeEnabled",
        "offset": 20,
        "slot": "2",
        "type": "t_bool"
      },
      {
        "astId": 2565,
        "contract": "contracts/L2/gateway/L2Migrator.sol:L2Migrator",
        "label": "migratedDelegators",
        "offset": 0,
        "slot": "3",
        "type": "t_mapping(t_address,t_bool)"
      },
      {
        "astId": 2569,
        "contract": "contracts/L2/gateway/L2Migrator.sol:L2Migrator",
        "label": "delegatorPools",
        "offset": 0,
        "slot": "4",
        "type": "t_mapping(t_address,t_address)"
      },
      {
        "astId": 2573,
        "contract": "contracts/L2/gateway/L2Migrator.sol:L2Migrator",
        "label": "claimedDelegatedStake",
        "offset": 0,
        "slot": "5",
        "type": "t_mapping(t_address,t_uint256)"
      },
      {
        "astId": 2579,
        "contract": "contracts/L2/gateway/L2Migrator.sol:L2Migrator",
        "label": "migratedUnbondingLocks",
        "offset": 0,
        "slot": "6",
        "type": "t_mapping(t_address,t_mapping(t_uint256,t_bool))"
      },
      {
        "astId": 2583,
        "contract": "contracts/L2/gateway/L2Migrator.sol:L2Migrator",
        "label": "migratedSenders",
        "offset": 0,
        "slot": "7",
        "type": "t_mapping(t_address,t_bool)"
      }
    ],
    "types": {
      "t_address": {
        "encoding": "inplace",
        "label": "address",
        "numberOfBytes": "20"
      },
      "t_bool": {
        "encoding": "inplace",
        "label": "bool",
        "numberOfBytes": "1"
      },
      "t_bytes32": {
        "encoding": "inplace",
        "label": "bytes32",
        "numberOfBytes": "32"
      },
      "t_mapping(t_address,t_address)": {
        "encoding": "mapping",
        "key": "t_address",
        "label": "mapping(address => address)",
        "numberOfBytes": "32",
        "value": "t_address"
      },
      "t_mapping(t_address,t_bool)": {
        "encoding": "mapping",
        "key": "t_address",
        "label": "mapping(address => bool)",
        "numberOfBytes": "32",
        "value": "t_bool"
      },
      "t_mapping(t_address,t_mapping(t_uint256,t_bool))": {
        "encoding": "mapping",
        "key": "t_address",
        "label": "mapping(address => mapping(uint256 => bool))",
        "numberOfBytes": "32",
        "value": "t_mapping(t_uint256,t_bool)"
      },
      "t_mapping(t_address,t_uint256)": {
        "encoding": "mapping",
        "key": "t_address",
        "label": "mapping(address => uint256)",
        "numberOfBytes": "32",
        "value": "t_uint256"
      },
      "t_mapping(t_bytes32,t_struct(RoleData)19_storage)": {
        "encoding": "mapping",
        "key": "t_bytes32",
        "label": "mapping(bytes32 => struct AccessControl.RoleData)",
        "numberOfBytes": "32",
        "value": "t_struct(RoleData)19_storage"
      },
      "t_mapping(t_uint256,t_bool)": {
        "encoding": "mapping",
        "key": "t_uint256",
        "label": "mapping(uint256 => bool)",
        "numberOfBytes": "32",
        "value": "t_bool"
      },
      "t_struct(RoleData)19_storage": {
        "encoding": "inplace",
        "label": "struct AccessControl.RoleData",
        "members": [
          {
            "astId": 16,
            "contract": "contracts/L2/gateway/L2Migrator.sol:L2Migrator",
            "label": "members",
            "offset": 0,
            "slot": "0",
            "type": "t_mapping(t_address,t_bool)"
          },
          {
            "astId": 18,
            "contract": "contracts/L2/gateway/L2Migrator.sol:L2Migrator",
            "label": "adminRole",
            "offset": 0,
            "slot": "1",
            "type": "t_bytes32"
          }
        ],
        "numberOfBytes": "64"
      },
      "t_uint256": {
        "encoding": "inplace",
        "label": "uint256",
        "numberOfBytes": "32"
      }
    }
  }
}