{
  "address": "0x743b8469e5f54cD765F1954604cD4dfA67b64bF6",
  "abi": [
    {
      "inputs": [],
      "stateMutability": "nonpayable",
      "type": "constructor"
    },
    {
      "anonymous": false,
      "inputs": [
        {
          "indexed": true,
          "internalType": "address",
          "name": "owner",
          "type": "address"
        },
        {
          "indexed": true,
          "internalType": "address",
          "name": "spender",
          "type": "address"
        },
        {
          "indexed": false,
          "internalType": "uint256",
          "name": "value",
          "type": "uint256"
        }
      ],
      "name": "Approval",
      "type": "event"
    },
    {
      "anonymous": false,
      "inputs": [
        {
          "indexed": true,
          "internalType": "address",
          "name": "burner",
          "type": "address"
        },
        {
          "indexed": false,
          "internalType": "uint256",
          "name": "amount",
          "type": "uint256"
        }
      ],
      "name": "Burn",
      "type": "event"
    },
    {
      "anonymous": false,
      "inputs": [
        {
          "indexed": true,
          "internalType": "address",
          "name": "to",
          "type": "address"
        },
        {
          "indexed": false,
          "internalType": "uint256",
          "name": "amount",
          "type": "uint256"
        }
      ],
      "name": "Mint",
      "type": "event"
    },
    {
      "anonymous": false,
      "inputs": [
        {
          "indexed": true,
          "internalType": "bytes32",
          "name": "role",
          "type": "bytes32"
        },
        {
          "indexed": true,
          "internalType": "bytes32",
          "name": "previousAdminRole",
          "type": "bytes32"
        },
        {
          "indexed": true,
          "internalType": "bytes32",
          "name": "newAdminRole",
          "type": "bytes32"
        }
      ],
      "name": "RoleAdminChanged",
      "type": "event"
    },
    {
      "anonymous": false,
      "inputs": [
        {
          "indexed": true,
          "internalType": "bytes32",
          "name": "role",
          "type": "bytes32"
        },
        {
          "indexed": true,
          "internalType": "address",
          "name": "account",
          "type": "address"
        },
        {
          "indexed": true,
          "internalType": "address",
          "name": "sender",
          "type": "address"
        }
      ],
      "name": "RoleGranted",
      "type": "event"
    },
    {
      "anonymous": false,
      "inputs": [
        {
          "indexed": true,
          "internalType": "bytes32",
          "name": "role",
          "type": "bytes32"
        },
        {
          "indexed": true,
          "internalType": "address",
          "name": "account",
          "type": "address"
        },
        {
          "indexed": true,
          "internalType": "address",
          "name": "sender",
          "type": "address"
        }
      ],
      "name": "RoleRevoked",
      "type": "event"
    },
    {
      "anonymous": false,
      "inputs": [
        {
          "indexed": true,
          "internalType": "address",
          "name": "from",
          "type": "address"
        },
        {
          "indexed": true,
          "internalType": "address",
          "name": "to",
          "type": "address"
        },
        {
          "indexed": false,
          "internalType": "uint256",
          "name": "value",
          "type": "uint256"
        }
      ],
      "name": "Transfer",
      "type": "event"
    },
    {
      "inputs": [],
      "name": "BURNER_ROLE",
      "outputs": [
        {
          "internalType": "bytes32",
          "name": "",
          "type": "bytes32"
        }
      ],
      "stateMutability": "view",
      "type": "function"
    },
    {
      "inputs": [],
      "name": "DEFAULT_ADMIN_ROLE",
      "outputs": [
        {
          "internalType": "bytes32",
          "name": "",
          "type": "bytes32"
        }
      ],
      "stateMutability": "view",
      "type": "function"
    },
    {
      "inputs": [],
      "name": "DOMAIN_SEPARATOR",
      "outputs": [
        {
          "internalType": "bytes32",
          "name": "",
          "type": "bytes32"
        }
      ],
      "stateMutability": "view",
      "type": "function"
    },
    {
      "inputs": [],
      "name": "MINTER_ROLE",
      "outputs": [
        {
          "internalType": "bytes32",
          "name": "",
          "type": "bytes32"
        }
      ],
      "stateMutability": "view",
      "type": "function"
    },
    {
      "inputs": [
        {
          "internalType": "address",
          "name": "owner",
          "type": "address"
        },
        {
          "internalType": "address",
          "name": "spender",
          "type": "address"
        }
      ],
      "name": "allowance",
      "outputs": [
        {
          "internalType": "uint256",
          "name": "",
          "type": "uint256"
        }
      ],
      "stateMutability": "view",
      "type": "function"
    },
    {
      "inputs": [
        {
          "internalType": "address",
          "name": "spender",
          "type": "address"
        },
        {
          "internalType": "uint256",
          "name": "amount",
          "type": "uint256"
        }
      ],
      "name": "approve",
      "outputs": [
        {
          "internalType": "bool",
          "name": "",
          "type": "bool"
        }
      ],
      "stateMutability": "nonpayable",
      "type": "function"
    },
    {
      "inputs": [
        {
          "internalType": "address",
          "name": "account",
          "type": "address"
        }
      ],
      "name": "balanceOf",
      "outputs": [
        {
          "internalType": "uint256",
          "name": "",
          "type": "uint256"
        }
      ],
      "stateMutability": "view",
      "type": "function"
    },
    {
      "inputs": [
        {
          "internalType": "uint256",
          "name": "_amount",
          "type": "uint256"
        }
      ],
      "name": "burn",
      "outputs": [],
      "stateMutability": "nonpayable",
      "type": "function"
    },
    {
      "inputs": [
        {
          "internalType": "address",
          "name": "_from",
          "type": "address"
        },
        {
          "internalType": "uint256",
          "name": "_amount",
          "type": "uint256"
        }
      ],
      "name": "burnFrom",
      "outputs": [],
      "stateMutability": "nonpayable",
      "type": "function"
    },
    {
      "inputs": [],
      "name": "decimals",
      "outputs": [
        {
          "internalType": "uint8",
          "name": "",
          "type": "uint8"
        }
      ],
      "stateMutability": "view",
      "type": "function"
    },
    {
      "inputs": [
        {
          "internalType": "address",
          "name": "spender",
          "type": "address"
        },
        {
          "internalType": "uint256",
          "name": "subtractedValue",
          "type": "uint256"
        }
      ],
      "name": "decreaseAllowance",
      "outputs": [
        {
          "internalType": "bool",
          "name": "",
          "type": "bool"
        }
      ],
      "stateMutability": "nonpayable",
      "type": "function"
    },
    {
      "inputs": [
        {
          "internalType": "bytes32",
          "name": "role",
          "type": "bytes32"
        }
      ],
      "name": "getRoleAdmin",
      "outputs": [
        {
          "internalType": "bytes32",
          "name": "",
          "type": "bytes32"
        }
      ],
      "stateMutability": "view",
      "type": "function"
    },
    {
      "inputs": [
        {
          "internalType": "bytes32",
          "name": "role",
          "type": "bytes32"
        },
        {
          "internalType": "address",
          "name": "account",
          "type": "address"
        }
      ],
      "name": "grantRole",
      "outputs": [],
      "stateMutability": "nonpayable",
      "type": "function"
    },
    {
      "inputs": [
        {
          "internalType": "bytes32",
          "name": "role",
          "type": "bytes32"
        },
        {
          "internalType": "address",
          "name": "account",
          "type": "address"
        }
      ],
      "name": "hasRole",
      "outputs": [
        {
          "internalType": "bool",
          "name": "",
          "type": "bool"
        }
      ],
      "stateMutability": "view",
      "type": "function"
    },
    {
      "inputs": [
        {
          "internalType": "address",
          "name": "spender",
          "type": "address"
        },
        {
          "internalType": "uint256",
          "name": "addedValue",
          "type": "uint256"
        }
      ],
      "name": "increaseAllowance",
      "outputs": [
        {
          "internalType": "bool",
          "name": "",
          "type": "bool"
        }
      ],
      "stateMutability": "nonpayable",
      "type": "function"
    },
    {
      "inputs": [
        {
          "internalType": "address",
          "name": "_to",
          "type": "address"
        },
        {
          "internalType": "uint256",
          "name": "_amount",
          "type": "uint256"
        }
      ],
      "name": "mint",
      "outputs": [],
      "stateMutability": "nonpayable",
      "type": "function"
    },
    {
      "inputs": [],
      "name": "name",
      "outputs": [
        {
          "internalType": "string",
          "name": "",
          "type": "string"
        }
      ],
      "stateMutability": "view",
      "type": "function"
    },
    {
      "inputs": [
        {
          "internalType": "address",
          "name": "owner",
          "type": "address"
        }
      ],
      "name": "nonces",
      "outputs": [
        {
          "internalType": "uint256",
          "name": "",
          "type": "uint256"
        }
      ],
      "stateMutability": "view",
      "type": "function"
    },
    {
      "inputs": [
        {
          "internalType": "address",
          "name": "owner",
          "type": "address"
        },
        {
          "internalType": "address",
          "name": "spender",
          "type": "address"
        },
        {
          "internalType": "uint256",
          "name": "value",
          "type": "uint256"
        },
        {
          "internalType": "uint256",
          "name": "deadline",
          "type": "uint256"
        },
        {
          "internalType": "uint8",
          "name": "v",
          "type": "uint8"
        },
        {
          "internalType": "bytes32",
          "name": "r",
          "type": "bytes32"
        },
        {
          "internalType": "bytes32",
          "name": "s",
          "type": "bytes32"
        }
      ],
      "name": "permit",
      "outputs": [],
      "stateMutability": "nonpayable",
      "type": "function"
    },
    {
      "inputs": [
        {
          "internalType": "bytes32",
          "name": "role",
          "type": "bytes32"
        },
        {
          "internalType": "address",
          "name": "account",
          "type": "address"
        }
      ],
      "name": "renounceRole",
      "outputs": [],
      "stateMutability": "nonpayable",
      "type": "function"
    },
    {
      "inputs": [
        {
          "internalType": "bytes32",
          "name": "role",
          "type": "bytes32"
        },
        {
          "internalType": "address",
          "name": "account",
          "type": "address"
        }
      ],
      "name": "revokeRole",
      "outputs": [],
      "stateMutability": "nonpayable",
      "type": "function"
    },
    {
      "inputs": [
        {
          "internalType": "bytes4",
          "name": "interfaceId",
          "type": "bytes4"
        }
      ],
      "name": "supportsInterface",
      "outputs": [
        {
          "internalType": "bool",
          "name": "",
          "type": "bool"
        }
      ],
      "stateMutability": "view",
      "type": "function"
    },
    {
      "inputs": [],
      "name": "symbol",
      "outputs": [
        {
          "internalType": "string",
          "name": "",
          "type": "string"
        }
      ],
      "stateMutability": "view",
      "type": "function"
    },
    {
      "inputs": [],
      "name": "totalSupply",
      "outputs": [
        {
          "internalType": "uint256",
          "name": "",
          "type": "uint256"
        }
      ],
      "stateMutability": "view",
      "type": "function"
    },
    {
      "inputs": [
        {
          "internalType": "address",
          "name": "recipient",
          "type": "address"
        },
        {
          "internalType": "uint256",
          "name": "amount",
          "type": "uint256"
        }
      ],
      "name": "transfer",
      "outputs": [
        {
          "internalType": "bool",
          "name": "",
          "type": "bool"
        }
      ],
      "stateMutability": "nonpayable",
      "type": "function"
    },
    {
      "inputs": [
        {
          "internalType": "address",
          "name": "sender",
          "type": "address"
        },
        {
          "internalType": "address",
          "name": "recipient",
          "type": "address"
        },
        {
          "internalType": "uint256",
          "name": "amount",
          "type": "uint256"
        }
      ],
      "name": "transferFrom",
      "outputs": [
        {
          "internalType": "bool",
          "name": "",
          "type": "bool"
        }
      ],
      "stateMutability": "nonpayable",
      "type": "function"
    }
  ],
  "transactionHash": "0x792afeb01376f01eb4fd69f4df4f1dc5d9954ce636a54b6ca9dafcd701796684",
  "args": [],
  "solcInputHash": "c034c4c5135c3eaa2b471cbf69fd1f2b",
  "bytecode": "0x6101406040527f6e71edae12b1b97f4d1f60370fef10105fa2faae0126114a169c64845d6126c9610120908152503480156200003a57600080fd5b506040518060400160405280600e81526020017f4c6976657065657220546f6b656e000000000000000000000000000000000000815250806040518060400160405280600181526020017f31000000000000000000000000000000000000000000000000000000000000008152506040518060400160405280600e81526020017f4c6976657065657220546f6b656e0000000000000000000000000000000000008152506040518060400160405280600381526020017f4c5054000000000000000000000000000000000000000000000000000000000081525081600490805190602001906200012c92919062000491565b5080600590805190602001906200014592919062000491565b50505060008280519060200120905060008280519060200120905060007f8b73c3c69bb8fe3d512ecc4cf759cc79239f7b179b0ffacaa9a75d522b39400f90508260c081815250508160e081815250504660a08181525050620001b08184846200025a60201b60201c565b60808181525050806101008181525050505050505050620001ea6000801b620001de6200029660201b60201c565b6200029e60201b60201c565b6200021f7f9f2df0fed2c77648de5860a4cc508cd0818c85b8b8a1ab4ceeef8d981c8956a66000801b620002b460201b60201c565b620002547f3c11d16cbaffd01df69ce1c404f6340ee057498f5f00246190ea54220576a8486000801b620002b460201b60201c565b6200067e565b600083838346306040516020016200027795949392919062000574565b6040516020818303038152906040528051906020012090509392505050565b600033905090565b620002b082826200031760201b60201c565b5050565b6000620002c7836200040860201b60201c565b905081600080858152602001908152602001600020600101819055508181847fbd79b86ffe0ab8e8776151514217cd7cacd52c909f66475c3af44e129f0b00ff60405160405180910390a4505050565b6200032982826200042760201b60201c565b6200040457600160008084815260200190815260200160002060000160008373ffffffffffffffffffffffffffffffffffffffff1673ffffffffffffffffffffffffffffffffffffffff16815260200190815260200160002060006101000a81548160ff021916908315150217905550620003a96200029660201b60201c565b73ffffffffffffffffffffffffffffffffffffffff168173ffffffffffffffffffffffffffffffffffffffff16837f2f8788117e7eff1d82e926ec794901d17c78024a50270940304540a733656f0d60405160405180910390a45b5050565b6000806000838152602001908152602001600020600101549050919050565b600080600084815260200190815260200160002060000160008373ffffffffffffffffffffffffffffffffffffffff1673ffffffffffffffffffffffffffffffffffffffff16815260200190815260200160002060009054906101000a900460ff16905092915050565b8280546200049f9062000619565b90600052602060002090601f016020900481019282620004c357600085556200050f565b82601f10620004de57805160ff19168380011785556200050f565b828001600101855582156200050f579182015b828111156200050e578251825591602001919060010190620004f1565b5b5090506200051e919062000522565b5090565b5b808211156200053d57600081600090555060010162000523565b5090565b6200054c81620005d1565b82525050565b6200055d81620005e5565b82525050565b6200056e816200060f565b82525050565b600060a0820190506200058b600083018862000552565b6200059a602083018762000552565b620005a9604083018662000552565b620005b8606083018562000563565b620005c7608083018462000541565b9695505050505050565b6000620005de82620005ef565b9050919050565b6000819050919050565b600073ffffffffffffffffffffffffffffffffffffffff82169050919050565b6000819050919050565b600060028204905060018216806200063257607f821691505b602082108114156200064957620006486200064f565b5b50919050565b7f4e487b7100000000000000000000000000000000000000000000000000000000600052602260045260246000fd5b60805160a05160c05160e051610100516101205161376c620006ce6000396000610dcd015260006116310152600061167301526000611652015260006115de01526000611606015261376c6000f3fe608060405234801561001057600080fd5b506004361061018e5760003560e01c806342966c68116100de578063a217fddf11610097578063d505accf11610071578063d505accf146104d1578063d5391393146104ed578063d547741f1461050b578063dd62ed3e146105275761018e565b8063a217fddf14610453578063a457c2d714610471578063a9059cbb146104a15761018e565b806342966c681461036d57806370a082311461038957806379cc6790146103b95780637ecebe00146103d557806391d148541461040557806395d89b41146104355761018e565b8063282c51f31161014b5780633644e515116101255780633644e515146102e757806336568abe14610305578063395093511461032157806340c10f19146103515761018e565b8063282c51f31461028f5780632f2ff15d146102ad578063313ce567146102c95761018e565b806301ffc9a71461019357806306fdde03146101c3578063095ea7b3146101e157806318160ddd1461021157806323b872dd1461022f578063248a9ca31461025f575b600080fd5b6101ad60048036038101906101a89190612639565b610557565b6040516101ba9190612aca565b60405180910390f35b6101cb6105d1565b6040516101d89190612bf9565b60405180910390f35b6101fb60048036038101906101f69190612598565b610663565b6040516102089190612aca565b60405180910390f35b610219610681565b6040516102269190612e7b565b60405180910390f35b610249600480360381019061024491906124ab565b61068b565b6040516102569190612aca565b60405180910390f35b610279600480360381019061027491906125d4565b610783565b6040516102869190612ae5565b60405180910390f35b6102976107a2565b6040516102a49190612ae5565b60405180910390f35b6102c760048036038101906102c291906125fd565b6107c6565b005b6102d16107ef565b6040516102de9190612e96565b60405180910390f35b6102ef6107f8565b6040516102fc9190612ae5565b60405180910390f35b61031f600480360381019061031a91906125fd565b610807565b005b61033b60048036038101906103369190612598565b61088a565b6040516103489190612aca565b60405180910390f35b61036b60048036038101906103669190612598565b610936565b005b61038760048036038101906103829190612662565b6109c5565b005b6103a3600480360381019061039e9190612446565b610a52565b6040516103b09190612e7b565b60405180910390f35b6103d360048036038101906103ce9190612598565b610a9b565b005b6103ef60048036038101906103ea9190612446565b610b2a565b6040516103fc9190612e7b565b60405180910390f35b61041f600480360381019061041a91906125fd565b610b7a565b60405161042c9190612aca565b60405180910390f35b61043d610be4565b60405161044a9190612bf9565b60405180910390f35b61045b610c76565b6040516104689190612ae5565b60405180910390f35b61048b60048036038101906104869190612598565b610c7d565b6040516104989190612aca565b60405180910390f35b6104bb60048036038101906104b69190612598565b610d68565b6040516104c89190612aca565b60405180910390f35b6104eb60048036038101906104e691906124fa565b610d86565b005b6104f5610ec8565b6040516105029190612ae5565b60405180910390f35b610525600480360381019061052091906125fd565b610eec565b005b610541600480360381019061053c919061246f565b610f15565b60405161054e9190612e7b565b60405180910390f35b60007f7965db0b000000000000000000000000000000000000000000000000000000007bffffffffffffffffffffffffffffffffffffffffffffffffffffffff1916827bffffffffffffffffffffffffffffffffffffffffffffffffffffffff191614806105ca57506105c982610f9c565b5b9050919050565b6060600480546105e0906130a4565b80601f016020809104026020016040519081016040528092919081815260200182805461060c906130a4565b80156106595780601f1061062e57610100808354040283529160200191610659565b820191906000526020600020905b81548152906001019060200180831161063c57829003601f168201915b5050505050905090565b6000610677610670611006565b848461100e565b6001905092915050565b6000600354905090565b60006106988484846111d9565b6000600260008673ffffffffffffffffffffffffffffffffffffffff1673ffffffffffffffffffffffffffffffffffffffff16815260200190815260200160002060006106e3611006565b73ffffffffffffffffffffffffffffffffffffffff1673ffffffffffffffffffffffffffffffffffffffff16815260200190815260200160002054905082811015610763576040517f08c379a000000000000000000000000000000000000000000000000000000000815260040161075a90612d7b565b60405180910390fd5b6107778561076f611006565b85840361100e565b60019150509392505050565b6000806000838152602001908152602001600020600101549050919050565b7f3c11d16cbaffd01df69ce1c404f6340ee057498f5f00246190ea54220576a84881565b6107cf82610783565b6107e0816107db611006565b61145d565b6107ea83836114fa565b505050565b60006012905090565b60006108026115da565b905090565b61080f611006565b73ffffffffffffffffffffffffffffffffffffffff168173ffffffffffffffffffffffffffffffffffffffff161461087c576040517f08c379a000000000000000000000000000000000000000000000000000000000815260040161087390612e3b565b60405180910390fd5b610886828261169d565b5050565b600061092c610897611006565b8484600260006108a5611006565b73ffffffffffffffffffffffffffffffffffffffff1673ffffffffffffffffffffffffffffffffffffffff16815260200190815260200160002060008873ffffffffffffffffffffffffffffffffffffffff1673ffffffffffffffffffffffffffffffffffffffff168152602001908152602001600020546109279190612ed8565b61100e565b6001905092915050565b7f9f2df0fed2c77648de5860a4cc508cd0818c85b8b8a1ab4ceeef8d981c8956a661096881610963611006565b61145d565b610972838361177e565b8273ffffffffffffffffffffffffffffffffffffffff167f0f6798a560793a54c3bcfe86a93cde1e73087d944c0ea20544137d4121396885836040516109b89190612e7b565b60405180910390a2505050565b7f3c11d16cbaffd01df69ce1c404f6340ee057498f5f00246190ea54220576a8486109f7816109f2611006565b61145d565b610a00826118df565b3373ffffffffffffffffffffffffffffffffffffffff167fcc16f5dbb4873280815c1ee09dbd06736cffcc184412cf7a71a0fdb75d397ca583604051610a469190612e7b565b60405180910390a25050565b6000600160008373ffffffffffffffffffffffffffffffffffffffff1673ffffffffffffffffffffffffffffffffffffffff168152602001908152602001600020549050919050565b7f3c11d16cbaffd01df69ce1c404f6340ee057498f5f00246190ea54220576a848610acd81610ac8611006565b61145d565b610ad783836118f3565b8273ffffffffffffffffffffffffffffffffffffffff167fcc16f5dbb4873280815c1ee09dbd06736cffcc184412cf7a71a0fdb75d397ca583604051610b1d9190612e7b565b60405180910390a2505050565b6000610b73600660008473ffffffffffffffffffffffffffffffffffffffff1673ffffffffffffffffffffffffffffffffffffffff16815260200190815260200160002061196e565b9050919050565b600080600084815260200190815260200160002060000160008373ffffffffffffffffffffffffffffffffffffffff1673ffffffffffffffffffffffffffffffffffffffff16815260200190815260200160002060009054906101000a900460ff16905092915050565b606060058054610bf3906130a4565b80601f0160208091040260200160405190810160405280929190818152602001828054610c1f906130a4565b8015610c6c5780601f10610c4157610100808354040283529160200191610c6c565b820191906000526020600020905b815481529060010190602001808311610c4f57829003601f168201915b5050505050905090565b6000801b81565b60008060026000610c8c611006565b73ffffffffffffffffffffffffffffffffffffffff1673ffffffffffffffffffffffffffffffffffffffff16815260200190815260200160002060008573ffffffffffffffffffffffffffffffffffffffff1673ffffffffffffffffffffffffffffffffffffffff16815260200190815260200160002054905082811015610d49576040517f08c379a0000000000000000000000000000000000000000000000000000000008152600401610d4090612e1b565b60405180910390fd5b610d5d610d54611006565b8585840361100e565b600191505092915050565b6000610d7c610d75611006565b84846111d9565b6001905092915050565b83421115610dc9576040517f08c379a0000000000000000000000000000000000000000000000000000000008152600401610dc090612cdb565b60405180910390fd5b60007f0000000000000000000000000000000000000000000000000000000000000000888888610df88c61197c565b89604051602001610e0e96959493929190612b00565b6040516020818303038152906040528051906020012090506000610e31826119da565b90506000610e41828787876119f4565b90508973ffffffffffffffffffffffffffffffffffffffff168173ffffffffffffffffffffffffffffffffffffffff1614610eb1576040517f08c379a0000000000000000000000000000000000000000000000000000000008152600401610ea890612d5b565b60405180910390fd5b610ebc8a8a8a61100e565b50505050505050505050565b7f9f2df0fed2c77648de5860a4cc508cd0818c85b8b8a1ab4ceeef8d981c8956a681565b610ef582610783565b610f0681610f01611006565b61145d565b610f10838361169d565b505050565b6000600260008473ffffffffffffffffffffffffffffffffffffffff1673ffffffffffffffffffffffffffffffffffffffff16815260200190815260200160002060008373ffffffffffffffffffffffffffffffffffffffff1673ffffffffffffffffffffffffffffffffffffffff16815260200190815260200160002054905092915050565b60007f01ffc9a7000000000000000000000000000000000000000000000000000000007bffffffffffffffffffffffffffffffffffffffffffffffffffffffff1916827bffffffffffffffffffffffffffffffffffffffffffffffffffffffff1916149050919050565b600033905090565b600073ffffffffffffffffffffffffffffffffffffffff168373ffffffffffffffffffffffffffffffffffffffff16141561107e576040517f08c379a000000000000000000000000000000000000000000000000000000000815260040161107590612dfb565b60405180910390fd5b600073ffffffffffffffffffffffffffffffffffffffff168273ffffffffffffffffffffffffffffffffffffffff1614156110ee576040517f08c379a00000000000000000000000000000000000000000000000000000000081526004016110e590612cbb565b60405180910390fd5b80600260008573ffffffffffffffffffffffffffffffffffffffff1673ffffffffffffffffffffffffffffffffffffffff16815260200190815260200160002060008473ffffffffffffffffffffffffffffffffffffffff1673ffffffffffffffffffffffffffffffffffffffff168152602001908152602001600020819055508173ffffffffffffffffffffffffffffffffffffffff168373ffffffffffffffffffffffffffffffffffffffff167f8c5be1e5ebec7d5bd14f71427d1e84f3dd0314c0f7b2291e5b200ac8c7c3b925836040516111cc9190612e7b565b60405180910390a3505050565b600073ffffffffffffffffffffffffffffffffffffffff168373ffffffffffffffffffffffffffffffffffffffff161415611249576040517f08c379a000000000000000000000000000000000000000000000000000000000815260040161124090612ddb565b60405180910390fd5b600073ffffffffffffffffffffffffffffffffffffffff168273ffffffffffffffffffffffffffffffffffffffff1614156112b9576040517f08c379a00000000000000000000000000000000000000000000000000000000081526004016112b090612c5b565b60405180910390fd5b6112c4838383611a1f565b6000600160008573ffffffffffffffffffffffffffffffffffffffff1673ffffffffffffffffffffffffffffffffffffffff1681526020019081526020016000205490508181101561134b576040517f08c379a000000000000000000000000000000000000000000000000000000000815260040161134290612cfb565b60405180910390fd5b818103600160008673ffffffffffffffffffffffffffffffffffffffff1673ffffffffffffffffffffffffffffffffffffffff1681526020019081526020016000208190555081600160008573ffffffffffffffffffffffffffffffffffffffff1673ffffffffffffffffffffffffffffffffffffffff16815260200190815260200160002060008282546113e09190612ed8565b925050819055508273ffffffffffffffffffffffffffffffffffffffff168473ffffffffffffffffffffffffffffffffffffffff167fddf252ad1be2c89b69c2b068fc378daa952ba7f163c4a11628f55a4df523b3ef846040516114449190612e7b565b60405180910390a3611457848484611a24565b50505050565b6114678282610b7a565b6114f65761148c8173ffffffffffffffffffffffffffffffffffffffff166014611a29565b61149a8360001c6020611a29565b6040516020016114ab929190612a90565b6040516020818303038152906040526040517f08c379a00000000000000000000000000000000000000000000000000000000081526004016114ed9190612bf9565b60405180910390fd5b5050565b6115048282610b7a565b6115d657600160008084815260200190815260200160002060000160008373ffffffffffffffffffffffffffffffffffffffff1673ffffffffffffffffffffffffffffffffffffffff16815260200190815260200160002060006101000a81548160ff02191690831515021790555061157b611006565b73ffffffffffffffffffffffffffffffffffffffff168173ffffffffffffffffffffffffffffffffffffffff16837f2f8788117e7eff1d82e926ec794901d17c78024a50270940304540a733656f0d60405160405180910390a45b5050565b60007f000000000000000000000000000000000000000000000000000000000000000046141561162c577f0000000000000000000000000000000000000000000000000000000000000000905061169a565b6116977f00000000000000000000000000000000000000000000000000000000000000007f00000000000000000000000000000000000000000000000000000000000000007f0000000000000000000000000000000000000000000000000000000000000000611d23565b90505b90565b6116a78282610b7a565b1561177a57600080600084815260200190815260200160002060000160008373ffffffffffffffffffffffffffffffffffffffff1673ffffffffffffffffffffffffffffffffffffffff16815260200190815260200160002060006101000a81548160ff02191690831515021790555061171f611006565b73ffffffffffffffffffffffffffffffffffffffff168173ffffffffffffffffffffffffffffffffffffffff16837ff6391f5c32d9c69d2a47ea670b442974b53935d1edc7fd64eb21e047a839171b60405160405180910390a45b5050565b600073ffffffffffffffffffffffffffffffffffffffff168273ffffffffffffffffffffffffffffffffffffffff1614156117ee576040517f08c379a00000000000000000000000000000000000000000000000000000000081526004016117e590612e5b565b60405180910390fd5b6117fa60008383611a1f565b806003600082825461180c9190612ed8565b9250508190555080600160008473ffffffffffffffffffffffffffffffffffffffff1673ffffffffffffffffffffffffffffffffffffffff16815260200190815260200160002060008282546118629190612ed8565b925050819055508173ffffffffffffffffffffffffffffffffffffffff16600073ffffffffffffffffffffffffffffffffffffffff167fddf252ad1be2c89b69c2b068fc378daa952ba7f163c4a11628f55a4df523b3ef836040516118c79190612e7b565b60405180910390a36118db60008383611a24565b5050565b6118f06118ea611006565b82611d5d565b50565b600061190683611901611006565b610f15565b90508181101561194b576040517f08c379a000000000000000000000000000000000000000000000000000000000815260040161194290612d9b565b60405180910390fd5b61195f83611957611006565b84840361100e565b6119698383611d5d565b505050565b600081600001549050919050565b600080600660008473ffffffffffffffffffffffffffffffffffffffff1673ffffffffffffffffffffffffffffffffffffffff16815260200190815260200160002090506119c98161196e565b91506119d481611f36565b50919050565b60006119ed6119e76115da565b83611f4c565b9050919050565b6000806000611a0587878787611f7f565b91509150611a128161208c565b8192505050949350505050565b505050565b505050565b606060006002836002611a3c9190612f2e565b611a469190612ed8565b67ffffffffffffffff811115611a85577f4e487b7100000000000000000000000000000000000000000000000000000000600052604160045260246000fd5b6040519080825280601f01601f191660200182016040528015611ab75781602001600182028036833780820191505090505b5090507f300000000000000000000000000000000000000000000000000000000000000081600081518110611b15577f4e487b7100000000000000000000000000000000000000000000000000000000600052603260045260246000fd5b60200101907effffffffffffffffffffffffffffffffffffffffffffffffffffffffffffff1916908160001a9053507f780000000000000000000000000000000000000000000000000000000000000081600181518110611b9f577f4e487b7100000000000000000000000000000000000000000000000000000000600052603260045260246000fd5b60200101907effffffffffffffffffffffffffffffffffffffffffffffffffffffffffffff1916908160001a90535060006001846002611bdf9190612f2e565b611be99190612ed8565b90505b6001811115611cd5577f3031323334353637383961626364656600000000000000000000000000000000600f861660108110611c51577f4e487b7100000000000000000000000000000000000000000000000000000000600052603260045260246000fd5b1a60f81b828281518110611c8e577f4e487b7100000000000000000000000000000000000000000000000000000000600052603260045260246000fd5b60200101907effffffffffffffffffffffffffffffffffffffffffffffffffffffffffffff1916908160001a905350600485901c945080611cce9061307a565b9050611bec565b5060008414611d19576040517f08c379a0000000000000000000000000000000000000000000000000000000008152600401611d1090612c3b565b60405180910390fd5b8091505092915050565b60008383834630604051602001611d3e959493929190612b61565b6040516020818303038152906040528051906020012090509392505050565b600073ffffffffffffffffffffffffffffffffffffffff168273ffffffffffffffffffffffffffffffffffffffff161415611dcd576040517f08c379a0000000000000000000000000000000000000000000000000000000008152600401611dc490612dbb565b60405180910390fd5b611dd982600083611a1f565b6000600160008473ffffffffffffffffffffffffffffffffffffffff1673ffffffffffffffffffffffffffffffffffffffff16815260200190815260200160002054905081811015611e60576040517f08c379a0000000000000000000000000000000000000000000000000000000008152600401611e5790612c7b565b60405180910390fd5b818103600160008573ffffffffffffffffffffffffffffffffffffffff1673ffffffffffffffffffffffffffffffffffffffff168152602001908152602001600020819055508160036000828254611eb89190612f88565b92505081905550600073ffffffffffffffffffffffffffffffffffffffff168373ffffffffffffffffffffffffffffffffffffffff167fddf252ad1be2c89b69c2b068fc378daa952ba7f163c4a11628f55a4df523b3ef84604051611f1d9190612e7b565b60405180910390a3611f3183600084611a24565b505050565b6001816000016000828254019250508190555050565b60008282604051602001611f61929190612a59565b60405160208183030381529060405280519060200120905092915050565b6000807f7fffffffffffffffffffffffffffffff5d576e7357a4501ddfe92f46681b20a08360001c1115611fba576000600391509150612083565b601b8560ff1614158015611fd25750601c8560ff1614155b15611fe4576000600491509150612083565b6000600187878787604051600081526020016040526040516120099493929190612bb4565b6020604051602081039080840390855afa15801561202b573d6000803e3d6000fd5b505050602060405103519050600073ffffffffffffffffffffffffffffffffffffffff168173ffffffffffffffffffffffffffffffffffffffff16141561207a57600060019250925050612083565b80600092509250505b94509492505050565b600060048111156120c6577f4e487b7100000000000000000000000000000000000000000000000000000000600052602160045260246000fd5b8160048111156120ff577f4e487b7100000000000000000000000000000000000000000000000000000000600052602160045260246000fd5b141561210a576123da565b60016004811115612144577f4e487b7100000000000000000000000000000000000000000000000000000000600052602160045260246000fd5b81600481111561217d577f4e487b7100000000000000000000000000000000000000000000000000000000600052602160045260246000fd5b14156121be576040517f08c379a00000000000000000000000000000000000000000000000000000000081526004016121b590612c1b565b60405180910390fd5b600260048111156121f8577f4e487b7100000000000000000000000000000000000000000000000000000000600052602160045260246000fd5b816004811115612231577f4e487b7100000000000000000000000000000000000000000000000000000000600052602160045260246000fd5b1415612272576040517f08c379a000000000000000000000000000000000000000000000000000000000815260040161226990612c9b565b60405180910390fd5b600360048111156122ac577f4e487b7100000000000000000000000000000000000000000000000000000000600052602160045260246000fd5b8160048111156122e5577f4e487b7100000000000000000000000000000000000000000000000000000000600052602160045260246000fd5b1415612326576040517f08c379a000000000000000000000000000000000000000000000000000000000815260040161231d90612d1b565b60405180910390fd5b60048081111561235f577f4e487b7100000000000000000000000000000000000000000000000000000000600052602160045260246000fd5b816004811115612398577f4e487b7100000000000000000000000000000000000000000000000000000000600052602160045260246000fd5b14156123d9576040517f08c379a00000000000000000000000000000000000000000000000000000000081526004016123d090612d3b565b60405180910390fd5b5b50565b6000813590506123ec816136c3565b92915050565b600081359050612401816136da565b92915050565b600081359050612416816136f1565b92915050565b60008135905061242b81613708565b92915050565b6000813590506124408161371f565b92915050565b60006020828403121561245857600080fd5b6000612466848285016123dd565b91505092915050565b6000806040838503121561248257600080fd5b6000612490858286016123dd565b92505060206124a1858286016123dd565b9150509250929050565b6000806000606084860312156124c057600080fd5b60006124ce868287016123dd565b93505060206124df868287016123dd565b92505060406124f08682870161241c565b9150509250925092565b600080600080600080600060e0888a03121561251557600080fd5b60006125238a828b016123dd565b97505060206125348a828b016123dd565b96505060406125458a828b0161241c565b95505060606125568a828b0161241c565b94505060806125678a828b01612431565b93505060a06125788a828b016123f2565b92505060c06125898a828b016123f2565b91505092959891949750929550565b600080604083850312156125ab57600080fd5b60006125b9858286016123dd565b92505060206125ca8582860161241c565b9150509250929050565b6000602082840312156125e657600080fd5b60006125f4848285016123f2565b91505092915050565b6000806040838503121561261057600080fd5b600061261e858286016123f2565b925050602061262f858286016123dd565b9150509250929050565b60006020828403121561264b57600080fd5b600061265984828501612407565b91505092915050565b60006020828403121561267457600080fd5b60006126828482850161241c565b91505092915050565b61269481612fbc565b82525050565b6126a381612fce565b82525050565b6126b281612fda565b82525050565b6126c96126c482612fda565b6130d6565b82525050565b60006126da82612eb1565b6126e48185612ebc565b93506126f4818560208601613047565b6126fd8161313e565b840191505092915050565b600061271382612eb1565b61271d8185612ecd565b935061272d818560208601613047565b80840191505092915050565b6000612746601883612ebc565b91506127518261314f565b602082019050919050565b6000612769602083612ebc565b915061277482613178565b602082019050919050565b600061278c602383612ebc565b9150612797826131a1565b604082019050919050565b60006127af602283612ebc565b91506127ba826131f0565b604082019050919050565b60006127d2601f83612ebc565b91506127dd8261323f565b602082019050919050565b60006127f5602283612ebc565b915061280082613268565b604082019050919050565b6000612818600283612ecd565b9150612823826132b7565b600282019050919050565b600061283b601d83612ebc565b9150612846826132e0565b602082019050919050565b600061285e602683612ebc565b915061286982613309565b604082019050919050565b6000612881602283612ebc565b915061288c82613358565b604082019050919050565b60006128a4602283612ebc565b91506128af826133a7565b604082019050919050565b60006128c7601e83612ebc565b91506128d2826133f6565b602082019050919050565b60006128ea602883612ebc565b91506128f58261341f565b604082019050919050565b600061290d602483612ebc565b91506129188261346e565b604082019050919050565b6000612930602183612ebc565b915061293b826134bd565b604082019050919050565b6000612953602583612ebc565b915061295e8261350c565b604082019050919050565b6000612976602483612ebc565b91506129818261355b565b604082019050919050565b6000612999601783612ecd565b91506129a4826135aa565b601782019050919050565b60006129bc602583612ebc565b91506129c7826135d3565b604082019050919050565b60006129df601183612ecd565b91506129ea82613622565b601182019050919050565b6000612a02602f83612ebc565b9150612a0d8261364b565b604082019050919050565b6000612a25601f83612ebc565b9150612a308261369a565b602082019050919050565b612a4481613030565b82525050565b612a538161303a565b82525050565b6000612a648261280b565b9150612a7082856126b8565b602082019150612a8082846126b8565b6020820191508190509392505050565b6000612a9b8261298c565b9150612aa78285612708565b9150612ab2826129d2565b9150612abe8284612708565b91508190509392505050565b6000602082019050612adf600083018461269a565b92915050565b6000602082019050612afa60008301846126a9565b92915050565b600060c082019050612b1560008301896126a9565b612b22602083018861268b565b612b2f604083018761268b565b612b3c6060830186612a3b565b612b496080830185612a3b565b612b5660a0830184612a3b565b979650505050505050565b600060a082019050612b7660008301886126a9565b612b8360208301876126a9565b612b9060408301866126a9565b612b9d6060830185612a3b565b612baa608083018461268b565b9695505050505050565b6000608082019050612bc960008301876126a9565b612bd66020830186612a4a565b612be360408301856126a9565b612bf060608301846126a9565b95945050505050565b60006020820190508181036000830152612c1381846126cf565b905092915050565b60006020820190508181036000830152612c3481612739565b9050919050565b60006020820190508181036000830152612c548161275c565b9050919050565b60006020820190508181036000830152612c748161277f565b9050919050565b60006020820190508181036000830152612c94816127a2565b9050919050565b60006020820190508181036000830152612cb4816127c5565b9050919050565b60006020820190508181036000830152612cd4816127e8565b9050919050565b60006020820190508181036000830152612cf48161282e565b9050919050565b60006020820190508181036000830152612d1481612851565b9050919050565b60006020820190508181036000830152612d3481612874565b9050919050565b60006020820190508181036000830152612d5481612897565b9050919050565b60006020820190508181036000830152612d74816128ba565b9050919050565b60006020820190508181036000830152612d94816128dd565b9050919050565b60006020820190508181036000830152612db481612900565b9050919050565b60006020820190508181036000830152612dd481612923565b9050919050565b60006020820190508181036000830152612df481612946565b9050919050565b60006020820190508181036000830152612e1481612969565b9050919050565b60006020820190508181036000830152612e34816129af565b9050919050565b60006020820190508181036000830152612e54816129f5565b9050919050565b60006020820190508181036000830152612e7481612a18565b9050919050565b6000602082019050612e906000830184612a3b565b92915050565b6000602082019050612eab6000830184612a4a565b92915050565b600081519050919050565b600082825260208201905092915050565b600081905092915050565b6000612ee382613030565b9150612eee83613030565b9250827fffffffffffffffffffffffffffffffffffffffffffffffffffffffffffffffff03821115612f2357612f226130e0565b5b828201905092915050565b6000612f3982613030565b9150612f4483613030565b9250817fffffffffffffffffffffffffffffffffffffffffffffffffffffffffffffffff0483118215151615612f7d57612f7c6130e0565b5b828202905092915050565b6000612f9382613030565b9150612f9e83613030565b925082821015612fb157612fb06130e0565b5b828203905092915050565b6000612fc782613010565b9050919050565b60008115159050919050565b6000819050919050565b60007fffffffff0000000000000000000000000000000000000000000000000000000082169050919050565b600073ffffffffffffffffffffffffffffffffffffffff82169050919050565b6000819050919050565b600060ff82169050919050565b60005b8381101561306557808201518184015260208101905061304a565b83811115613074576000848401525b50505050565b600061308582613030565b91506000821415613099576130986130e0565b5b600182039050919050565b600060028204905060018216806130bc57607f821691505b602082108114156130d0576130cf61310f565b5b50919050565b6000819050919050565b7f4e487b7100000000000000000000000000000000000000000000000000000000600052601160045260246000fd5b7f4e487b7100000000000000000000000000000000000000000000000000000000600052602260045260246000fd5b6000601f19601f8301169050919050565b7f45434453413a20696e76616c6964207369676e61747572650000000000000000600082015250565b7f537472696e67733a20686578206c656e67746820696e73756666696369656e74600082015250565b7f45524332303a207472616e7366657220746f20746865207a65726f206164647260008201527f6573730000000000000000000000000000000000000000000000000000000000602082015250565b7f45524332303a206275726e20616d6f756e7420657863656564732062616c616e60008201527f6365000000000000000000000000000000000000000000000000000000000000602082015250565b7f45434453413a20696e76616c6964207369676e6174757265206c656e67746800600082015250565b7f45524332303a20617070726f766520746f20746865207a65726f20616464726560008201527f7373000000000000000000000000000000000000000000000000000000000000602082015250565b7f1901000000000000000000000000000000000000000000000000000000000000600082015250565b7f45524332305065726d69743a206578706972656420646561646c696e65000000600082015250565b7f45524332303a207472616e7366657220616d6f756e742065786365656473206260008201527f616c616e63650000000000000000000000000000000000000000000000000000602082015250565b7f45434453413a20696e76616c6964207369676e6174757265202773272076616c60008201527f7565000000000000000000000000000000000000000000000000000000000000602082015250565b7f45434453413a20696e76616c6964207369676e6174757265202776272076616c60008201527f7565000000000000000000000000000000000000000000000000000000000000602082015250565b7f45524332305065726d69743a20696e76616c6964207369676e61747572650000600082015250565b7f45524332303a207472616e7366657220616d6f756e742065786365656473206160008201527f6c6c6f77616e6365000000000000000000000000000000000000000000000000602082015250565b7f45524332303a206275726e20616d6f756e74206578636565647320616c6c6f7760008201527f616e636500000000000000000000000000000000000000000000000000000000602082015250565b7f45524332303a206275726e2066726f6d20746865207a65726f2061646472657360008201527f7300000000000000000000000000000000000000000000000000000000000000602082015250565b7f45524332303a207472616e736665722066726f6d20746865207a65726f20616460008201527f6472657373000000000000000000000000000000000000000000000000000000602082015250565b7f45524332303a20617070726f76652066726f6d20746865207a65726f2061646460008201527f7265737300000000000000000000000000000000000000000000000000000000602082015250565b7f416363657373436f6e74726f6c3a206163636f756e7420000000000000000000600082015250565b7f45524332303a2064656372656173656420616c6c6f77616e63652062656c6f7760008201527f207a65726f000000000000000000000000000000000000000000000000000000602082015250565b7f206973206d697373696e6720726f6c6520000000000000000000000000000000600082015250565b7f416363657373436f6e74726f6c3a2063616e206f6e6c792072656e6f756e636560008201527f20726f6c657320666f722073656c660000000000000000000000000000000000602082015250565b7f45524332303a206d696e7420746f20746865207a65726f206164647265737300600082015250565b6136cc81612fbc565b81146136d757600080fd5b50565b6136e381612fda565b81146136ee57600080fd5b50565b6136fa81612fe4565b811461370557600080fd5b50565b61371181613030565b811461371c57600080fd5b50565b6137288161303a565b811461373357600080fd5b5056fea26469706673582212209e990b246d2b1e21303205e35dd3a407c1e2789c29ece52f66815ad3d83a47d564736f6c63430008040033",
  "devdoc": {
    "kind": "dev",
    "methods": {
      "DOMAIN_SEPARATOR()": {
        "details": "See {IERC20Permit-DOMAIN_SEPARATOR}."
      },
      "allowance(address,address)": {
        "details": "See {IERC20-allowance}."
      },
      "approve(address,uint256)": {
        "details": "See {IERC20-approve}. Requirements: - `spender` cannot be the zero address."
      },
      "balanceOf(address)": {
        "details": "See {IERC20-balanceOf}."
      },
      "burn(uint256)": {
        "details": "Only callable by addresses with BURNER_ROLE",
        "params": {
          "_amount": "The amount of tokens to be burned"
        }
      },
      "burnFrom(address,uint256)": {
        "details": "Only callable by addresses with BURNER_ROLE. Requires the address to approve the caller to burn the amount",
        "params": {
          "_amount": "The amount of tokens to be burned",
          "_from": "Address to burn tokens for"
        }
      },
      "decimals()": {
        "details": "Returns the number of decimals used to get its user representation. For example, if `decimals` equals `2`, a balance of `505` tokens should be displayed to a user as `5.05` (`505 / 10 ** 2`). Tokens usually opt for a value of 18, imitating the relationship between Ether and Wei. This is the value {ERC20} uses, unless this function is overridden; NOTE: This information is only used for _display_ purposes: it in no way affects any of the arithmetic of the contract, including {IERC20-balanceOf} and {IERC20-transfer}."
      },
      "decreaseAllowance(address,uint256)": {
        "details": "Atomically decreases the allowance granted to `spender` by the caller. This is an alternative to {approve} that can be used as a mitigation for problems described in {IERC20-approve}. Emits an {Approval} event indicating the updated allowance. Requirements: - `spender` cannot be the zero address. - `spender` must have allowance for the caller of at least `subtractedValue`."
      },
      "getRoleAdmin(bytes32)": {
        "details": "Returns the admin role that controls `role`. See {grantRole} and {revokeRole}. To change a role's admin, use {_setRoleAdmin}."
      },
      "grantRole(bytes32,address)": {
        "details": "Grants `role` to `account`. If `account` had not been already granted `role`, emits a {RoleGranted} event. Requirements: - the caller must have ``role``'s admin role."
      },
      "hasRole(bytes32,address)": {
        "details": "Returns `true` if `account` has been granted `role`."
      },
      "increaseAllowance(address,uint256)": {
        "details": "Atomically increases the allowance granted to `spender` by the caller. This is an alternative to {approve} that can be used as a mitigation for problems described in {IERC20-approve}. Emits an {Approval} event indicating the updated allowance. Requirements: - `spender` cannot be the zero address."
      },
      "mint(address,uint256)": {
        "details": "Only callable by addreses with MINTER_ROLE",
        "params": {
          "_amount": "The amount of tokens to mint.",
          "_to": "The address that will receive the minted tokens."
        }
      },
      "name()": {
        "details": "Returns the name of the token."
      },
      "nonces(address)": {
        "details": "See {IERC20Permit-nonces}."
      },
      "permit(address,address,uint256,uint256,uint8,bytes32,bytes32)": {
        "details": "See {IERC20Permit-permit}."
      },
      "renounceRole(bytes32,address)": {
        "details": "Revokes `role` from the calling account. Roles are often managed via {grantRole} and {revokeRole}: this function's purpose is to provide a mechanism for accounts to lose their privileges if they are compromised (such as when a trusted device is misplaced). If the calling account had been granted `role`, emits a {RoleRevoked} event. Requirements: - the caller must be `account`."
      },
      "revokeRole(bytes32,address)": {
        "details": "Revokes `role` from `account`. If `account` had been granted `role`, emits a {RoleRevoked} event. Requirements: - the caller must have ``role``'s admin role."
      },
      "supportsInterface(bytes4)": {
        "details": "See {IERC165-supportsInterface}."
      },
      "symbol()": {
        "details": "Returns the symbol of the token, usually a shorter version of the name."
      },
      "totalSupply()": {
        "details": "See {IERC20-totalSupply}."
      },
      "transfer(address,uint256)": {
        "details": "See {IERC20-transfer}. Requirements: - `recipient` cannot be the zero address. - the caller must have a balance of at least `amount`."
      },
      "transferFrom(address,address,uint256)": {
        "details": "See {IERC20-transferFrom}. Emits an {Approval} event indicating the updated allowance. This is not required by the EIP. See the note at the beginning of {ERC20}. Requirements: - `sender` and `recipient` cannot be the zero address. - `sender` must have a balance of at least `amount`. - the caller must have allowance for ``sender``'s tokens of at least `amount`."
      }
    },
    "version": 1
  },
  "userdoc": {
    "kind": "user",
    "methods": {
      "burn(uint256)": {
        "notice": "Burns a specific amount of msg.sender's tokens"
      },
      "burnFrom(address,uint256)": {
        "notice": "Burns a specific amount of an address' tokens"
      },
      "mint(address,uint256)": {
        "notice": "Function to mint tokens"
      }
    },
    "version": 1
  },
  "storageLayout": {
    "storage": [
      {
        "astId": 343,
        "contract": "contracts/L2/token/LivepeerToken.sol:LivepeerToken",
        "label": "_roles",
        "offset": 0,
        "slot": "0",
        "type": "t_mapping(t_bytes32,t_struct(RoleData)338_storage)"
      },
      {
        "astId": 990,
        "contract": "contracts/L2/token/LivepeerToken.sol:LivepeerToken",
        "label": "_balances",
        "offset": 0,
        "slot": "1",
        "type": "t_mapping(t_address,t_uint256)"
      },
      {
        "astId": 996,
        "contract": "contracts/L2/token/LivepeerToken.sol:LivepeerToken",
        "label": "_allowances",
        "offset": 0,
        "slot": "2",
        "type": "t_mapping(t_address,t_mapping(t_address,t_uint256))"
      },
      {
        "astId": 998,
        "contract": "contracts/L2/token/LivepeerToken.sol:LivepeerToken",
        "label": "_totalSupply",
        "offset": 0,
        "slot": "3",
        "type": "t_uint256"
      },
      {
        "astId": 1000,
        "contract": "contracts/L2/token/LivepeerToken.sol:LivepeerToken",
        "label": "_name",
        "offset": 0,
        "slot": "4",
        "type": "t_string_storage"
      },
      {
        "astId": 1002,
        "contract": "contracts/L2/token/LivepeerToken.sol:LivepeerToken",
        "label": "_symbol",
        "offset": 0,
        "slot": "5",
        "type": "t_string_storage"
      },
      {
        "astId": 1708,
        "contract": "contracts/L2/token/LivepeerToken.sol:LivepeerToken",
        "label": "_nonces",
        "offset": 0,
        "slot": "6",
        "type": "t_mapping(t_address,t_struct(Counter)1918_storage)"
      }
    ],
    "types": {
      "t_address": {
        "encoding": "inplace",
        "label": "address",
        "numberOfBytes": "20"
      },
      "t_bool": {
        "encoding": "inplace",
        "label": "bool",
        "numberOfBytes": "1"
      },
      "t_bytes32": {
        "encoding": "inplace",
        "label": "bytes32",
        "numberOfBytes": "32"
      },
      "t_mapping(t_address,t_bool)": {
        "encoding": "mapping",
        "key": "t_address",
        "label": "mapping(address => bool)",
        "numberOfBytes": "32",
        "value": "t_bool"
      },
      "t_mapping(t_address,t_mapping(t_address,t_uint256))": {
        "encoding": "mapping",
        "key": "t_address",
        "label": "mapping(address => mapping(address => uint256))",
        "numberOfBytes": "32",
        "value": "t_mapping(t_address,t_uint256)"
      },
      "t_mapping(t_address,t_struct(Counter)1918_storage)": {
        "encoding": "mapping",
        "key": "t_address",
        "label": "mapping(address => struct Counters.Counter)",
        "numberOfBytes": "32",
        "value": "t_struct(Counter)1918_storage"
      },
      "t_mapping(t_address,t_uint256)": {
        "encoding": "mapping",
        "key": "t_address",
        "label": "mapping(address => uint256)",
        "numberOfBytes": "32",
        "value": "t_uint256"
      },
      "t_mapping(t_bytes32,t_struct(RoleData)338_storage)": {
        "encoding": "mapping",
        "key": "t_bytes32",
        "label": "mapping(bytes32 => struct AccessControl.RoleData)",
        "numberOfBytes": "32",
        "value": "t_struct(RoleData)338_storage"
      },
      "t_string_storage": {
        "encoding": "bytes",
        "label": "string",
        "numberOfBytes": "32"
      },
      "t_struct(Counter)1918_storage": {
        "encoding": "inplace",
        "label": "struct Counters.Counter",
        "members": [
          {
            "astId": 1917,
            "contract": "contracts/L2/token/LivepeerToken.sol:LivepeerToken",
            "label": "_value",
            "offset": 0,
            "slot": "0",
            "type": "t_uint256"
          }
        ],
        "numberOfBytes": "32"
      },
      "t_struct(RoleData)338_storage": {
        "encoding": "inplace",
        "label": "struct AccessControl.RoleData",
        "members": [
          {
            "astId": 335,
            "contract": "contracts/L2/token/LivepeerToken.sol:LivepeerToken",
            "label": "members",
            "offset": 0,
            "slot": "0",
            "type": "t_mapping(t_address,t_bool)"
          },
          {
            "astId": 337,
            "contract": "contracts/L2/token/LivepeerToken.sol:LivepeerToken",
            "label": "adminRole",
            "offset": 0,
            "slot": "1",
            "type": "t_bytes32"
          }
        ],
        "numberOfBytes": "64"
      },
      "t_uint256": {
        "encoding": "inplace",
        "label": "uint256",
        "numberOfBytes": "32"
      }
    }
  }
}