{
  "address": "0x35e813A271ba1146B8C0Ed2837DD0b4577C7ffA8",
  "abi": [
    {
      "inputs": [
        {
          "internalType": "address",
          "name": "_l1Migrator",
          "type": "address"
        },
        {
          "internalType": "address",
          "name": "_delegatorPoolImpl",
          "type": "address"
        },
        {
          "internalType": "address",
          "name": "_bondingManagerAddr",
          "type": "address"
        },
        {
          "internalType": "address",
          "name": "_ticketBrokerAddr",
          "type": "address"
        },
        {
          "internalType": "address",
          "name": "_merkleSnapshotAddr",
          "type": "address"
        },
        {
          "internalType": "address",
          "name": "_tokenAddr",
          "type": "address"
        }
      ],
      "stateMutability": "nonpayable",
      "type": "constructor"
    },
    {
      "anonymous": false,
      "inputs": [
        {
          "indexed": true,
          "internalType": "address",
          "name": "l1Addr",
          "type": "address"
        },
        {
          "indexed": false,
          "internalType": "address",
          "name": "delegatorPool",
          "type": "address"
        }
      ],
      "name": "DelegatorPoolCreated",
      "type": "event"
    },
    {
      "anonymous": false,
      "inputs": [
        {
          "components": [
            {
              "internalType": "address",
              "name": "l1Addr",
              "type": "address"
            },
            {
              "internalType": "address",
              "name": "l2Addr",
              "type": "address"
            },
            {
              "internalType": "uint256",
              "name": "stake",
              "type": "uint256"
            },
            {
              "internalType": "uint256",
              "name": "delegatedStake",
              "type": "uint256"
            },
            {
              "internalType": "uint256",
              "name": "fees",
              "type": "uint256"
            },
            {
              "internalType": "address",
              "name": "delegate",
              "type": "address"
            }
          ],
          "indexed": false,
          "internalType": "struct IMigrator.MigrateDelegatorParams",
          "name": "params",
          "type": "tuple"
        }
      ],
      "name": "MigrateDelegatorFinalized",
      "type": "event"
    },
    {
      "anonymous": false,
      "inputs": [
        {
          "components": [
            {
              "internalType": "address",
              "name": "l1Addr",
              "type": "address"
            },
            {
              "internalType": "address",
              "name": "l2Addr",
              "type": "address"
            },
            {
              "internalType": "uint256",
              "name": "deposit",
              "type": "uint256"
            },
            {
              "internalType": "uint256",
              "name": "reserve",
              "type": "uint256"
            }
          ],
          "indexed": false,
          "internalType": "struct IMigrator.MigrateSenderParams",
          "name": "params",
          "type": "tuple"
        }
      ],
      "name": "MigrateSenderFinalized",
      "type": "event"
    },
    {
      "anonymous": false,
      "inputs": [
        {
          "components": [
            {
              "internalType": "address",
              "name": "l1Addr",
              "type": "address"
            },
            {
              "internalType": "address",
              "name": "l2Addr",
              "type": "address"
            },
            {
              "internalType": "uint256",
              "name": "total",
              "type": "uint256"
            },
            {
              "internalType": "uint256[]",
              "name": "unbondingLockIds",
              "type": "uint256[]"
            },
            {
              "internalType": "address",
              "name": "delegate",
              "type": "address"
            }
          ],
          "indexed": false,
          "internalType": "struct IMigrator.MigrateUnbondingLocksParams",
          "name": "params",
          "type": "tuple"
        }
      ],
      "name": "MigrateUnbondingLocksFinalized",
      "type": "event"
    },
    {
      "anonymous": false,
      "inputs": [
        {
          "indexed": true,
          "internalType": "bytes32",
          "name": "role",
          "type": "bytes32"
        },
        {
          "indexed": true,
          "internalType": "bytes32",
          "name": "previousAdminRole",
          "type": "bytes32"
        },
        {
          "indexed": true,
          "internalType": "bytes32",
          "name": "newAdminRole",
          "type": "bytes32"
        }
      ],
      "name": "RoleAdminChanged",
      "type": "event"
    },
    {
      "anonymous": false,
      "inputs": [
        {
          "indexed": true,
          "internalType": "bytes32",
          "name": "role",
          "type": "bytes32"
        },
        {
          "indexed": true,
          "internalType": "address",
          "name": "account",
          "type": "address"
        },
        {
          "indexed": true,
          "internalType": "address",
          "name": "sender",
          "type": "address"
        }
      ],
      "name": "RoleGranted",
      "type": "event"
    },
    {
      "anonymous": false,
      "inputs": [
        {
          "indexed": true,
          "internalType": "bytes32",
          "name": "role",
          "type": "bytes32"
        },
        {
          "indexed": true,
          "internalType": "address",
          "name": "account",
          "type": "address"
        },
        {
          "indexed": true,
          "internalType": "address",
          "name": "sender",
          "type": "address"
        }
      ],
      "name": "RoleRevoked",
      "type": "event"
    },
    {
      "anonymous": false,
      "inputs": [
        {
          "indexed": true,
          "internalType": "address",
          "name": "delegator",
          "type": "address"
        },
        {
          "indexed": false,
          "internalType": "address",
          "name": "delegate",
          "type": "address"
        },
        {
          "indexed": false,
          "internalType": "uint256",
          "name": "stake",
          "type": "uint256"
        },
        {
          "indexed": false,
          "internalType": "uint256",
          "name": "fees",
          "type": "uint256"
        }
      ],
      "name": "StakeClaimed",
      "type": "event"
    },
    {
      "anonymous": false,
      "inputs": [
        {
          "indexed": true,
          "internalType": "address",
          "name": "_from",
          "type": "address"
        },
        {
          "indexed": true,
          "internalType": "address",
          "name": "_to",
          "type": "address"
        },
        {
          "indexed": true,
          "internalType": "uint256",
          "name": "_id",
          "type": "uint256"
        },
        {
          "indexed": false,
          "internalType": "bytes",
          "name": "_data",
          "type": "bytes"
        }
      ],
      "name": "TxToL1",
      "type": "event"
    },
    {
      "inputs": [],
      "name": "DEFAULT_ADMIN_ROLE",
      "outputs": [
        {
          "internalType": "bytes32",
          "name": "",
          "type": "bytes32"
        }
      ],
      "stateMutability": "view",
      "type": "function"
    },
    {
      "inputs": [],
      "name": "GOVERNOR_ROLE",
      "outputs": [
        {
          "internalType": "bytes32",
          "name": "",
          "type": "bytes32"
        }
      ],
      "stateMutability": "view",
      "type": "function"
    },
    {
      "inputs": [],
      "name": "bondingManagerAddr",
      "outputs": [
        {
          "internalType": "address",
          "name": "",
          "type": "address"
        }
      ],
      "stateMutability": "view",
      "type": "function"
    },
    {
      "inputs": [
        {
          "internalType": "address",
          "name": "_delegate",
          "type": "address"
        },
        {
          "internalType": "uint256",
          "name": "_stake",
          "type": "uint256"
        },
        {
          "internalType": "uint256",
          "name": "_fees",
          "type": "uint256"
        },
        {
          "internalType": "bytes32[]",
          "name": "_proof",
          "type": "bytes32[]"
        },
        {
          "internalType": "address",
          "name": "_newDelegate",
          "type": "address"
        }
      ],
      "name": "claimStake",
      "outputs": [],
      "stateMutability": "nonpayable",
      "type": "function"
    },
    {
      "inputs": [],
      "name": "claimStakeEnabled",
      "outputs": [
        {
          "internalType": "bool",
          "name": "",
          "type": "bool"
        }
      ],
      "stateMutability": "view",
      "type": "function"
    },
    {
      "inputs": [
        {
          "internalType": "address",
          "name": "",
          "type": "address"
        }
      ],
      "name": "claimedDelegatedStake",
      "outputs": [
        {
          "internalType": "uint256",
          "name": "",
          "type": "uint256"
        }
      ],
      "stateMutability": "view",
      "type": "function"
    },
    {
      "inputs": [],
      "name": "delegatorPoolImpl",
      "outputs": [
        {
          "internalType": "address",
          "name": "",
          "type": "address"
        }
      ],
      "stateMutability": "view",
      "type": "function"
    },
    {
      "inputs": [
        {
          "internalType": "address",
          "name": "",
          "type": "address"
        }
      ],
      "name": "delegatorPools",
      "outputs": [
        {
          "internalType": "address",
          "name": "",
          "type": "address"
        }
      ],
      "stateMutability": "view",
      "type": "function"
    },
    {
      "inputs": [
        {
          "components": [
            {
              "internalType": "address",
              "name": "l1Addr",
              "type": "address"
            },
            {
              "internalType": "address",
              "name": "l2Addr",
              "type": "address"
            },
            {
              "internalType": "uint256",
              "name": "stake",
              "type": "uint256"
            },
            {
              "internalType": "uint256",
              "name": "delegatedStake",
              "type": "uint256"
            },
            {
              "internalType": "uint256",
              "name": "fees",
              "type": "uint256"
            },
            {
              "internalType": "address",
              "name": "delegate",
              "type": "address"
            }
          ],
          "internalType": "struct IMigrator.MigrateDelegatorParams",
          "name": "_params",
          "type": "tuple"
        }
      ],
      "name": "finalizeMigrateDelegator",
      "outputs": [],
      "stateMutability": "nonpayable",
      "type": "function"
    },
    {
      "inputs": [
        {
          "components": [
            {
              "internalType": "address",
              "name": "l1Addr",
              "type": "address"
            },
            {
              "internalType": "address",
              "name": "l2Addr",
              "type": "address"
            },
            {
              "internalType": "uint256",
              "name": "deposit",
              "type": "uint256"
            },
            {
              "internalType": "uint256",
              "name": "reserve",
              "type": "uint256"
            }
          ],
          "internalType": "struct IMigrator.MigrateSenderParams",
          "name": "_params",
          "type": "tuple"
        }
      ],
      "name": "finalizeMigrateSender",
      "outputs": [],
      "stateMutability": "nonpayable",
      "type": "function"
    },
    {
      "inputs": [
        {
          "components": [
            {
              "internalType": "address",
              "name": "l1Addr",
              "type": "address"
            },
            {
              "internalType": "address",
              "name": "l2Addr",
              "type": "address"
            },
            {
              "internalType": "uint256",
              "name": "total",
              "type": "uint256"
            },
            {
              "internalType": "uint256[]",
              "name": "unbondingLockIds",
              "type": "uint256[]"
            },
            {
              "internalType": "address",
              "name": "delegate",
              "type": "address"
            }
          ],
          "internalType": "struct IMigrator.MigrateUnbondingLocksParams",
          "name": "_params",
          "type": "tuple"
        }
      ],
      "name": "finalizeMigrateUnbondingLocks",
      "outputs": [],
      "stateMutability": "nonpayable",
      "type": "function"
    },
    {
      "inputs": [
        {
          "internalType": "bytes32",
          "name": "role",
          "type": "bytes32"
        }
      ],
      "name": "getRoleAdmin",
      "outputs": [
        {
          "internalType": "bytes32",
          "name": "",
          "type": "bytes32"
        }
      ],
      "stateMutability": "view",
      "type": "function"
    },
    {
      "inputs": [
        {
          "internalType": "bytes32",
          "name": "role",
          "type": "bytes32"
        },
        {
          "internalType": "address",
          "name": "account",
          "type": "address"
        }
      ],
      "name": "grantRole",
      "outputs": [],
      "stateMutability": "nonpayable",
      "type": "function"
    },
    {
      "inputs": [
        {
          "internalType": "bytes32",
          "name": "role",
          "type": "bytes32"
        },
        {
          "internalType": "address",
          "name": "account",
          "type": "address"
        }
      ],
      "name": "hasRole",
      "outputs": [
        {
          "internalType": "bool",
          "name": "",
          "type": "bool"
        }
      ],
      "stateMutability": "view",
      "type": "function"
    },
    {
      "inputs": [],
      "name": "l1Migrator",
      "outputs": [
        {
          "internalType": "address",
          "name": "",
          "type": "address"
        }
      ],
      "stateMutability": "view",
      "type": "function"
    },
    {
      "inputs": [],
      "name": "merkleSnapshotAddr",
      "outputs": [
        {
          "internalType": "address",
          "name": "",
          "type": "address"
        }
      ],
      "stateMutability": "view",
      "type": "function"
    },
    {
      "inputs": [
        {
          "internalType": "address",
          "name": "",
          "type": "address"
        }
      ],
      "name": "migratedDelegators",
      "outputs": [
        {
          "internalType": "bool",
          "name": "",
          "type": "bool"
        }
      ],
      "stateMutability": "view",
      "type": "function"
    },
    {
      "inputs": [
        {
          "internalType": "address",
          "name": "",
          "type": "address"
        }
      ],
      "name": "migratedSenders",
      "outputs": [
        {
          "internalType": "bool",
          "name": "",
          "type": "bool"
        }
      ],
      "stateMutability": "view",
      "type": "function"
    },
    {
      "inputs": [
        {
          "internalType": "address",
          "name": "",
          "type": "address"
        },
        {
          "internalType": "uint256",
          "name": "",
          "type": "uint256"
        }
      ],
      "name": "migratedUnbondingLocks",
      "outputs": [
        {
          "internalType": "bool",
          "name": "",
          "type": "bool"
        }
      ],
      "stateMutability": "view",
      "type": "function"
    },
    {
      "inputs": [
        {
          "internalType": "bytes32",
          "name": "role",
          "type": "bytes32"
        },
        {
          "internalType": "address",
          "name": "account",
          "type": "address"
        }
      ],
      "name": "renounceRole",
      "outputs": [],
      "stateMutability": "nonpayable",
      "type": "function"
    },
    {
      "inputs": [
        {
          "internalType": "bytes32",
          "name": "role",
          "type": "bytes32"
        },
        {
          "internalType": "address",
          "name": "account",
          "type": "address"
        }
      ],
      "name": "revokeRole",
      "outputs": [],
      "stateMutability": "nonpayable",
      "type": "function"
    },
    {
      "inputs": [
        {
          "internalType": "bool",
          "name": "_enabled",
          "type": "bool"
        }
      ],
      "name": "setClaimStakeEnabled",
      "outputs": [],
      "stateMutability": "nonpayable",
      "type": "function"
    },
    {
      "inputs": [
        {
          "internalType": "address",
          "name": "_delegatorPoolImpl",
          "type": "address"
        }
      ],
      "name": "setDelegatorPoolImpl",
      "outputs": [],
      "stateMutability": "nonpayable",
      "type": "function"
    },
    {
      "inputs": [
        {
          "internalType": "address",
          "name": "_l1Migrator",
          "type": "address"
        }
      ],
      "name": "setL1Migrator",
      "outputs": [],
      "stateMutability": "nonpayable",
      "type": "function"
    },
    {
      "inputs": [
        {
          "internalType": "bytes4",
          "name": "interfaceId",
          "type": "bytes4"
        }
      ],
      "name": "supportsInterface",
      "outputs": [
        {
          "internalType": "bool",
          "name": "",
          "type": "bool"
        }
      ],
      "stateMutability": "view",
      "type": "function"
    },
    {
      "inputs": [],
      "name": "ticketBrokerAddr",
      "outputs": [
        {
          "internalType": "address",
          "name": "",
          "type": "address"
        }
      ],
      "stateMutability": "view",
      "type": "function"
    },
    {
      "inputs": [],
      "name": "tokenAddr",
      "outputs": [
        {
          "internalType": "address",
          "name": "",
          "type": "address"
        }
      ],
      "stateMutability": "view",
      "type": "function"
    },
    {
      "stateMutability": "payable",
      "type": "receive"
    }
  ],
  "transactionHash": "0x8a571196d87dab3dba3cc279c9d6b97a39525a6fabcc9bf7301d3165c68aefaa",
  "args": [
    "0x0000000000000000000000000000000000000000",
    "0x6CAe93Ce3CA5E4Ef329e3A6f3B882A749e89c0ae",
    "0x68B463bcA7d561118636e9f028fF0F2e8398dd6a",
    "0xf623811b08b45792d0223D77d9c922dAE29712eC",
    "0x55cfb784ca12744275d9742B843486225C695e64",
    "0xA9d5D66a6CCAc3D50dc7bfe4baC7A1EDDbB3cE16"
  ],
  "solcInputHash": "b6700406fa88b0de26d111360cad74a0",
  "bytecode": "0x6101006040523480156200001257600080fd5b5060405162003e0438038062003e0483398181016040528101906200003891906200040d565b6200005c6000801b62000050620001fb60201b60201c565b6200020360201b60201c565b620000917f7935bd0ae54bc31f548c14dba4d37c5c64b3f8ca900cb468fb8abd54d5894f556000801b6200021960201b60201c565b85600160006101000a81548173ffffffffffffffffffffffffffffffffffffffff021916908373ffffffffffffffffffffffffffffffffffffffff16021790555084600260006101000a81548173ffffffffffffffffffffffffffffffffffffffff021916908373ffffffffffffffffffffffffffffffffffffffff1602179055508373ffffffffffffffffffffffffffffffffffffffff1660808173ffffffffffffffffffffffffffffffffffffffff1660601b815250508273ffffffffffffffffffffffffffffffffffffffff1660a08173ffffffffffffffffffffffffffffffffffffffff1660601b815250508173ffffffffffffffffffffffffffffffffffffffff1660c08173ffffffffffffffffffffffffffffffffffffffff1660601b815250508073ffffffffffffffffffffffffffffffffffffffff1660e08173ffffffffffffffffffffffffffffffffffffffff1660601b81525050505050505050620004f1565b600033905090565b6200021582826200027c60201b60201c565b5050565b60006200022c836200036d60201b60201c565b905081600080858152602001908152602001600020600101819055508181847fbd79b86ffe0ab8e8776151514217cd7cacd52c909f66475c3af44e129f0b00ff60405160405180910390a4505050565b6200028e82826200038c60201b60201c565b6200036957600160008084815260200190815260200160002060000160008373ffffffffffffffffffffffffffffffffffffffff1673ffffffffffffffffffffffffffffffffffffffff16815260200190815260200160002060006101000a81548160ff0219169083151502179055506200030e620001fb60201b60201c565b73ffffffffffffffffffffffffffffffffffffffff168173ffffffffffffffffffffffffffffffffffffffff16837f2f8788117e7eff1d82e926ec794901d17c78024a50270940304540a733656f0d60405160405180910390a45b5050565b6000806000838152602001908152602001600020600101549050919050565b600080600084815260200190815260200160002060000160008373ffffffffffffffffffffffffffffffffffffffff1673ffffffffffffffffffffffffffffffffffffffff16815260200190815260200160002060009054906101000a900460ff16905092915050565b6000815190506200040781620004d7565b92915050565b60008060008060008060c087890312156200042757600080fd5b60006200043789828a01620003f6565b96505060206200044a89828a01620003f6565b95505060406200045d89828a01620003f6565b94505060606200047089828a01620003f6565b93505060806200048389828a01620003f6565b92505060a06200049689828a01620003f6565b9150509295509295509295565b6000620004b082620004b7565b9050919050565b600073ffffffffffffffffffffffffffffffffffffffff82169050919050565b620004e281620004a3565b8114620004ee57600080fd5b50565b60805160601c60a05160601c60c05160601c60e05160601c6138a362000561600039600081816113510152611b82015260008181610f1d015261132d0152600081816113c40152611668015260008181610a3401528181611aa601528181611b5f0152611bbe01526138a36000f3fe6080604052600436106101a05760003560e01c80638f2c17ed116100ec578063b76087361161008a578063d0b1cba211610064578063d0b1cba2146105f5578063d2f40c5a14610620578063d547741f1461065d578063e89320e514610686576101a7565b8063b760873614610578578063cc14c988146105a1578063ccc57490146105ca576101a7565b806396f995a2116100c657806396f995a2146104ce578063a0965da5146104f9578063a217fddf14610524578063b3f5ccae1461054f576101a7565b80638f2c17ed1461043d57806391d1485414610468578063923f475c146104a5576101a7565b80633aceba5d116101595780635cf207f8116101335780635cf207f81461036d5780635fbe4d1d1461039857806389bec344146103c35780638a716fbb14610400576101a7565b80633aceba5d146102ca5780633f1c49cc146103075780635118d8cf14610330576101a7565b806301ffc9a7146101ac5780631a0725d8146101e957806324583d9714610212578063248a9ca31461023b5780632f2ff15d1461027857806336568abe146102a1576101a7565b366101a757005b600080fd5b3480156101b857600080fd5b506101d360048036038101906101ce919061279d565b6106b1565b6040516101e09190612e3e565b60405180910390f35b3480156101f557600080fd5b50610210600480360381019061020b91906127c6565b61072b565b005b34801561021e57600080fd5b50610239600480360381019061023491906125ef565b610d85565b005b34801561024757600080fd5b50610262600480360381019061025d9190612738565b610ddf565b60405161026f9190612e59565b60405180910390f35b34801561028457600080fd5b5061029f600480360381019061029a9190612761565b610dfe565b005b3480156102ad57600080fd5b506102c860048036038101906102c39190612761565b610e27565b005b3480156102d657600080fd5b506102f160048036038101906102ec91906125ef565b610eaa565b6040516102fe9190612e3e565b60405180910390f35b34801561031357600080fd5b5061032e60048036038101906103299190612654565b610eca565b005b34801561033c57600080fd5b50610357600480360381019061035291906125ef565b611313565b604051610364919061306e565b60405180910390f35b34801561037957600080fd5b5061038261132b565b60405161038f9190612dc3565b60405180910390f35b3480156103a457600080fd5b506103ad61134f565b6040516103ba9190612dc3565b60405180910390f35b3480156103cf57600080fd5b506103ea60048036038101906103e59190612618565b611373565b6040516103f79190612e3e565b60405180910390f35b34801561040c57600080fd5b50610427600480360381019061042291906125ef565b6113a2565b6040516104349190612e3e565b60405180910390f35b34801561044957600080fd5b506104526113c2565b60405161045f9190612dc3565b60405180910390f35b34801561047457600080fd5b5061048f600480360381019061048a9190612761565b6113e6565b60405161049c9190612e3e565b60405180910390f35b3480156104b157600080fd5b506104cc60048036038101906104c791906126e6565b611450565b005b3480156104da57600080fd5b506104e36114a0565b6040516104f09190612e3e565b60405180910390f35b34801561050557600080fd5b5061050e6114b3565b60405161051b9190612dc3565b60405180910390f35b34801561053057600080fd5b506105396114d9565b6040516105469190612e59565b60405180910390f35b34801561055b57600080fd5b50610576600480360381019061057191906127ef565b6114e0565b005b34801561058457600080fd5b5061059f600480360381019061059a91906125ef565b61173c565b005b3480156105ad57600080fd5b506105c860048036038101906105c39190612818565b611796565b005b3480156105d657600080fd5b506105df6119fe565b6040516105ec9190612e59565b60405180910390f35b34801561060157600080fd5b5061060a611a22565b6040516106179190612dc3565b60405180910390f35b34801561062c57600080fd5b50610647600480360381019061064291906125ef565b611a48565b6040516106549190612dc3565b60405180910390f35b34801561066957600080fd5b50610684600480360381019061067f9190612761565b611a7b565b005b34801561069257600080fd5b5061069b611aa4565b6040516106a89190612dc3565b60405180910390f35b60007f7965db0b000000000000000000000000000000000000000000000000000000007bffffffffffffffffffffffffffffffffffffffffffffffffffffffff1916827bffffffffffffffffffffffffffffffffffffffffffffffffffffffff19161480610724575061072382611ac8565b5b9050919050565b600160009054906101000a900473ffffffffffffffffffffffffffffffffffffffff1661075781611b32565b73ffffffffffffffffffffffffffffffffffffffff163373ffffffffffffffffffffffffffffffffffffffff16146107c4576040517f08c379a00000000000000000000000000000000000000000000000000000000081526004016107bb90612fd6565b60405180910390fd5b60036000836000015173ffffffffffffffffffffffffffffffffffffffff1673ffffffffffffffffffffffffffffffffffffffff16815260200190815260200160002060009054906101000a900460ff1615610855576040517f08c379a000000000000000000000000000000000000000000000000000000000815260040161084c90612f76565b60405180910390fd5b600160036000846000015173ffffffffffffffffffffffffffffffffffffffff1673ffffffffffffffffffffffffffffffffffffffff16815260200190815260200160002060006101000a81548160ff0219169083151502179055508160a0015173ffffffffffffffffffffffffffffffffffffffff16826000015173ffffffffffffffffffffffffffffffffffffffff161415610af957610904826040015183602001518460a00151611b5b565b6000610931600260009054906101000a900473ffffffffffffffffffffffffffffffffffffffff16611cac565b90508060046000856000015173ffffffffffffffffffffffffffffffffffffffff1673ffffffffffffffffffffffffffffffffffffffff16815260200190815260200160002060006101000a81548173ffffffffffffffffffffffffffffffffffffffff021916908373ffffffffffffffffffffffffffffffffffffffff160217905550610a1660056000856000015173ffffffffffffffffffffffffffffffffffffffff1673ffffffffffffffffffffffffffffffffffffffff168152602001908152602001600020548460600151610a0b91906132bf565b828560a00151611b5b565b8073ffffffffffffffffffffffffffffffffffffffff1663c4d66de87f00000000000000000000000000000000000000000000000000000000000000006040518263ffffffff1660e01b8152600401610a6f9190612dc3565b600060405180830381600087803b158015610a8957600080fd5b505af1158015610a9d573d6000803e3d6000fd5b50505050826000015173ffffffffffffffffffffffffffffffffffffffff167ff8a0d4273560c59d7022f3feaae470fc5b68c55cff078a6ab7e618203b53041882604051610aeb9190612dc3565b60405180910390a250610c29565b6000600460008460a0015173ffffffffffffffffffffffffffffffffffffffff1673ffffffffffffffffffffffffffffffffffffffff16815260200190815260200160002060009054906101000a900473ffffffffffffffffffffffffffffffffffffffff169050600073ffffffffffffffffffffffffffffffffffffffff168173ffffffffffffffffffffffffffffffffffffffff1614610c0f578073ffffffffffffffffffffffffffffffffffffffff1663aad3ec96846020015185604001516040518363ffffffff1660e01b8152600401610bd8929190612dde565b600060405180830381600087803b158015610bf257600080fd5b505af1158015610c06573d6000803e3d6000fd5b50505050610c27565b610c26836040015184602001518560a00151611b5b565b5b505b8160400151600560008460a0015173ffffffffffffffffffffffffffffffffffffffff1673ffffffffffffffffffffffffffffffffffffffff1681526020019081526020016000206000828254610c80919061320f565b92505081905550600082608001511115610d4a576000826020015173ffffffffffffffffffffffffffffffffffffffff168360800151604051610cc290612d74565b60006040518083038185875af1925050503d8060008114610cff576040519150601f19603f3d011682016040523d82523d6000602084013e610d04565b606091505b5050905080610d48576040517f08c379a0000000000000000000000000000000000000000000000000000000008152600401610d3f90612f56565b60405180910390fd5b505b7fab2cb96eeb8726c709227935b01f6a5c6f7e9b518ab69eda0670c7ceda752d1a82604051610d799190613016565b60405180910390a15050565b6000801b610d9a81610d95611d81565b611d89565b81600260006101000a81548173ffffffffffffffffffffffffffffffffffffffff021916908373ffffffffffffffffffffffffffffffffffffffff1602179055505050565b6000806000838152602001908152602001600020600101549050919050565b610e0782610ddf565b610e1881610e13611d81565b611d89565b610e228383611e26565b505050565b610e2f611d81565b73ffffffffffffffffffffffffffffffffffffffff168173ffffffffffffffffffffffffffffffffffffffff1614610e9c576040517f08c379a0000000000000000000000000000000000000000000000000000000008152600401610e9390612ff6565b60405180910390fd5b610ea68282611f06565b5050565b60076020528060005260406000206000915054906101000a900460ff1681565b600260149054906101000a900460ff16610f19576040517f08c379a0000000000000000000000000000000000000000000000000000000008152600401610f1090612f16565b60405180910390fd5b60007f000000000000000000000000000000000000000000000000000000000000000090506000339050600081898989604051602001610f5c9493929190612d26565b6040516020818303038152906040528051906020012090508273ffffffffffffffffffffffffffffffffffffffff16630a02831c7facef05f736f89c16facc0f940c13f4c3a386cf48a9b54b50f59defd8b301c40a8888856040518563ffffffff1660e01b8152600401610fd39493929190612e74565b60206040518083038186803b158015610feb57600080fd5b505afa158015610fff573d6000803e3d6000fd5b505050506040513d601f19601f82011682018060405250810190611023919061270f565b611062576040517f08c379a000000000000000000000000000000000000000000000000000000000815260040161105990612f96565b60405180910390fd5b6001600360008473ffffffffffffffffffffffffffffffffffffffff1673ffffffffffffffffffffffffffffffffffffffff16815260200190815260200160002060006101000a81548160ff02191690831515021790555087600560008b73ffffffffffffffffffffffffffffffffffffffff1673ffffffffffffffffffffffffffffffffffffffff1681526020019081526020016000206000828254611109919061320f565b925050819055506000600460008b73ffffffffffffffffffffffffffffffffffffffff1673ffffffffffffffffffffffffffffffffffffffff16815260200190815260200160002060009054906101000a900473ffffffffffffffffffffffffffffffffffffffff16905060008a9050600073ffffffffffffffffffffffffffffffffffffffff168673ffffffffffffffffffffffffffffffffffffffff16146111b1578590505b600073ffffffffffffffffffffffffffffffffffffffff168273ffffffffffffffffffffffffffffffffffffffff1614611257578173ffffffffffffffffffffffffffffffffffffffff1663aad3ec96858c6040518363ffffffff1660e01b8152600401611220929190612dde565b600060405180830381600087803b15801561123a57600080fd5b505af115801561124e573d6000803e3d6000fd5b50505050611263565b6112628a8583611b5b565b5b60008911156112b4578373ffffffffffffffffffffffffffffffffffffffff166108fc8a9081150290604051600060405180830381858888f193505050501580156112b2573d6000803e3d6000fd5b505b8373ffffffffffffffffffffffffffffffffffffffff167fc08c27d872ca12215b2df3f441676fe2c084a204a487086d7436a4ac433d417a828c8c6040516112fe93929190612e07565b60405180910390a25050505050505050505050565b60056020528060005260406000206000915090505481565b7f000000000000000000000000000000000000000000000000000000000000000081565b7f000000000000000000000000000000000000000000000000000000000000000081565b60066020528160005260406000206020528060005260406000206000915091509054906101000a900460ff1681565b60036020528060005260406000206000915054906101000a900460ff1681565b7f000000000000000000000000000000000000000000000000000000000000000081565b600080600084815260200190815260200160002060000160008373ffffffffffffffffffffffffffffffffffffffff1673ffffffffffffffffffffffffffffffffffffffff16815260200190815260200160002060009054906101000a900460ff16905092915050565b7f7935bd0ae54bc31f548c14dba4d37c5c64b3f8ca900cb468fb8abd54d5894f556114828161147d611d81565b611d89565b81600260146101000a81548160ff0219169083151502179055505050565b600260149054906101000a900460ff1681565b600160009054906101000a900473ffffffffffffffffffffffffffffffffffffffff1681565b6000801b81565b600160009054906101000a900473ffffffffffffffffffffffffffffffffffffffff1661150c81611b32565b73ffffffffffffffffffffffffffffffffffffffff163373ffffffffffffffffffffffffffffffffffffffff1614611579576040517f08c379a000000000000000000000000000000000000000000000000000000000815260040161157090612fd6565b60405180910390fd5b60076000836000015173ffffffffffffffffffffffffffffffffffffffff1673ffffffffffffffffffffffffffffffffffffffff16815260200190815260200160002060009054906101000a900460ff161561160a576040517f08c379a000000000000000000000000000000000000000000000000000000000815260040161160190612ef6565b60405180910390fd5b600160076000846000015173ffffffffffffffffffffffffffffffffffffffff1673ffffffffffffffffffffffffffffffffffffffff16815260200190815260200160002060006101000a81548160ff0219169083151502179055507f000000000000000000000000000000000000000000000000000000000000000073ffffffffffffffffffffffffffffffffffffffff1663989f789c8360200151846040015185606001516040518463ffffffff1660e01b81526004016116cf93929190612e07565b600060405180830381600087803b1580156116e957600080fd5b505af11580156116fd573d6000803e3d6000fd5b505050507f71adb0cec7763a4cfefd893fc873369117ed172979f7b8f7b683f6a5787c52c0826040516117309190613031565b60405180910390a15050565b6000801b6117518161174c611d81565b611d89565b81600160006101000a81548173ffffffffffffffffffffffffffffffffffffffff021916908373ffffffffffffffffffffffffffffffffffffffff1602179055505050565b600160009054906101000a900473ffffffffffffffffffffffffffffffffffffffff166117c281611b32565b73ffffffffffffffffffffffffffffffffffffffff163373ffffffffffffffffffffffffffffffffffffffff161461182f576040517f08c379a000000000000000000000000000000000000000000000000000000000815260040161182690612fd6565b60405180910390fd5b60005b8260600151518110156119ab5760008360600151828151811061187e577f4e487b7100000000000000000000000000000000000000000000000000000000600052603260045260246000fd5b6020026020010151905060066000856000015173ffffffffffffffffffffffffffffffffffffffff1673ffffffffffffffffffffffffffffffffffffffff168152602001908152602001600020600082815260200190815260200160002060009054906101000a900460ff161561192a576040517f08c379a000000000000000000000000000000000000000000000000000000000815260040161192190612fb6565b60405180910390fd5b600160066000866000015173ffffffffffffffffffffffffffffffffffffffff1673ffffffffffffffffffffffffffffffffffffffff168152602001908152602001600020600083815260200190815260200160002060006101000a81548160ff0219169083151502179055505080806119a39061340e565b915050611832565b506119c3826040015183602001518460800151611b5b565b7f9e36876ab9fc404649651fb29b8aebacf24393e00799e53abef98a59c5a00394826040516119f2919061304c565b60405180910390a15050565b7f7935bd0ae54bc31f548c14dba4d37c5c64b3f8ca900cb468fb8abd54d5894f5581565b600260009054906101000a900473ffffffffffffffffffffffffffffffffffffffff1681565b60046020528060005260406000206000915054906101000a900473ffffffffffffffffffffffffffffffffffffffff1681565b611a8482610ddf565b611a9581611a90611d81565b611d89565b611a9f8383611f06565b505050565b7f000000000000000000000000000000000000000000000000000000000000000081565b60007f01ffc9a7000000000000000000000000000000000000000000000000000000007bffffffffffffffffffffffffffffffffffffffffffffffffffffffff1916827bffffffffffffffffffffffffffffffffffffffffffffffffffffffff1916149050919050565b600073111100000000000000000000000000000000111182611b5491906131c5565b9050919050565b60007f000000000000000000000000000000000000000000000000000000000000000090507f000000000000000000000000000000000000000000000000000000000000000073ffffffffffffffffffffffffffffffffffffffff1663095ea7b37f0000000000000000000000000000000000000000000000000000000000000000866040518363ffffffff1660e01b8152600401611bfb929190612dde565b600060405180830381600087803b158015611c1557600080fd5b505af1158015611c29573d6000803e3d6000fd5b505050508073ffffffffffffffffffffffffffffffffffffffff1663ee4e804a8585856000806000806040518863ffffffff1660e01b8152600401611c749796959493929190613089565b600060405180830381600087803b158015611c8e57600080fd5b505af1158015611ca2573d6000803e3d6000fd5b5050505050505050565b60006040517f3d602d80600a3d3981f3363d3d373d3d3d363d7300000000000000000000000081528260601b60148201527f5af43d82803e903d91602b57fd5bf3000000000000000000000000000000000060288201526037816000f0915050600073ffffffffffffffffffffffffffffffffffffffff168173ffffffffffffffffffffffffffffffffffffffff161415611d7c576040517f08c379a0000000000000000000000000000000000000000000000000000000008152600401611d7390612f36565b60405180910390fd5b919050565b600033905090565b611d9382826113e6565b611e2257611db88173ffffffffffffffffffffffffffffffffffffffff166014611fe7565b611dc68360001c6020611fe7565b604051602001611dd7929190612d89565b6040516020818303038152906040526040517f08c379a0000000000000000000000000000000000000000000000000000000008152600401611e199190612eb4565b60405180910390fd5b5050565b611e3082826113e6565b611f0257600160008084815260200190815260200160002060000160008373ffffffffffffffffffffffffffffffffffffffff1673ffffffffffffffffffffffffffffffffffffffff16815260200190815260200160002060006101000a81548160ff021916908315150217905550611ea7611d81565b73ffffffffffffffffffffffffffffffffffffffff168173ffffffffffffffffffffffffffffffffffffffff16837f2f8788117e7eff1d82e926ec794901d17c78024a50270940304540a733656f0d60405160405180910390a45b5050565b611f1082826113e6565b15611fe357600080600084815260200190815260200160002060000160008373ffffffffffffffffffffffffffffffffffffffff1673ffffffffffffffffffffffffffffffffffffffff16815260200190815260200160002060006101000a81548160ff021916908315150217905550611f88611d81565b73ffffffffffffffffffffffffffffffffffffffff168173ffffffffffffffffffffffffffffffffffffffff16837ff6391f5c32d9c69d2a47ea670b442974b53935d1edc7fd64eb21e047a839171b60405160405180910390a45b5050565b606060006002836002611ffa9190613265565b612004919061320f565b67ffffffffffffffff811115612043577f4e487b7100000000000000000000000000000000000000000000000000000000600052604160045260246000fd5b6040519080825280601f01601f1916602001820160405280156120755781602001600182028036833780820191505090505b5090507f3000000000000000000000000000000000000000000000000000000000000000816000815181106120d3577f4e487b7100000000000000000000000000000000000000000000000000000000600052603260045260246000fd5b60200101907effffffffffffffffffffffffffffffffffffffffffffffffffffffffffffff1916908160001a9053507f78000000000000000000000000000000000000000000000000000000000000008160018151811061215d577f4e487b7100000000000000000000000000000000000000000000000000000000600052603260045260246000fd5b60200101907effffffffffffffffffffffffffffffffffffffffffffffffffffffffffffff1916908160001a9053506000600184600261219d9190613265565b6121a7919061320f565b90505b6001811115612293577f3031323334353637383961626364656600000000000000000000000000000000600f86166010811061220f577f4e487b7100000000000000000000000000000000000000000000000000000000600052603260045260246000fd5b1a60f81b82828151811061224c577f4e487b7100000000000000000000000000000000000000000000000000000000600052603260045260246000fd5b60200101907effffffffffffffffffffffffffffffffffffffffffffffffffffffffffffff1916908160001a905350600485901c94508061228c906133b3565b90506121aa565b50600084146122d7576040517f08c379a00000000000000000000000000000000000000000000000000000000081526004016122ce90612ed6565b60405180910390fd5b8091505092915050565b60006122f46122ef8461311d565b6130f8565b9050808382526020820190508285602086028201111561231357600080fd5b60005b85811015612343578161232988826125da565b845260208401935060208301925050600181019050612316565b5050509392505050565b60008135905061235c816137fa565b92915050565b60008083601f84011261237457600080fd5b8235905067ffffffffffffffff81111561238d57600080fd5b6020830191508360208202830111156123a557600080fd5b9250929050565b600082601f8301126123bd57600080fd5b81356123cd8482602086016122e1565b91505092915050565b6000813590506123e581613811565b92915050565b6000815190506123fa81613811565b92915050565b60008135905061240f81613828565b92915050565b6000813590506124248161383f565b92915050565b600060c0828403121561243c57600080fd5b61244660c06130f8565b905060006124568482850161234d565b600083015250602061246a8482850161234d565b602083015250604061247e848285016125da565b6040830152506060612492848285016125da565b60608301525060806124a6848285016125da565b60808301525060a06124ba8482850161234d565b60a08301525092915050565b6000608082840312156124d857600080fd5b6124e260806130f8565b905060006124f28482850161234d565b60008301525060206125068482850161234d565b602083015250604061251a848285016125da565b604083015250606061252e848285016125da565b60608301525092915050565b600060a0828403121561254c57600080fd5b61255660a06130f8565b905060006125668482850161234d565b600083015250602061257a8482850161234d565b602083015250604061258e848285016125da565b604083015250606082013567ffffffffffffffff8111156125ae57600080fd5b6125ba848285016123ac565b60608301525060806125ce8482850161234d565b60808301525092915050565b6000813590506125e981613856565b92915050565b60006020828403121561260157600080fd5b600061260f8482850161234d565b91505092915050565b6000806040838503121561262b57600080fd5b60006126398582860161234d565b925050602061264a858286016125da565b9150509250929050565b60008060008060008060a0878903121561266d57600080fd5b600061267b89828a0161234d565b965050602061268c89828a016125da565b955050604061269d89828a016125da565b945050606087013567ffffffffffffffff8111156126ba57600080fd5b6126c689828a01612362565b935093505060806126d989828a0161234d565b9150509295509295509295565b6000602082840312156126f857600080fd5b6000612706848285016123d6565b91505092915050565b60006020828403121561272157600080fd5b600061272f848285016123eb565b91505092915050565b60006020828403121561274a57600080fd5b600061275884828501612400565b91505092915050565b6000806040838503121561277457600080fd5b600061278285828601612400565b92505060206127938582860161234d565b9150509250929050565b6000602082840312156127af57600080fd5b60006127bd84828501612415565b91505092915050565b600060c082840312156127d857600080fd5b60006127e68482850161242a565b91505092915050565b60006080828403121561280157600080fd5b600061280f848285016124c6565b91505092915050565b60006020828403121561282a57600080fd5b600082013567ffffffffffffffff81111561284457600080fd5b6128508482850161253a565b91505092915050565b60006128658383612cf1565b60208301905092915050565b61287a816132f3565b82525050565b612889816132f3565b82525050565b6128a061289b826132f3565b613457565b82525050565b60006128b2838561317c565b93507f07ffffffffffffffffffffffffffffffffffffffffffffffffffffffffffffff8311156128e157600080fd5b6020830292506128f2838584613371565b82840190509392505050565b600061290982613159565b612913818561318d565b935061291e83613149565b8060005b8381101561294f5781516129368882612859565b97506129418361316f565b925050600181019050612922565b5085935050505092915050565b61296581613305565b82525050565b61297481613311565b82525050565b600061298582613164565b61298f81856131a9565b935061299f818560208601613380565b6129a8816134e3565b840191505092915050565b60006129be82613164565b6129c881856131ba565b93506129d8818560208601613380565b80840191505092915050565b60006129f16020836131a9565b91506129fc82613501565b602082019050919050565b6000612a146032836131a9565b9150612a1f8261352a565b604082019050919050565b6000612a37602b836131a9565b9150612a4282613579565b604082019050919050565b6000612a5a6016836131a9565b9150612a65826135c8565b602082019050919050565b6000612a7d602d836131a9565b9150612a88826135f1565b604082019050919050565b6000612aa06035836131a9565b9150612aab82613640565b604082019050919050565b6000612ac36024836131a9565b9150612ace8261368f565b604082019050919050565b6000612ae660008361319e565b9150612af1826136de565b600082019050919050565b6000612b09603a836131a9565b9150612b14826136e1565b604082019050919050565b6000612b2c6017836131ba565b9150612b3782613730565b601782019050919050565b6000612b4f6018836131a9565b9150612b5a82613759565b602082019050919050565b6000612b726011836131ba565b9150612b7d82613782565b601182019050919050565b6000612b95602f836131a9565b9150612ba0826137ab565b604082019050919050565b60c082016000820151612bc16000850182612871565b506020820151612bd46020850182612871565b506040820151612be76040850182612cf1565b506060820151612bfa6060850182612cf1565b506080820151612c0d6080850182612cf1565b5060a0820151612c2060a0850182612871565b50505050565b608082016000820151612c3c6000850182612871565b506020820151612c4f6020850182612871565b506040820151612c626040850182612cf1565b506060820151612c756060850182612cf1565b50505050565b600060a083016000830151612c936000860182612871565b506020830151612ca66020860182612871565b506040830151612cb96040860182612cf1565b5060608301518482036060860152612cd182826128fe565b9150506080830151612ce66080860182612871565b508091505092915050565b612cfa81613367565b82525050565b612d0981613367565b82525050565b612d20612d1b82613367565b61347b565b82525050565b6000612d32828761288f565b601482019150612d42828661288f565b601482019150612d528285612d0f565b602082019150612d628284612d0f565b60208201915081905095945050505050565b6000612d7f82612ad9565b9150819050919050565b6000612d9482612b1f565b9150612da082856129b3565b9150612dab82612b65565b9150612db782846129b3565b91508190509392505050565b6000602082019050612dd86000830184612880565b92915050565b6000604082019050612df36000830185612880565b612e006020830184612d00565b9392505050565b6000606082019050612e1c6000830186612880565b612e296020830185612d00565b612e366040830184612d00565b949350505050565b6000602082019050612e53600083018461295c565b92915050565b6000602082019050612e6e600083018461296b565b92915050565b6000606082019050612e89600083018761296b565b8181036020830152612e9c8185876128a6565b9050612eab604083018461296b565b95945050505050565b60006020820190508181036000830152612ece818461297a565b905092915050565b60006020820190508181036000830152612eef816129e4565b9050919050565b60006020820190508181036000830152612f0f81612a07565b9050919050565b60006020820190508181036000830152612f2f81612a2a565b9050919050565b60006020820190508181036000830152612f4f81612a4d565b9050919050565b60006020820190508181036000830152612f6f81612a70565b9050919050565b60006020820190508181036000830152612f8f81612a93565b9050919050565b60006020820190508181036000830152612faf81612ab6565b9050919050565b60006020820190508181036000830152612fcf81612afc565b9050919050565b60006020820190508181036000830152612fef81612b42565b9050919050565b6000602082019050818103600083015261300f81612b88565b9050919050565b600060c08201905061302b6000830184612bab565b92915050565b60006080820190506130466000830184612c26565b92915050565b600060208201905081810360008301526130668184612c7b565b905092915050565b60006020820190506130836000830184612d00565b92915050565b600060e08201905061309e600083018a612d00565b6130ab6020830189612880565b6130b86040830188612880565b6130c56060830187612880565b6130d26080830186612880565b6130df60a0830185612880565b6130ec60c0830184612880565b98975050505050505050565b6000613102613113565b905061310e82826133dd565b919050565b6000604051905090565b600067ffffffffffffffff821115613138576131376134b4565b5b602082029050602081019050919050565b6000819050602082019050919050565b600081519050919050565b600081519050919050565b6000602082019050919050565b600082825260208201905092915050565b600082825260208201905092915050565b600081905092915050565b600082825260208201905092915050565b600081905092915050565b60006131d082613347565b91506131db83613347565b92508273ffffffffffffffffffffffffffffffffffffffff0382111561320457613203613485565b5b828201905092915050565b600061321a82613367565b915061322583613367565b9250827fffffffffffffffffffffffffffffffffffffffffffffffffffffffffffffffff0382111561325a57613259613485565b5b828201905092915050565b600061327082613367565b915061327b83613367565b9250817fffffffffffffffffffffffffffffffffffffffffffffffffffffffffffffffff04831182151516156132b4576132b3613485565b5b828202905092915050565b60006132ca82613367565b91506132d583613367565b9250828210156132e8576132e7613485565b5b828203905092915050565b60006132fe82613347565b9050919050565b60008115159050919050565b6000819050919050565b60007fffffffff0000000000000000000000000000000000000000000000000000000082169050919050565b600073ffffffffffffffffffffffffffffffffffffffff82169050919050565b6000819050919050565b82818337600083830152505050565b60005b8381101561339e578082015181840152602081019050613383565b838111156133ad576000848401525b50505050565b60006133be82613367565b915060008214156133d2576133d1613485565b5b600182039050919050565b6133e6826134e3565b810181811067ffffffffffffffff82111715613405576134046134b4565b5b80604052505050565b600061341982613367565b91507fffffffffffffffffffffffffffffffffffffffffffffffffffffffffffffffff82141561344c5761344b613485565b5b600182019050919050565b600061346282613469565b9050919050565b6000613474826134f4565b9050919050565b6000819050919050565b7f4e487b7100000000000000000000000000000000000000000000000000000000600052601160045260246000fd5b7f4e487b7100000000000000000000000000000000000000000000000000000000600052604160045260246000fd5b6000601f19601f8301169050919050565b60008160601b9050919050565b7f537472696e67733a20686578206c656e67746820696e73756666696369656e74600082015250565b7f4c324d69677261746f722366696e616c697a654d69677261746553656e64657260008201527f3a20414c52454144595f4d494752415445440000000000000000000000000000602082015250565b7f4c324d69677261746f7223636c61696d5374616b653a20434c41494d5f53544160008201527f4b455f44495341424c4544000000000000000000000000000000000000000000602082015250565b7f455243313136373a20637265617465206661696c656400000000000000000000600082015250565b7f4c324d69677261746f722366696e616c697a654d69677261746544656c65676160008201527f746f723a204641494c5f46454500000000000000000000000000000000000000602082015250565b7f4c324d69677261746f722366696e616c697a654d69677261746544656c65676160008201527f746f723a20414c52454144595f4d494752415445440000000000000000000000602082015250565b7f4c324d69677261746f7223636c61696d5374616b653a20494e56414c49445f5060008201527f524f4f4600000000000000000000000000000000000000000000000000000000602082015250565b50565b7f4c324d69677261746f722366696e616c697a654d696772617465556e626f6e6460008201527f696e674c6f636b733a20414c52454144595f4d49475241544544000000000000602082015250565b7f416363657373436f6e74726f6c3a206163636f756e7420000000000000000000600082015250565b7f4f4e4c595f434f554e544552504152545f474154455741590000000000000000600082015250565b7f206973206d697373696e6720726f6c6520000000000000000000000000000000600082015250565b7f416363657373436f6e74726f6c3a2063616e206f6e6c792072656e6f756e636560008201527f20726f6c657320666f722073656c660000000000000000000000000000000000602082015250565b613803816132f3565b811461380e57600080fd5b50565b61381a81613305565b811461382557600080fd5b50565b61383181613311565b811461383c57600080fd5b50565b6138488161331b565b811461385357600080fd5b50565b61385f81613367565b811461386a57600080fd5b5056fea2646970667358221220c7a99f5dcbdb75bab130642db94462f294ce0bdb83f7b620cfd757048994db6b64736f6c63430008040033",
  "devdoc": {
    "kind": "dev",
    "methods": {
      "claimStake(address,uint256,uint256,bytes32[],address)": {
        "details": "Assume that only EOAs are included in the snapshot Regardless of the caller of this function, the EOA from L1 will be able to access its stake on L2",
        "params": {
          "_delegate": "Address that is migrating",
          "_fees": "Fees of delegator on L1",
          "_newDelegate": "Optional address of a new delegate on L2",
          "_proof": "Merkle proof of inclusion in Merkle tree state snapshot",
          "_stake": "Stake of delegator on L1"
        }
      },
      "finalizeMigrateDelegator((address,address,uint256,uint256,uint256,address))": {
        "params": {
          "_params": "L1 state relevant for migration"
        }
      },
      "finalizeMigrateSender((address,address,uint256,uint256))": {
        "params": {
          "_params": "L1 state relevant for migration"
        }
      },
      "finalizeMigrateUnbondingLocks((address,address,uint256,uint256[],address))": {
        "params": {
          "_params": "L1 state relevant for migration"
        }
      },
      "getRoleAdmin(bytes32)": {
        "details": "Returns the admin role that controls `role`. See {grantRole} and {revokeRole}. To change a role's admin, use {_setRoleAdmin}."
      },
      "grantRole(bytes32,address)": {
        "details": "Grants `role` to `account`. If `account` had not been already granted `role`, emits a {RoleGranted} event. Requirements: - the caller must have ``role``'s admin role."
      },
      "hasRole(bytes32,address)": {
        "details": "Returns `true` if `account` has been granted `role`."
      },
      "renounceRole(bytes32,address)": {
        "details": "Revokes `role` from the calling account. Roles are often managed via {grantRole} and {revokeRole}: this function's purpose is to provide a mechanism for accounts to lose their privileges if they are compromised (such as when a trusted device is misplaced). If the calling account had been granted `role`, emits a {RoleRevoked} event. Requirements: - the caller must be `account`."
      },
      "revokeRole(bytes32,address)": {
        "details": "Revokes `role` from `account`. If `account` had been granted `role`, emits a {RoleRevoked} event. Requirements: - the caller must have ``role``'s admin role."
      },
      "setClaimStakeEnabled(bool)": {
        "params": {
          "_enabled": "True/false indicating claimStake() enabled/disabled"
        }
      },
      "setDelegatorPoolImpl(address)": {
        "params": {
          "_delegatorPoolImpl": "DelegatorPool implementation contract"
        }
      },
      "setL1Migrator(address)": {
        "params": {
          "_l1Migrator": "L1Migrator address"
        }
      },
      "supportsInterface(bytes4)": {
        "details": "See {IERC165-supportsInterface}."
      }
    },
    "version": 1
  },
  "userdoc": {
    "kind": "user",
    "methods": {
      "claimStake(address,uint256,uint256,bytes32[],address)": {
        "notice": "Completes delegator migration using a Merkle proof that a delegator's state was included in a state snapshot represented by a Merkle tree root"
      },
      "finalizeMigrateDelegator((address,address,uint256,uint256,uint256,address))": {
        "notice": "Called by L1Migrator to complete transcoder/delegator state migration"
      },
      "finalizeMigrateSender((address,address,uint256,uint256))": {
        "notice": "Called by L1Migrator to complete sender deposit/reserve migration"
      },
      "finalizeMigrateUnbondingLocks((address,address,uint256,uint256[],address))": {
        "notice": "Called by L1Migrator to complete unbonding locks migration"
      },
      "setClaimStakeEnabled(bool)": {
        "notice": "Enable/disable claimStake()"
      },
      "setDelegatorPoolImpl(address)": {
        "notice": "Sets DelegatorPool implementation contract"
      },
      "setL1Migrator(address)": {
        "notice": "Sets L1Migrator"
      }
    },
    "version": 1
  },
  "storageLayout": {
    "storage": [
      {
        "astId": 343,
        "contract": "contracts/L2/gateway/L2Migrator.sol:L2Migrator",
        "label": "_roles",
        "offset": 0,
        "slot": "0",
        "type": "t_mapping(t_bytes32,t_struct(RoleData)338_storage)"
      },
      {
        "astId": 5094,
        "contract": "contracts/L2/gateway/L2Migrator.sol:L2Migrator",
        "label": "l1Migrator",
        "offset": 0,
        "slot": "1",
        "type": "t_address"
      },
      {
        "astId": 5096,
        "contract": "contracts/L2/gateway/L2Migrator.sol:L2Migrator",
        "label": "delegatorPoolImpl",
        "offset": 0,
        "slot": "2",
        "type": "t_address"
      },
      {
        "astId": 5098,
        "contract": "contracts/L2/gateway/L2Migrator.sol:L2Migrator",
        "label": "claimStakeEnabled",
        "offset": 20,
        "slot": "2",
        "type": "t_bool"
      },
      {
        "astId": 5102,
        "contract": "contracts/L2/gateway/L2Migrator.sol:L2Migrator",
        "label": "migratedDelegators",
        "offset": 0,
        "slot": "3",
        "type": "t_mapping(t_address,t_bool)"
      },
      {
        "astId": 5106,
        "contract": "contracts/L2/gateway/L2Migrator.sol:L2Migrator",
        "label": "delegatorPools",
        "offset": 0,
        "slot": "4",
        "type": "t_mapping(t_address,t_address)"
      },
      {
        "astId": 5110,
        "contract": "contracts/L2/gateway/L2Migrator.sol:L2Migrator",
        "label": "claimedDelegatedStake",
        "offset": 0,
        "slot": "5",
        "type": "t_mapping(t_address,t_uint256)"
      },
      {
        "astId": 5116,
        "contract": "contracts/L2/gateway/L2Migrator.sol:L2Migrator",
        "label": "migratedUnbondingLocks",
        "offset": 0,
        "slot": "6",
        "type": "t_mapping(t_address,t_mapping(t_uint256,t_bool))"
      },
      {
        "astId": 5120,
        "contract": "contracts/L2/gateway/L2Migrator.sol:L2Migrator",
        "label": "migratedSenders",
        "offset": 0,
        "slot": "7",
        "type": "t_mapping(t_address,t_bool)"
      }
    ],
    "types": {
      "t_address": {
        "encoding": "inplace",
        "label": "address",
        "numberOfBytes": "20"
      },
      "t_bool": {
        "encoding": "inplace",
        "label": "bool",
        "numberOfBytes": "1"
      },
      "t_bytes32": {
        "encoding": "inplace",
        "label": "bytes32",
        "numberOfBytes": "32"
      },
      "t_mapping(t_address,t_address)": {
        "encoding": "mapping",
        "key": "t_address",
        "label": "mapping(address => address)",
        "numberOfBytes": "32",
        "value": "t_address"
      },
      "t_mapping(t_address,t_bool)": {
        "encoding": "mapping",
        "key": "t_address",
        "label": "mapping(address => bool)",
        "numberOfBytes": "32",
        "value": "t_bool"
      },
      "t_mapping(t_address,t_mapping(t_uint256,t_bool))": {
        "encoding": "mapping",
        "key": "t_address",
        "label": "mapping(address => mapping(uint256 => bool))",
        "numberOfBytes": "32",
        "value": "t_mapping(t_uint256,t_bool)"
      },
      "t_mapping(t_address,t_uint256)": {
        "encoding": "mapping",
        "key": "t_address",
        "label": "mapping(address => uint256)",
        "numberOfBytes": "32",
        "value": "t_uint256"
      },
      "t_mapping(t_bytes32,t_struct(RoleData)338_storage)": {
        "encoding": "mapping",
        "key": "t_bytes32",
        "label": "mapping(bytes32 => struct AccessControl.RoleData)",
        "numberOfBytes": "32",
        "value": "t_struct(RoleData)338_storage"
      },
      "t_mapping(t_uint256,t_bool)": {
        "encoding": "mapping",
        "key": "t_uint256",
        "label": "mapping(uint256 => bool)",
        "numberOfBytes": "32",
        "value": "t_bool"
      },
      "t_struct(RoleData)338_storage": {
        "encoding": "inplace",
        "label": "struct AccessControl.RoleData",
        "members": [
          {
            "astId": 335,
            "contract": "contracts/L2/gateway/L2Migrator.sol:L2Migrator",
            "label": "members",
            "offset": 0,
            "slot": "0",
            "type": "t_mapping(t_address,t_bool)"
          },
          {
            "astId": 337,
            "contract": "contracts/L2/gateway/L2Migrator.sol:L2Migrator",
            "label": "adminRole",
            "offset": 0,
            "slot": "1",
            "type": "t_bytes32"
          }
        ],
        "numberOfBytes": "64"
      },
      "t_uint256": {
        "encoding": "inplace",
        "label": "uint256",
        "numberOfBytes": "32"
      }
    }
  }
}